:020000040800F2
:1000000088AB0020F9020008010300080303000880
:1000100005030008070300080903000800000000AA
:10002000000000000000000000000000390200088D
:100030000D03000800000000950200084923000895
:100040001303000813030008130300081303000838
:1000500013030008130300087D10000813030008B1
:100060001303000813030008130300081303000818
:100070001303000813030008130300081303000808
:1000800013030008130300081303000813030008F8
:1000900013030008130300081303000813030008E8
:1000A00013030008130300081303000813030008D8
:1000B00013030008130300081303000813030008C8
:1000C00013030008130300081303000813030008B8
:1000D00013030008130300081303000813030008A8
:1000E0001303000813030008130300081303000898
:1000F0001303000813030008130300081303000888
:1001000013030008130300086D24000813030008FC
:100110001303000813030008130300081303000867
:100120001303000813030008130300081303000857
:100130001303000813030008130300081303000847
:100140001303000813030008130300081303000837
:100150001303000813030008130300081303000827
:100160001303000813030008130300081303000817
:100170001303000813030008130300080000000025
:10018000130300081303000800F002F800F044F81D
:100190000AA090E8000C82448344AAF10107DA45E2
:1001A00001D100F039F8AFF2090EBAE80F0013F0F0
:1001B000010F18BFFB1A43F001031847EC4F000072
:1001C0000C500000103A24BF78C878C1FAD8520702
:1001D00024BF30C830C144BF04680C6070470000C1
:1001E0000023002400250026103A28BF78C1FBD840
:1001F000520728BF30C148BF0B6070471FB504F0DD
:1002000085FF9DE8030000F02BFD00F053FA1FBDB1
:1002100010B500F0B8FA10BD00F0E8FA1146FFF78B
:10022000EDFF02F0C3FC00F0EBFC03B4FFF7F0FFBE
:1002300003BC00F087FE00002C4B19680868B0E88A
:10024000F04F80F30988BFF36F8F4FF0000080F309
:10025000118870470000000008480068006880F3BB
:1002600008884FF0000080F3148862B661B6BFF3CF
:100270004F8FBFF36F8F00DF00BF00BF08ED00E0BE
:10028000DFF80C00016841F470010160704700BFA5
:1002900088ED00E0EFF30980BFF36F8F134B1A680E
:1002A0001EF0100F08BF20ED108A20E9F04F1060FB
:1002B00009B44FF0A00080F31188BFF34F8FBFF354
:1002C0006F8F04F073F84FF0000080F3118809BCC1
:1002D00019680868B0E8F04F1EF0100F08BFB0ECC6
:1002E000108A80F30988BFF36F8F70475400002095
:1002F000EFF3058070470000094880470948004730
:10030000FEE7FEE7FEE7FEE7FEE7FEE7FEE7FEE7C5
:10031000FEE7FEE704480549054A064B7047000022
:10032000092400088901000888A5002088AB002066
:1003300088A7002088A7002053EA020C00F06980FB
:100340002DE9F04B4FF00006002B1FBFB3FA83F5E9
:1003500003FA05F424FA05F65E4012BF1643B2FA1A
:1003600082F502FA05F4C5F120051EBF22FA05FC4C
:1003700044EA0C04203556EA044C4FEA144418BFF2
:10038000641C4FF000084FF00009904271EB030C21
:1003900039D3002919BFB1FA81F701FA07F6B0FA8B
:1003A00080F700FA07F6C7F120071EBF20FA07FC06
:1003B00046EA0C062037B6FBF4FCA7EB0507103F16
:1003C00007F01F0BCBF120060CFA0BFB2CFA06F6FC
:1003D00044BFB3460026202FA4BF5E464FF0000B5B
:1003E0005BEA060C08BF4FF0010B19EB0B09ABFBE6
:1003F000027C48EB0608C01B06FB02CC0BFB03CCBF
:1004000071EB0C01C1E70B46024641464846BDE888
:10041000F08B13B54FF000004FF00001AFF30080F8
:10042000BDE81C40704700000FB4044910B503AA92
:10043000029800F0EFF810BC5DF814FB80A40020D7
:10044000032A40F2308010F0030C00F0158011F800
:10045000013BBCF1020F624498BF11F801CB00F8D8
:10046000013B38BF11F8013BA2F1040298BF00F82C
:1004700001CB38BF00F8013B11F0030300F02580E9
:10048000083AC0F0088051F8043B083A51F804CB10
:10049000A0E80810F5E7121D5CBF51F8043B40F8D6
:1004A000043BAFF30080D20724BF11F8013B11F8E1
:1004B00001CB48BF11F8012B24BF00F8013B00F825
:1004C00001CB48BF00F8012B704710B5203AC0F0AF
:1004D0000B80B1E81850203AA0E81850B1E8185045
:1004E000A0E81850BFF4F5AF5FEA027C24BFB1E882
:1004F0001850A0E8185044BF18C918C0BDE81040F3
:100500005FEA827C24BF51F8043B40F8043B08BFFB
:100510007047D20728BF31F8023B48BF11F8012BC2
:1005200028BF20F8023B48BF00F8012B704702F0BB
:10053000FF0343EA032242EA024200F07FB84FF091
:10054000000200B5134694469646203922BFA0E823
:100550000C50A0E80C50B1F12001BFF4F7AF09072F
:1005600028BFA0E80C5048BF0CC05DF804EB890020
:1005700028BF40F8042B08BF704748BF20F8022B63
:1005800011F0804F18BF00F8012B70474FF0013C6D
:1005900050F8042B51F8043B9A4221D1A2EB0C03F2
:1005A000934313EACC1317D150F8042B51F8043BB2
:1005B0009A4215D1A2EB0C03934313EACC130BD14F
:1005C00050F8042B51F8043B9A4209D1A2EB0C03DA
:1005D000934313EACC13DBD04FF00000704700BF09
:1005E000D01A01BAB1FA81F101F0180122FA01F032
:1005F000CB40C1F12001DBB2C0B2C01A2CFA01F32A
:10060000D11A914311EAC311E6D170477047704780
:1006100070470000074B70B50D467B4400F033F87F
:100620000446284600F042F810B14FF0FF3070BD8C
:10063000204670BDE72400004FF000020429C0F0FE
:10064000128010F0030C3FF47CAFCCF1040CBCF131
:10065000020F18BF00F8012BA8BF20F8022BA1EB56
:100660000C01FFF76EBF5FEAC17C24BF00F8012BCD
:1006700000F8012B48BF00F8012B704701694A1CA4
:1006800002610878704700B58FB0CDE901310021D3
:10069000059105497944CDE903101146684600F0FB
:1006A000F1F80FB000BD0000E5FFFFFF007B00F098
:1006B0008000704710B542485421FFF740FF414881
:1006C0005421FFF73CFF40485421FFF738FF3F49D2
:1006D0003B483C4A3F4B08603D490A603A49196033
:1006E000531C0365481C1065012008653B48344ACB
:1006F00039A1784400F0E8F920B9384878440A383C
:1007000000F087FA37482F4A35A1784400F0DCF929
:1007100020B9344878440A3800F07BFA32482A4A33
:100720002FA1784400F0D0F920B92F4878440A3836
:1007300000F06FFA40232248DC000021224600F03E
:10074000A0F920B125487844543800F062FA1D48D9
:1007500022464023002100F094F920B1214878443A
:10076000543800F056FA184822461023002100F0B1
:1007700088F9002806D01C487844BDE81040563857
:1007800000F047BA10BD104870B5006D20F00104AC
:100790000B4800F00FFA0B4800F00CFA0A4800F082
:1007A00009FA09E0206D20F00105204600F002FA68
:1007B000204600F040F82C46002CF3D170BD00001C
:1007C0002CA4002080A40020D4A40020E400002059
:1007D000E8000020EC00002072000000824A0000C7
:1007E00077000000714A0000614A0000754600F081
:1007F00017FAAE4605006946534620F007008546C5
:1008000018B020B5FFF786FDBDE820404FF0000688
:100810004FF000074FF000084FF0000B21F00701E8
:10082000AC46ACE8C009ACE8C009ACE8C009ACE82B
:10083000C0098D46704770B50446051F00F0F4F9F5
:100840000068002C14BF446870BD002C18BFAC4277
:100850003CBF20466468F8D301680A18AA4218BF52
:10086000456003D12A680546114401602868411992
:10087000A1421CBF6C6070BD61686960216808445A
:10088000286070BD2DE9F04106460024D6E90170CC
:10089000F5688046304603E04146B847641C304660
:1008A000A8470028F8D12046BDE8F0812DE9F0479F
:1008B00005460C46C86820F4201040F48000C8604B
:1008C000800602D5084600F0FCFAE06841F2820199
:1008D0004FF0FF390140022903D0204600F09AFA78
:1008E000B5E000F42041B1F5004F0FD1C00306D5AB
:1008F0006168E06A884200D80846606006E02069C6
:10090000E0626060606901F05CFFA061A0680022A5
:10091000EEB200280DDAE1688B050AD4C043A0606E
:1009200041F490302260E0606068411C61600670B4
:10093000A5E0E0689046226040F40050E060206945
:1009400068BB606901F04FFF012704F12405A0B1E5
:10095000A08910F4407F08D0E06900F0B0F9206170
:1009600018B1E06840F4006016E0E7612561E068D6
:1009700020F4407040F480600EE0E06900F09FF9E0
:1009800000282061F1D0E06840F4006010F4407F5E
:10099000E06002D140F48070E06020696060E0684F
:1009A00025696FF0010AC1051FD56168E06A8842B8
:1009B00000D80846411B04D02246284600F034FAED
:1009C000F0BBE068010203D5E562C4E9015854E0D8
:1009D000691CE1626160E16940F48030491EC4E94C
:1009E000021030462E70BDE8F087010202D500F4F7
:1009F00080320AE06068411C61600670E0680A2E7F
:100A000040F48030E06006D00022E16A60688142F4
:100A100003D90B4602E00122F7E70346A7895B1BD7
:100A20007F0503D4E7699F4200DDE2B1814200D82F
:100A30000146E5620F1AC4E90158002B09DD00E008
:100A400005E022461946284600F0EEF908B148466E
:100A5000C9E747B1A069E5626560C01BA061E068B5
:100A600040F01000E060E068000208D56168A0690D
:100A7000E562491B08446560A0615046B3E7304613
:100A8000B1E770B5C468A50713D0650211D4B2F5FB
:100A9000807F09D0B2F5007F06D0B2F5806F08D113
:100AA000012300F1240106E05D1E6FF07F46B54290
:100AB00001D3012070BD0161C361416024F4706104
:100AC0001143C160002070BD2DE9F0410C4607467E
:100AD0001646104600F06EF82078611C61280AD096
:100AE000722802D077283CD102E00125002405E0DD
:100AF0000225042402E0082448F2020511F8010B43
:100B00002B2806D0622809D011F8010C74280AD0CD
:100B10000BE045F0030544F00204EFE745F004055F
:100B200044F00104EAE744F010043846214601F09D
:100B30006DFE411C15D00021316171604FF40071D0
:100B4000F560F1617061200704D530460222002172
:100B500000F0E4F8306D40F0010030653046BDE84B
:100B6000F0810020FBE72DE9F0410D460646104CD0
:100B7000206DC10704D0410804D020F00104F7E73C
:100B800022460EE0542000F09AF807000ED0206DA7
:100B900047F001010843542120653846FFF7CFFC98
:100BA0003A4629463046BDE8F0418DE70020D6E7B9
:100BB0002CA400202DE9F04704464FF000094FF027
:100BC000FF37C568D4E90486A80707D0204600F09F
:100BD00055F9304601F0E2FD002802DA3846BDE85A
:100BE000F087280502D54046FFF725FE4C21204618
:100BF000FFF7A5FC206D20F0010020654846EEE7D8
:100C000010B50446AFF300802046BDE81040FFF762
:100C10000CBB10B500F07CF9BDE8104000F072B9D3
:100C20000048704728A500200048704730A50020E4
:100C3000704770477047704738B504460A46002031
:100C40006946AFF30080002808BF38BD024600990E
:100C5000204600F084F9012038BD012000F0D3B90E
:100C6000F8B5AFF30080054600200C46102000BF09
:100C70000646A819A0420DD9324669460020AFF3B6
:100C80000080070008BF00F0BEF90098A04218BF1E
:100C90000546C419FFF7C8FF05600746F01D20F0A0
:100CA00007004619284600F053F9B44208BFF8BDC2
:100CB000A21B31463868BDE8F84000F050B970B565
:100CC0000646FFF7B1FF056806F10B0020F00704A8
:100CD000B4429CBF002070BD2B466A68BAB1106850
:100CE000A04210D304F1080188423CBF506858600C
:100CF00007D35168101941601168091B01605860E1
:100D00001460101D70BD13465268002AE7D12146B9
:100D10002846FFF791FF0028DED170BD2DE9F04194
:100D2000044616460D464769007B80072ED038469C
:100D300001F059FD50BB3EB3012E02D0022E25D149
:100D400004E0204600F025F905441DE0384601F096
:100D500038FDE168002841F01001E16005DA204625
:100D600000F058F80120BDE8F081C9030BD5626896
:100D7000E16A914200D81146A26911442269891A98
:100D8000814200DD08460544002D01DA0220EAE731
:100D9000E16A6068E268814206D29103E06203D5AD
:100DA00022F4003141F01002A6690027AE4213DCA4
:100DB000E16A814201D90B4600E0034603EB060CD1
:100DC0002369ACEB030CAC4506DD814201D98C46AE
:100DD00000E084469C4505D1A760276042F02000D2
:100DE000A5620DE0AD1BE669AE1B8142A66000D98D
:100DF0000846C01A281A20605819606022F02000A6
:100E000003490840E060002084F84870ABE7000028
:100E1000BFCFD7FFC16821F4001141F08001C1604C
:100E200000218160016070472DE9F047814614463A
:100E30000E464FF0FF383248D5685769054209D051
:100E40003846A16901F016FD002811DB2C48C0438B
:100E50000540E5602B4632464946384601F020FD04
:100E6000A16920F00042B21A11440028A16103D008
:100E70002046FFF7CFFF4046BDE8F08770B5044637
:100E80000569C06A6168884200D80846E16821F4B3
:100E90002011E160C90312D5A84208D02246411BA7
:100EA0002846FFF7C1FF10B14FF0FF3070BD0020A2
:100EB000E562C4E90150E06820F48030E060002081
:100EC00070BD10B50446C06820F02000E060A16A43
:100ED000A06988420DD02046FFF7D0FFE06820F4DB
:100EE000405040F01000E060A06AA0612069E0621C
:100EF000606044F24001E0688843E06010BD00009B
:100F000010000200002801D000F01CB8704700005B
:100F100010B5014602A000F05DF8012010BD0000F0
:100F200053494752545245443A20526564697265A8
:100F300063743A2063616E2774206F70656E3A2087
:100F40000000000001491820ABBEFEE726000200A9
:100F500000210160C0E9011070471020704703466E
:100F600040688C46002818BF88423CBF0346406852
:100F7000F8D318681844884207D00CF1030020F019
:100F80000700001D411A521A0146081D0A60FFF7AA
:100F900052BC10B50146C268900703D0900607D531
:100FA000886A0AE000F03EF801210160881E10BD49
:100FB0008B69486818440B69C01A91F848301BB116
:100FC00091F84910401A10BD1103FCD50028FADD34
:100FD000401E10BD70B505460C460A2000E06D1C91
:100FE00000F018F835B128780028F8D102E0641C28
:100FF00000F010F814B120780028F8D1BDE8704056
:101000000A2000F007B810B500F010F8BDE8104055
:10101000FFF778BF08B569468DF800000320ABBE26
:1010200008BD70470048704728A5002010B501286A
:1010300005D0002103A0FFF7CDFF012010BD09A1BD
:10104000F8E7000053494752544D454D3A204F753B
:1010500074206F662068656170206D656D6F7279B0
:10106000000000003A2048656170206D656D6F7268
:101070007920636F727275707465640010B5012019
:101080000249086001F06CFC10BD0000143C0140F6
:10109000F8B502460B460025002400200021DCE0C4
:1010A000012606FA01F51E6806EA0504AC4273D172
:1010B0005E68012E08D05E68022E05D05E68112E93
:1010C00002D05E68122E13D190684F000326BE40F6
:1010D000B0434F00DE68BE40304390605068012648
:1010E0008E40B0431E79C6F300168E4030435060E8
:1010F000D0684F000326BE40B0434F009E68BE40FC
:101100003043D0605E68022E02D05E68122E13D18A
:10111000CF0802F1200656F827004E07F70E0F26DB
:10112000BE40B0434F07FF0E1E69BE403043CF089C
:1011300002F1200646F8270010684F000326BE4043
:10114000B0431E7906F003064F00BE4030431060E6
:101150005E6806F08056B6F1805F7DD100BF002644
:101160000096404E366846F480463E4F3E603E460E
:10117000366806F48046009600BF00BF3A4E8F08DE
:1011800056F827008E07370F0F26BE40B043374E64
:10119000B24202D1002624E05EE0354EB24201D1D7
:1011A00001261EE0334EB24201D1022619E0324E32
:1011B000B24201D1032614E0304EB24201D10426DE
:1011C0000FE02F4EB24201D105260AE02D4EB24269
:1011D00001D1062605E02C4EB24201D1072600E0DF
:1011E00008268F073F0FBE4030431F4E8F0846F83A
:1011F0002700264E3068A0435E6806F48036B6F5B8
:10120000803F00D12043214E3060361D3068A0431E
:101210005E6806F40036B6F5003F00D120431B4E51
:10122000361D3060361D3068A0435E6806F48016B7
:10123000B6F5801F00D12043144E08363060361DAD
:101240003068A0435E6806F40016B6F5001F00D1B2
:1012500020430E4E0C363060491C1029FFF420AF9D
:10126000F8BD000044380240083801400000024048
:101270000004024000080240000C0240001002403E
:101280000014024000180240001C0240003C0140D3
:10129000024613690B400BB1012000E000207047AB
:1012A0000AB1816101E00B04836170470148006865
:1012B00070470000D4000020034800680349097803
:1012C0000844014908607047D4000020DC00002079
:1012D00010B50A48006840F40070084908600846E4
:1012E000006840F480600860032000F0A5F80F203B
:1012F00000F006F800F02AF8002010BD003C024083
:1013000070B504460E4800784FF47A71B1FBF0F0E6
:101310000C490968B1FBF0F5284600F0CFFC08B194
:10132000012070BD102C07D200222146501E00F073
:1013300045F80548046001E00120F2E70020F0E7ED
:10134000DC000020E0000020D800002008B500BF2D
:10135000002000900E48006840F480400C4908606E
:101360000846006800F48040009000BF00BF00BF46
:1013700000200090081F006840F08050091F08609E
:101380000846006800F08050009000BF00BF08BD14
:10139000443802400146084600280DDB00BF00BF6C
:1013A00000F01F0301229A4043099B0003F1E02350
:1013B000C3F8002100BF00BF00BF70472DE9F05FF8
:1013C00080460D461646002701F0C2F90746394609
:1013D0002A46334601F00700C0F1070ABAF1040FAC
:1013E00002D94FF0040A01E0C0F1070AD14600F12A
:1013F000040ABAF1070F02D24FF0000A01E0A0F18F
:10140000030AD4464FF0010A0AFA09FAAAF1010ABE
:101410000AEA020A0AFA0CFA4FF0010B0BFA0CFB6B
:10142000ABF1010B0BEA030B4AEA0B0421464046E1
:1014300001F096F9BDE8F09F00BF00F00702064BEF
:1014400019684FF6FF031940044B0B4343EA02218E
:10145000014B196000BF70470CED00E00000FA0579
:10146000F8B5044600250026207800F0010020B9D8
:10147000207800F0040004282FD100205B49886602
:10148000FFF714FF054606E0FFF710FF401B022898
:1014900001D90320F8BD56480068C0F3C060002899
:1014A000F2D160688101207A41EA007050498431AC
:1014B000086001204D498866FFF7F8FE054606E002
:1014C000FFF7F4FE401B022801D90320E2E7484859
:1014D0000068C0F3C0600028F2D0207800F002005D
:1014E00002287DD100BF00200090414840300068B4
:1014F00040F080503E49403108600846006800F0E6
:101500008050009000BF00BF3A48006840F48070EF
:1015100038490860FFF7CAFE054606E0FFF7C6FE39
:10152000401B022801D90320B4E73248006800F4C8
:1015300080700028F2D02E487030006800F44076A9
:101540004EB3A08900F44070B04224D028487030D7
:10155000006820F4407601202749086000200860D8
:10156000234870300660006800F0010098B1FFF772
:101570009DFE054608E0FFF799FE401B41F28831C9
:10158000884201D9032085E7194870300068C0F30C
:1015900040000028EFD000BFA08900F44070B0F5F3
:1015A000407F0CD112480830006820F4F810134A2C
:1015B000E168114008430E490831086007E00C4813
:1015C0000830006820F4F81009490831086008481C
:1015D00070300068A189C1F30B010843044900E0A1
:1015E00002E07031086000BF002053E7000047426E
:1015F0000038024000700040400E4742FFFCFF0FE1
:1016000070B504460D460CB9012070BD58480068FD
:1016100000F00F00A84209D255490D700846006835
:1016200000F00F00A84201D00120EEE7207800F082
:10163000020002281DD1207800F00400042805D102
:101640004C48006840F4E0504A490860207800F0B7
:101650000800082805D14748006840F46040454923
:1016600008604448006820F0F000A1680843414940
:101670000860207800F00100A8B36068012807D155
:101680003C4808380068C0F34040B8B90120BCE7C6
:101690006068022802D06068032807D135480838FE
:1016A0000068C0F3406048B90120AEE7314808380F
:1016B0000068C0F3400008B90120A6E72D48006883
:1016C00020F00300616808432A490860FFF7EEFD37
:1016D000064609E0FFF7EAFD801B41F288318842A7
:1016E00002D9032091E707E02248006800F00C00CF
:1016F0006168B0EB810FEDD11D48006800F00F006C
:10170000A84209D91A490D700846006800F00F0078
:10171000A84201D0012078E7207800F004000428D6
:1017200007D11448006820F4E050E16808431149EB
:101730000860207800F00800082808D10D480068EB
:1017400020F46040216940EAC1000A49086000F0C5
:1017500019F808490968C1F30311074A515CC840E8
:101760000649086006480068FFF7CAFD00204CE7FC
:10177000003C0240083802408F510008E000002081
:10178000D80000202DE9F047002400250026A146BE
:101790002548006800F00C0020B1042805D0082876
:1017A0003AD105E0DFF8849039E0DFF8849036E044
:1017B0001D48001F006800F03F041B48001F006820
:1017C00000F4800078B11A481749091F0968C1F36D
:1017D0008811A0FB01700146224600233846FEF71F
:1017E000ABFD05460EE011480F49091F0968C1F31A
:1017F0008811A0FB01700146224600233846FEF7FF
:101800009BFD05460848001F0068C0F30140401CCE
:101810004600B5FBF6F902E0DFF8109000BF00BF0C
:101820004846BDE8F0870000083802400024F40074
:1018300000127A00F8B504460CB90120F8BD2078F2
:1018400000F00100002874D0F948006800F00C0096
:1018500004280DD0F648006800F00C00082813D1C9
:10186000F348001F006800F48000B0F5800F0BD132
:10187000EF4808380068C0F34040002859D060683D
:10188000002856D10120D9E700BF6068B0F5803F3D
:1018900008D1E7480838006840F48030E449083946
:1018A00008601EE06068B0F5A02F0DD1E048083850
:1018B000006840F48020DE49083908600846006866
:1018C00040F4803008600CE0D9480838006820F403
:1018D0008030D749083908600846006820F4802025
:1018E000086000BF606890B1FFF7E0FC054606E0C5
:1018F000FFF7DCFC401B642801D903209EE7CC489D
:1019000008380068C0F340400028F1D011E0FFF72C
:10191000CDFC054606E0FFF7C9FC401B642801D951
:1019200003208BE7C24808380068C0F34040002815
:10193000F1D1207800F0020002285FD1BC48006895
:1019400000F00C0058B1BA48006800F00C000828FC
:101950001CD1B748001F006800F48000B0B9B4483B
:1019600008380068C0F3400020B1E068012801D0C9
:10197000012063E7AE480838006820F0F8002169CC
:1019800040EAC100AA490839086037E0E06800B3BE
:101990000120A8490860FFF789FC054606E0FFF72B
:1019A00085FC401B022801D9032047E7A0480838DE
:1019B0000068C0F340000028F1D09D480838006856
:1019C00020F0F800216940EAC1009949083908600F
:1019D00014E0002097490860FFF768FC054606E020
:1019E000FFF764FC401B022801D9032026E790483A
:1019F00008380068C0F340000028F1D1207800F0DA
:101A0000080008282CD16069A8B101208A49086023
:101A1000FFF74CFC054606E0FFF748FC401B022898
:101A200001D903200AE782486C300068C0F3400007
:101A30000028F1D014E000207F490860FFF736FC51
:101A4000054606E0FFF732FC401B022801D90320BF
:101A5000F4E677486C300068C0F340000028F1D10C
:101A6000207800F00400042870D100277048383036
:101A7000006800F0805090B900BF002000906C48D2
:101A80003830006840F080506949383108600846B5
:101A9000006800F08050009000BF00BF0127674839
:101AA000006800F48070B0B96448006840F4807049
:101AB00062490860FFF7FAFB054606E0FFF7F6FB10
:101AC000401B022801D90320B8E65C48006800F4F6
:101AD00080700028F2D000BFA068012808D15448C7
:101AE0006830006840F001005149683108601DE02D
:101AF000A06805280DD14E486830006840F0040009
:101B00004B49683108600846006840F001000860F1
:101B10000CE047486830006820F001004449683113
:101B200008600846006820F00400086000BFA06854
:101B3000A8B1FFF7BBFB054609E0FFF7B7FB401B69
:101B400041F28831884202D9032077E626E03848FE
:101B500068300068C0F340000028EED013E0FFF7C3
:101B6000A5FB054608E0FFF7A1FB401B41F28831C9
:101B7000884201D9032061E62D4868300068C0F32F
:101B800040000028EFD1012F07D1294838300068E4
:101B900020F0805026493831086000BFA069002835
:101BA00045D02348006800F00C0008285DD0A069EB
:101BB000022845D100201F490866FFF777FB05463C
:101BC00006E0FFF773FB401B022801D9032035E62E
:101BD000174808380068C0F340600028F1D1D4E904
:101BE00007010843616A40EA81110122A06AC2EB41
:101BF000500041EA00412C20005D41EA00600C49A0
:101C0000091F086001200B490866FFF74FFB0546D6
:101C100006E0FFF74BFB401B022801D903200DE62D
:101C2000034808380068C0F340600028F1D03FE066
:101C30000838024000004742800E474200700040D2
:101C400000201C490866FFF731FB054606E0FFF758
:101C50002DFB401B022801D90320EFE51648006840
:101C6000C0F340600028F2D122E0A069012800D131
:101C7000E4E51148001D066806F48001E069814230
:101C800014D106F03F01206A81420FD147F6C0709F
:101C90003040616A884209D106F44031A06A81422D
:101CA00004D106F07061E06A814201D00120C5E5EF
:101CB0000020C3E5000047420038024070B50446EA
:101CC0002546681EB0F1807F01D301200FE0681E19
:101CD0004FF0E02148610F214FF0FF3000F040FD50
:101CE00000204FF0E021886107200861002070BDCE
:101CF0007047704710B504460CB9012010BD94F828
:101D00003D0028B9002084F83C00204600F00CF883
:101D1000022084F83D00211D206800F0BFFB012057
:101D200084F83D000020E9E770470146022081F871
:101D30003D000868806800F00702062A05D00868A0
:101D4000006840F001000B681860012081F83D0038
:101D50000020704701460868C06840F001000B6829
:101D6000D8600868806800F00702062A05D0086875
:101D7000006840F001000B681860002070470146C1
:101D8000022081F83D0000BF0868006A41F211128C
:101D9000104050B90868006A9210104028B90868CD
:101DA000006820F001000A68106000BF012081F87F
:101DB0003D000020704701460868C06820F001001F
:101DC0000A68D06000BF0868006A41F21112104032
:101DD00050B90868006A9210104028B90868006875
:101DE00020F001000A68106000BF002070477047B3
:101DF00010B5044620680069C0F34000D8B12068DF
:101E0000C068C0F34000B0B16FF002002168086103
:101E1000012020772068806900F0030018B1204677
:101E2000FFF7E5FF05E0204600F0ADF8204600F0A2
:101E30004AF90020207720680069C0F38000D8B1FB
:101E40002068C068C0F38000B0B16FF00400216862
:101E50000861022020772068806900F4407018B182
:101E60002046FFF7C4FF05E0204600F08CF820462E
:101E700000F029F90020207720680069C0F3C00035
:101E8000D8B12068C068C0F3C000B0B16FF00800DE
:101E900021680861042020772068C06900F00300F1
:101EA00018B12046FFF7A3FF05E0204600F06BF8CD
:101EB000204600F008F90020207720680069C0F370
:101EC0000010D8B12068C068C0F30010B0B16FF046
:101ED000100021680861082020772068C06900F49C
:101EE000407018B12046FFF782FF05E0204600F061
:101EF0004AF8204600F0E7F80020207720680069C3
:101F000000F0010058B12068C06800F0010030B155
:101F10006FF0010021680861204600F001F9206897
:101F20000069C0F3C01058B12068C068C0F3C01089
:101F300030B16FF08000216808612046FFF7D8FEBD
:101F400020680069C0F3801058B12068C068C0F3F1
:101F5000801030B16FF0400021680861204600F029
:101F6000E0F820680069C0F3401058B12068C068EC
:101F7000C0F3401030B16FF02000216808612046A6
:101F8000FFF7B7FE10BD704770B504460D46164604
:101F900000BF94F83C00012801D1022070BD01204F
:101FA00084F83C0000BF022084F83D0036B1042EC6
:101FB0001BD0082E31D00C2E5ED145E0294620687A
:101FC00000F0EAFA2068806940F008002168886122
:101FD0002068806920F00400216888612068806999
:101FE000296908432168886147E02946206800F094
:101FF0000BFB2068806940F40060216888612068DC
:10200000806920F48060216888612068806929697E
:1020100040EA0120216888612FE02946206800F00D
:1020200031FB2068C06940F008002168C861206861
:10203000C06920F004002168C8612068C06929696E
:1020400008432168C86118E02946206800F056FB63
:102050002068C06940F400602168C8612068C069D8
:1020600020F480602168C8612068C069296940EA5D
:1020700001202168C86100E000BF00BF012084F892
:102080003D0000BF002084F83C0000BF00BF85E792
:1020900010B504460CB9012010BD94F83D0028B9D4
:1020A000002084F83C00204600F00CF8022084F860
:1020B0003D00211D206800F0F1F9012084F83D0069
:1020C0000020E9E77047704770B504460E460122CC
:1020D0003146206800F04EFA0F492068884203D04C
:1020E0000E492068884201D1012000E0002028B17B
:1020F0002068406C40F40040216848642068806893
:1021000000F00705062D05D02068006840F00100AA
:1021100021680860002070BD0000014000040140FB
:10212000704770470A49096801F0010171B1084917
:102130008039096801F0010141B100BF4FF06041F1
:1021400009680029FAD04FF0604210707047000013
:10215000800E00E008B500BF002000901048006825
:1021600040F001000E4908600846006800F00100D8
:10217000009000BF00BF01200A4908600A4848607B
:1021800000208860C8600948FEF782FF00220A210B
:102190000620FFF713F90620FFF7FCF808BD000042
:1021A00030380240F0000020000021100000024002
:1021B00000B587B000BF002001902748006840F0BC
:1021C0000100254908600846006800F00100019000
:1021D00000BF00BF00BF002001900846006840F02B
:1021E000080008600846006800F00800019000BF81
:1021F00000BF00BF002001900846006840F00400C6
:1022000008600846006800F00400019000BF00BFAD
:1022100000BF002001900846006840F002000860FE
:102220000846006800F00200019000BF00BF0022D5
:102230004FF210010948FFF733F84FF210000290F7
:102240000120039000200490059002A90348FEF7A6
:102250001FFF07B000BD000030380240000C0240F4
:1022600008B500BF002000900D48006840F0010054
:102270000B4908600846006800F00100009000BFAC
:1022800000BFC02007490860022048600020886025
:10229000C860022008610448FEF7FAFE08BD00008D
:1022A00030380240F00000200000024008B500BFB6
:1022B000002000901048006840F002000E490860BD
:1022C0000846006800F00200009000BF00BF0B4805
:1022D0000B49086044F61F610948C1605320084952
:1022E000486000210648816001614161FFF702FDFD
:1022F0000348FFF71AFD08BD4038024000040040C3
:102300004002002010B50E48FFF7C2FE60200D49C4
:102310000860002048608860086100220848FFF7D4
:1023200033FE00210648FFF7CFFE0422054904488A
:10233000FFF72AFE04210248FFF7C6FE10BD000089
:10234000400200208002002010B5FEF7B5FF02F029
:1023500083FC012801D002F027F910BD00B597B029
:1023600000BF002001902648006840F080502449BA
:1023700008600846006800F08050019000BF00BF70
:1023800000BF002001901F48006840F480401D49B4
:1023900008600846006800F48040019000BF00BF5C
:1023A000012006900004079002200C9041050D9139
:1023B00008210E914FF4A8710F910221109107216D
:1023C000119106A8FFF736FA0F2012900220139001
:1023D000002014904FF4A05015904FF480501690A8
:1023E000052112A8FFF70CF9012002906420039048
:1023F0000221049102A8FFF733F817B000BD0000D6
:1024000040380240007000401448006840F47000FA
:10241000124908601248006840F001001049086045
:1024200000200F49083108600D4800680D49084038
:102430000B4908600C48091D0860081F006820F45B
:102440008020091F0860002005490C3108604FF00A
:1024500000600249803908607047000088ED00E0A4
:1024600000380240FFFFF6FE1030002410B5094886
:10247000FFF7BEFC074800680069C0F3400010B1D8
:102480000120054908706FF00100024909680861E0
:1024900010BD0000040100200300002010B50268F8
:1024A000294B98420ED0B0F1804F0BD0274B984269
:1024B00008D0274B984205D0264B984202D0264B95
:1024C000984203D122F070024B681A431E4B984287
:1024D00020D0B0F1804F1DD01C4B98421AD01C4B1D
:1024E000984217D01B4B984214D01B4B984211D0E6
:1024F0001A4B98420ED01A4B98420BD0194B984267
:1025000008D0194B984205D0184B984202D0184B6E
:10251000984203D122F44072CB681A4322F0800320
:102520004C6943EA040202608B68C3620B688362F1
:10253000054B984202D0084B984201D10B690363C6
:102540000123436110BD0000000001400004004071
:1025500000080040000C0040000401400040014021
:10256000004401400048014000180040001C0040A9
:102570000020004030B501F01F05012404FA05F3E6
:10258000046A9C430462046A01F01F0502FA05F51F
:102590002C43046230BD000030B5056A25F001050A
:1025A0000562026A4368846924F0700424F003041D
:1025B0000D682C4322F002028D682A43104DA84278
:1025C00000D103E00F4DA84206D100BF22F008025F
:1025D000CD682A4322F00402094DA84202D0094DD9
:1025E000A84207D123F4807323F400734D692B4371
:1025F0008D692B43436084614D684563026230BD41
:10260000000001400004014030B5056A25F01005C6
:102610000562026A4368846924F4E04424F4407447
:102620000D6844EA052422F020028D6842EA051272
:10263000124DA84200D103E0114DA84207D100BFBE
:1026400022F08002CD6842EA051222F040020B4DD2
:10265000A84202D00A4DA84209D123F4806323F492
:1026600000634D6943EA85038D6943EA850343604E
:1026700084614D688563026230BD00000000014046
:102680000004014030B5056A25F480750562026AD0
:102690004368C46924F0700424F003040D682C43DB
:1026A00022F400728D6842EA0522124DA84200D140
:1026B00003E0114DA84207D100BF22F40062CD68AB
:1026C00042EA052222F480620A4DA84202D00A4D55
:1026D000A84209D123F4805323F400534D6943EAFF
:1026E00005138D6943EA05134360C4614D68C563F2
:1026F000026230BD000001400004014030B5056AAF
:1027000025F480550562036A4468C26922F4E042F8
:1027100022F440720D6842EA052223F400538D68CA
:1027200043EA0533084DA84202D0084DA84204D11F
:1027300024F480444D6944EA85144460C2614D68C4
:102740000564036230BD0000000001400004014048
:1027500002480068C0F30220704700000CED00E062
:1027600010B5002804DB0A07130E054A135406E0CF
:102770000A07140E034A00F00F031B1FD45410BDA8
:1027800000E400E018ED00E00146087D012801D0DA
:10279000087D08B9012070470020FCE701466FF46E
:1027A0000040084420B1012804D0022806D103E0EB
:1027B000002070470020FCE70020FAE74FF0FF30D0
:1027C000F7E701466FF40040084420B1012804D027
:1027D000022806D103E0002070470020FCE700201B
:1027E000FAE70020F8E701466FF40040084420B102
:1027F000012804D0022806D103E0012070470120FF
:10280000FCE70120FAE70020F8E7000070B5044675
:102810000D4614B94FF0FF3070BD20783A281AD118
:102820000EA12046FDF7B2FE10B948F20100F3E711
:102830000CA12046FDF7AAFE10B948F20200EBE712
:102840000AA12046FDF7A2FE10B948F20300E3E713
:102850004FF0FF30E0E74FF0FF30DDE73A535444EC
:10286000494E00003A5354444F5554003A5354448F
:102870004552520002466FF40040104420B1012836
:1028800005D0022809D105E04FF0FF3070474FF026
:10289000FF30FBE74FF0FF30F8E74FF0FF30F5E790
:1028A0002DE9F04106460C46154698466FF4004067
:1028B000304420B1012806D0022811D10EE04FF09B
:1028C000FF30BDE8F08105E014F8017B384601F0E7
:1028D00099F86D1E002DF7D10020F2E70020F0E7F7
:1028E0004FF0FF30EDE7000010B500240D480078F0
:1028F000052812D2DFE800F00F0306090C0000F0F3
:10290000CFFF0CE000F080FF09E000F0A3FF06E03D
:1029100000F0ECFF03E0012401E0012400BF00BF50
:10292000204610BD5000002070B50446002514E07C
:10293000012C04D0022C05D101F012F903E001F0C2
:102940002BF900E000BF00BFC82001F0C7FB01F079
:10295000DBF8C82001F0C2FB6D1C022DE8DB70BD66
:1029600001200149087070470100002002461068EC
:10297000C0680B68DB68984201D901207047106875
:10298000C0680B68DB68984202D24FF0FF30F5E771
:102990000020F3E770B505460C462846FFF7F4FE25
:1029A000A0B12046FFF7F0FE80B1286800692168D9
:1029B0000969884201D2012070BD28680069216838
:1029C000096988420FD94FF0FF30F5E72846FFF735
:1029D000DBFE08B10120EFE72046FFF7D5FE10B17E
:1029E0004FF0FF30E8E70020E6E770B505460C46FB
:1029F0002846FFF7C9FEB0B12046FFF7C5FE90B1EB
:102A000028680069EB68C21A20680069E368C11A87
:102A10008A4201DA012070BD8A4202DD4FF0FF30A8
:102A2000F9E70020F7E72846FFF7AEFE08B10120DE
:102A3000F1E72046FFF7A8FE10B14FF0FF30EAE7BC
:102A40000020E8E770B505460C462846FFF79CFED7
:102A5000A8B12046FFF798FE88B1286800686B6827
:102A6000C21A206800686368C11A8A4201DA01202C
:102A700070BD8A4202DB4FF0FF30F9E714E02846D0
:102A8000FFF782FE08B10120F2E72046FFF77CFE47
:102A900010B14FF0FF30EBE72868406821684968C3
:102AA000884201D20120E3E70020E1E708B500BF3A
:102AB000002000901048006840F008000E490860AF
:102AC0000846006800F00800009000BF00BF0B48F7
:102AD0000B49086040F27750486000210848816047
:102AE00042F6DF61C160002101614161FFF702F937
:102AF0003220FEF74FFC08BD40380240000C004079
:102B0000040100208A68002A01DCFDF7CFBE521EB6
:102B10008A604A68C0B2531C4B6010707047000056
:102B200010B50021002224E001EB4100144B03EB1F
:102B3000C000007D30B101EB410003EBC000007D1F
:102B4000012815D12AB901EB41000D4B03EBC0025E
:102B50000EE001EB41000A4B03EBC000007D0128B1
:102B600006D1032001EB4103054C04EBC3031875A8
:102B7000491C0429D8DB0AB1104610BD0148FCE706
:102B80009C0200203800002010B5044602A0FDF78A
:102B90004BFC00F0D1FE10BD49646C65207461737C
:102BA0006B2072756E200D0A000000001CB5FFF747
:102BB0002BFCFEF78DFBFFF7D1FBFFF7F9FAFFF7D0
:102BC000C9FAFFF74DFBFFF771FBFFF79BFBFFF720
:102BD0006DFF00220121022001F000FD154908606F
:102BE00000220121022001F0F9FC1349086013487A
:102BF000032100238022CDE9001011A1154801F026
:102C0000FBFF1548032100238022CDE9001013A10A
:102C1000174801F0F1FF1748032100238022CDE976
:102C2000001015A1194801F0E7FF01F069FB00BF92
:102C3000FEE70000080000200C000020100000202B
:102C400076446574656374427574746F6E547970FC
:102C500065000000ED3C0008140000207644657417
:102C60006563745573657253746174650000000088
:102C70003941000818000020765461736B506C6174
:102C8000795363686564756C650000008D420008C7
:102C90002DE9F04105460E461C4807681C480068AF
:102CA000001D01F00DF850B91948006890F82C107B
:102CB0000120884017490968814316480160681C53
:102CC00038B936B112480168091D134801F0CCF833
:102CD0001AE07C190E4800684460BC4207D20C48D8
:102CE0000168091D0D48006801F0A4F80CE00848CF
:102CF0000168091D0A48006801F09CF8094800684D
:102D0000844201D207480460BDE8F08168000020D9
:102D1000540000206C000020F00300205C00002024
:102D2000580000208400002010B5044601F0A8F8E7
:102D300024480068401C234908602348006840B9C3
:102D4000214804600846006801280DD100F0D8F938
:102D50000AE01E48006838B91B480068C06AE16A8A
:102D6000884201D81848046019480068401C184976
:102D7000086008460068606494F82C1001208840C0
:102D800014490968084313490860E16A01EB8101AD
:102D9000114A02EB8100211D01F066F801F09CF858
:102DA0000A48006868B108480068C06AE16A884259
:102DB00007D24FF0805009490860BFF34F8FBFF32F
:102DC0006F8F10BD640000205400002070000020B0
:102DD000800000206C0000203C03002004ED00E097
:102DE00010B501F04DF810480068D0B90F4801F057
:102DF00011F80F4801F00EF80C480E4908600C4815
:102E00000D49086000220C21052001F0E7FB06496E
:102E100008600846006820B108A10348006801F076
:102E200021F901F059F810BD9C0000200404002095
:102E3000180400209400002098000020546D725166
:102E40000000000010B516E001F01AF80C48C06848
:102E5000C468201D00F034FF0A480068401E09497C
:102E6000086009480068401E0749086001F034F80E
:102E7000204600F05FF8044800680028E4D110BD47
:102E8000DC030020640000206000002070B50446D0
:102E90000D46206C70B1216CE0680144E160D4E91A
:102EA0000210884201D32168E1602846226CE16863
:102EB000FDF7C6FA70BD2DE9F04104460F461546F0
:102EC0004FF00008A66B206C48B9206800282CD170
:102ED000A06801F07BFF80460020A06025E07DB95E
:102EE0003946226C6068FDF7ABFA216C60680844D3
:102EF0006060D4E90101884217D32068606014E063
:102F00003946226CE068FDF79BFA216CE068411AB3
:102F1000E1602168E068884203D2216CA068411A10
:102F2000E160022D01D106B1761E701CA0634046FF
:102F3000BDE8F08110B50446206B00F0EDFF20469F
:102F400000F0EAFF10BD00000146084A126812684E
:102F50000AB9012200E000220A600A6822B9034A85
:102F60001268D268106800E00020704794000020CA
:102F700030B54FF42043174800F007042CB1C01DB2
:102F800020F00700134C041B1B1B0246124C22604E
:102F90000024114D6C60D018083820F007000F4C49
:102FA000206000240D4D2D686C600C4D2D682C6048
:102FB0001146441A4C60094C24680C60084D4C685A
:102FC0002C60084D4C682C604FF00044064D2C607E
:102FD00030BD00002C040020A8000020B00000201C
:102FE000B8000020B4000020C400002000BFFFF79C
:102FF00029FF064800680128F9D94FF0805004499C
:103000000860BFF34F8FBFF36F8FF0E73C030020E2
:1030100004ED00E02DE9F04106460D4617469846BE
:10302000069C0DB9246000E02760E6632564012159
:10303000204601F027FB84F84C80BDE8F0812DE9A3
:10304000F05F82460E4690469B460A9F0C9C4FEAD4
:103050008801A522206BFDF76AFAA8F10100216B17
:1030600001EB800929F0070909F0070008B90120E0
:1030700000E0002058B900BFA02080F31188BFF302
:103080004F8FBFF36F8F00BF00BF00BFFDE786B15A
:10309000002507E0715D04F134004155705D00B911
:1030A00002E06D1C102DF5D300BF00214320015517
:1030B00002E0002084F83400052F00D30427E762E3
:1030C000E76400202065201D00F0B1FE04F1180027
:1030D00000F0ADFE2461C7F10500A061646200202C
:1030E000606584F858005A465146484600F076FB21
:1030F00020600B9808B10B980460BDE8F09F0000B9
:1031000010B5002407E004EB84010F4A02EB8100B4
:1031100000F080FE641C052CF5D30C4800F07AFE0C
:103120000B4800F077FE0B4800F074FE0A4800F0F0
:1031300071FE0A4800F06EFE044809490860044820
:103140000849086010BD00003C030020A0030020D7
:10315000B4030020C8030020DC030020F00300209B
:10316000580000205C00002010B50146164800E021
:10317000006803688B42FBD30246436813448B42CA
:1031800004D143684C682344436001460A464B68B7
:1031900013440468A34211D10C4C03682468A34271
:1031A00008D04B680468646823444B6003681B685C
:1031B0000B6005E0054B1B680B6001E003680B60CA
:1031C000884200D0016010BDA8000020B00000209F
:1031D0002DE9F04104460D4616461F464FF0000803
:1031E00065602461B5420CD8F01BA169884202D306
:1031F0004FF0010811E0211D0948006800F01AFE97
:103200000BE0BE4204D2BD4202D34FF0010804E0FD
:10321000211D0448006800F00DFE4046BDE8F08125
:10322000980000209400002070B5054600F028FEAC
:10323000A86B08B9012400E0002400F04DFE2046F0
:1032400070BD70B5054600F01BFEA86BE96B8842A7
:1032500001D1012400E0002400F03EFE204670BDB4
:10326000F8B505460F461A480068C068C468201DB6
:1032700000F026FD94F8280000F00400F0B1A069E9
:1032800041192B463A462046FFF7A2FFE0B1002045
:1032900003462A4601460090204601F0F5FE064608
:1032A0005EB900BFA02080F31188BFF34F8FBFF33A
:1032B0006F8F00BF00BF00BFFDE705E094F8280056
:1032C00020F0010084F828002046216A8847F8BDD4
:1032D0009400002070B586B08DE003980028FBDBD9
:1032E000059C606908B9012000E0002010B9201D8C
:1032F00000F0E6FC02A800F0DDF8054603980A2875
:1033000077D2DFE800F00905073A426506083B433B
:1033100000BF00BF00BF00BF94F8280040F00100CC
:1033200084F828000498A269811803462A4620469A
:10333000FFF74EFF00B32046216A884794F8280023
:1033400000F00400C0B1002000900498A169421868
:1033500000231946204601F097FE06465EB900BFDD
:10336000A02080F31188BFF34F8FBFF36F8F00BF92
:1033700000BF00BFFDE700BF3CE000BF94F828009D
:1033800020F0010084F8280034E000BF94F8280001
:1033900040F0010084F828000498A061A06908B1F9
:1033A000012000E0002058B900BFA02080F3118860
:1033B000BFF34F8FBFF36F8F00BF00BF00BFFDE7AC
:1033C000A06941192B462A462046FFF701FF11E06C
:1033D00094F8280000F0020020B9204600F09CFD7F
:1033E00006E006E094F8280020F0010084F82800A8
:1033F00000E000BF00BF002203A90448006801F0FC
:10340000F9FA00287FF469AF06B070BD9C00002077
:10341000F8B505460C4600F0C1FF684600F04AF8D2
:103420000646009820BB44B9B54206D801F07CFDA1
:1034300031462846FFF714FF1CE03CB10E480068F7
:10344000006808B9012000E000200446A91B2246BC
:103450000A48006800F01CFE01F066FD50B94FF00C
:10346000805007490860BFF34F8FBFF36F8F01E0B3
:1034700001F05AFDF8BD0000980000209C000020DB
:1034800004ED00E009480068006808B9012000E088
:10349000002020B14FF0FF300549086005E00348E7
:1034A0000068C06800680249086070475800002042
:1034B0008400002070B5044601F0DEFB0546074895
:1034C0000068854204D200F00BF80120206001E082
:1034D0000020206001480560284670BDA40000203F
:1034E0002DE9F84335E025480068C06805682348A1
:1034F0000068C068C468201D00F0E2FB2046216A15
:10350000884794F8280000F0040010B3A069461919
:10351000AE4207D966602461211D1848006800F09A
:1035200089FC16E0002003462A460146009020460A
:1035300001F0AAFD07465FB900BFA02080F3118803
:10354000BFF34F8FBFF36F8F00BF00BF00BFFDE71A
:1035500000BF0A480068006808B9012000E00020A8
:103560000028C0D00548D0F800800548006803490D
:1035700008600348C0F80080BDE8F883940000208C
:10358000980000200F480068401C08B9012000E0A6
:10359000002058B900BFA02080F31188BFF34F8FDF
:1035A000BFF36F8F00BF00BF00BFFDE700BFA020CB
:1035B00080F31188BFF34F8FBFF36F8F00BF00BF41
:1035C000FEE70000C800002008B500BF6846FFF70E
:1035D000BBFC044620460099FFF71AFFFFF77AFE6E
:1035E000F4E770B5044600F04BFC94F9455010E048
:1035F000606A08B9012000E0002038B904F1240015
:1036000001F044FC18B100F0FBFD00E003E0681E8F
:1036100045B2002DECDC00BFFF2084F8450000F02F
:103620005BFC00F02DFC94F9445010E0206908B9CF
:10363000012000E0002048B904F1100001F026FC50
:1036400008B100F0DDFD681E45B200E001E0002D8C
:10365000ECDC00BFFF2084F8440000F03DFC70BDAE
:103660002DE9F04104464FF0000800F097FE554860
:10367000006808B9FFF77CFC534800682040002828
:103680007ED144B304F10800A04224D9083404F0E8
:103690000700F8B104F00700C0F108002044A04280
:1036A00017D904F00700C0F10800044404F0070033
:1036B00008B9012000E0002060B900BFA02080F31D
:1036C0001188BFF34F8FBFF36F8F00BF00BF00BFE4
:1036D000FDE7002400E00024002C55D03B480068A2
:1036E000844251D83A4E3046056801E02E462D6896
:1036F0006868A04202D228680028F7D131480068E3
:10370000854241D0306800F1080828683060686858
:10371000001B10281AD92F1907F0070008B901203B
:1037200000E0002058B900BFA02080F31188BFF34B
:103730004F8FBFF36F8F00BF00BF00BFFDE768680A
:10374000001B78606C603846FFF70EFD1F49686803
:103750000968081A1D490860084600681D4909687B
:10376000884203D2194800681A49086016496868F7
:10377000096808436860002028601748006800E076
:1037800002E0401C1449086001F0CEFBB8F1000FC4
:1037900001D100F0A9FA08F0070008B9012000E003
:1037A000002058B900BFA02080F31188BFF34F8FCD
:1037B000BFF36F8F00BF00BF00BFFDE74046BDE80D
:1037C000F0810000B0000020C4000020B400002000
:1037D000A8000020B8000020BC000020001F4FF00F
:1037E00080730360001F21F001030360001F054B7D
:1037F000036014380260001F6FF00203036020387A
:10380000704700008535000870B500241DE00025D4
:1038100018E005EB45020E4B03EBC20104EB44023A
:1038200003EBC200FFF7B6F801280AD105EB450209
:10383000074B03EBC20104EB440203EBC20000F0B0
:10384000F1F86D1CA542E4DB641C042CDFDB70BDC9
:103850009C02002070B500241DE0002518E005EB57
:1038600045020E4B03EBC20104EB440203EBC20022
:10387000FFF7BBF801280AD105EB4502074B03EB24
:10388000C20104EB440203EBC20000F0CBF86D1C54
:10389000A542E4DB641C042CDFDB70BD9C0200202D
:1038A00070B500241DE0002518E005EB45020E4B25
:1038B00003EBC20104EB440203EBC200FFF756F82E
:1038C00001280AD105EB4502074B03EBC20104EBCB
:1038D000440203EBC20000F0A5F86D1CA542E4DB36
:1038E000641C042CDFDB70BD9C02002070B500243A
:1038F0001DE0002518E005EB45020E4B03EBC2016D
:1039000004EB440203EBC200FFF79CF801280AD144
:1039100005EB4502074B03EBC20104EB440203EB4A
:10392000C20000F07FF86D1CA542E4DB641C042C8F
:10393000DFDB70BD9C02002010B54FF4FA70034924
:103940000860642000F0CAFB10BD00003404004091
:1039500010B560210C48FCF7F2FD002010E000EBF0
:1039600040010A4A02EBC10100EB4002064B43F85A
:103970003210002100EB400203EBC2021175401C23
:103980000428ECDB10BD00009C0200201851000848
:1039900001490870704700005000002010B504462F
:1039A00002480460642000F099FB10BD340400401C
:1039B00010B50024FFF7B4F80446012020752069F3
:1039C0001E2802D3094C012010BD20684169002047
:1039D00088474FF47A7000F081FB012000F03EF937
:1039E00000F0F6F8FEF780FF0020EDE73800002039
:1039F00010B50348FEF7AEF90148FEF796F910BD81
:103A00000401002000B503461846FEF78BFB00BDFD
:103A100010B50348FEF7CFF90148FEF7B0F910BD25
:103A20000401002030B587B004460D46182101A8D6
:103A3000FCF785FD1822214601A8FCF746FD182257
:103A400029462046FCF741FD182201A92846FCF72B
:103A50003CFD07B030BD000010B5044603A0FCF7E4
:103A6000E3FC40F6C410FFF799FF10BD5461736B7F
:103A700020312069732072756E6E696E67200D0AA1
:103A80000000000010B5044603A0FCF7CDFC4FF485
:103A9000FA60FFF783FF10BD5461736B2032206919
:103AA000732072756E6E696E67200D0A000000004B
:103AB00010B5044603A0FCF7B7FC40F2DC50FFF75A
:103AC0006DFF10BD5461736B2033206973207275D4
:103AD0006E6E696E67200D0A0000000010B5044686
:103AE00003A0FCF7A1FC4FF47A70FFF757FF10BD5D
:103AF0005461736B20342069732072756E6E696E29
:103B000067200D0A0000000010B500224FF480511C
:103B10000A48FDF7C5FB00224FF400510748FDF7A6
:103B2000BFFB00224FF480410448FDF7B9FB00229F
:103B30004FF400410148FDF7B3FB10BD000C0240FB
:103B400010B50446012C02D0022C06D102E000F090
:103B500023F803E000F004F800E000BF00BF10BD50
:103B600010B5012211030B48FDF79AFB00224FF418
:103B700000510848FDF794FB00224FF480410548AE
:103B8000FDF78EFB00224FF400410248FDF788FB51
:103B900010BD0000000C024010B5012251030B487B
:103BA000FDF77EFB00224FF480510848FDF778FBBB
:103BB00000224FF480410548FDF772FB00224FF4CC
:103BC00000410248FDF76CFB10BD0000000C0240F4
:103BD000002000213DE001EB41021F4B03EBC2003E
:103BE000027D5AB3012A04D0022A14D0032A2DD10F
:103BF0001AE0D0E900321B689A420BD1022202750A
:103C000002685268042A02D10269521C0261002231
:103C10004260C2601BE0036882689B689A4202D1DE
:103C200000220275826012E0002202750368826839
:103C30009B689A4201D10022826008E00368826892
:103C40009B689A4201D10022826000E000BF00BF61
:103C5000491C0429BFDB70479C02002010B50146B7
:103C60000020002226E002EB4203144C04EBC300C8
:103C7000037D33B1012B0BD0022B14D0032B16D1B3
:103C80000DE0C3680B44C36083680B4483600FE09E
:103C900043680B44436083680B44836008E0836897
:103CA0000B44836004E083680B44836000E000BF42
:103CB00000BF521C042AD6DB10BD00009C0200206D
:103CC00001460A69D1E901309860D1E901035860E1
:103CD0005068884201D188685060002008611068EF
:103CE000401E10601068704700BFFEE76BE00A20BE
:103CF00000F0F4F93448007820B101280FD00228F0
:103D000060D11AE031480078012804D12E490870AA
:103D10002F49087002E00A2000F0E0F952E001218A
:103D20002C48FDF7B5FA38B900BF002027490870C4
:103D300000BF02202449087044E02448007818BBE2
:103D40002548007820B9012023490870FFF750FE6C
:103D500022480078012834D1FFF75AFE00201E497E
:103D600008701E4908700120194908700020164982
:103D700008701BA0FCF758FB00235A1E14491E486C
:103D8000006800F0CBFC1DE0022011490870002003
:103D90000D490870FFF73CFE00200F4908700F49DD
:103DA000087016A0FCF740FB00235A1E0849124871
:103DB000006800F0B3FC00BF00200449087000BF99
:103DC00000E000BF00BF92E70000002001000020DB
:103DD0000200002000000240040000200300002038
:103DE0007075736865642073696E676C6520746FA5
:103DF0002071756575650A0008000020707573688C
:103E0000656420646F75626C6520746F20717565E0
:103E100075650A0000F1080141604FF0FF318160D3
:103E200000F10801C16001610021016070470021BB
:103E30000161704710B502460B685C1C0CB9106933
:103E400007E002F1080000E04068446824689C42F2
:103E5000FAD944684C604C68A160886041600A618E
:103E60001468641C146010BD42684A6093688B60DB
:103E7000936859609160086103685B1C0360704738
:103E800000BFA02080F31188BFF34F8FBFF36F8F67
:103E900000BF0F480068401C0D49086008460068D4
:103EA000012813D10B480068C0B208B9012000E016
:103EB000002058B900BFA02080F31188BFF34F8FB6
:103EC000BFF36F8F00BF00BF00BFFDE7704700006A
:103ED000C800002004ED00E00E48006858B900BF9B
:103EE000A02080F31188BFF34F8FBFF36F8F00BF07
:103EF00000BF00BFFDE707480068401E0549086095
:103F00000846006820B9002080F3118800BF00BF78
:103F100070470000C800002070B506463546002EE8
:103F200046D0083D2C46234960680968084008B11E
:103F3000012000E0002058B900BFA02080F31188C4
:103F4000BFF34F8FBFF36F8F00BF00BF00BFFDE710
:103F5000206808B9012000E0002058B900BFA02067
:103F600080F31188BFF34F8FBFF36F8F00BF00BF87
:103F700000BFFDE70F49606809680840C0B12068CC
:103F8000B0B90C49606809688843606000F006FABF
:103F90000949606809680844074908602046FFF736
:103FA000E3F806480068401C0449086000F0BCFFC4
:103FB00070BD0000C4000020B4000020C00000203C
:103FC00000204FF0E02108618861064800684FF446
:103FD0007A71B0FBF1F0401E4FF0E02148610720FC
:103FE00008617047E000002070B5FCF781F90446D5
:103FF000102C17D304F1E02090F8F0531648007805
:10400000854201DB012000E0002058B900BFA0205C
:1040100080F31188BFF34F8FBFF36F8F00BF00BFD6
:1040200000BFFDE70D48006800F4E0600C49096836
:10403000884201D8012000E0002058B900BFA0202C
:1040400080F31188BFF34F8FBFF36F8F00BF00BFA6
:1040500000BFFDE770BD0000CC0000200CED00E0CB
:10406000D0000020024600200BE0084B53F830300F
:1040700033B9064B43F8301003EBC0035A6002E03B
:10408000401C0828F1D300BF70470000FC0200204C
:104090002DE9F04105460E4617462C46FFF7F0FE87
:1040A00094F94400401C10B9002084F8440094F9AD
:1040B0004500401C10B9002084F84500FFF70CFFB4
:1040C000A06B28B93A46314604F1240000F0BCF850
:1040D0002046FFF786FABDE8F081000070B504467F
:1040E0000025DCB11248006808B9012000E000207A
:1040F00058B900BFA02080F31188BFF34F8FBFF3E2
:104100006F8F00BF00BF00BFFDE700F047F900213F
:104110002046FEF7BDFD00F007FF05463DB94FF014
:10412000805004490860BFF34F8FBFF36F8F70BD9D
:104130009000002004ED00E008B50020009000246D
:1041400000BF002500BF38E04FF0FF3269461B4832
:10415000006800F04FFC9DF80000012802D0022802
:1041600029D115E016A0FCF75FF90CB9012404E091
:10417000012C01D1042400E00124681CC5B2032DE8
:1041800000D10125FFF7C0FC2846FFF7D9FC13E05A
:104190000FA0FCF749F9FFF7B7FC2846FEF7C4FB70
:1041A000FFF7B2FC2846FFF7CBFC00200C49087053
:1041B0000C48047000E000BF00BFC5E70800002005
:1041C00053696E676C6520707265737365640A006D
:1041D000646F75626C6520707265737365640A0044
:1041E0001E0000201D0000200349096801600349EA
:1041F00009684160704700007C00002068000020D2
:1042000001200149086070477800002070B504461D
:104210000D465CB900BFA02080F31188BFF34F8F1B
:10422000BFF36F8F00BF00BF00BFFDE70548016807
:1042300018312046FFF7FEFD01212846FEF728FD34
:1042400070BD00005400002070B505460E461446AF
:104250005DB900BFA02080F31188BFF34F8FBFF37B
:104260006F8F00BF00BF00BFFDE70748016818312E
:104270002846FFF7F9FD0CB14FF0FF3621463046D6
:10428000FEF706FD70BD00005400002000242BE066
:1042900016480078D0B1012802D0022823D10BE0C3
:1042A000FFF786FB044634B110480078012802D19C
:1042B00002200E49087016E00DA0FCF7B5F8FFF7D4
:1042C0003BFB40F2DC50FFF709FF0CE00B480078A5
:1042D00040B1FFF73DFB09480078FFF759FB01208B
:1042E0000249087000BF00BFD2E700001E00002096
:1042F00069646C65207461736B0A00001D00002006
:104300001CB51E4800210B468022CDE900101CA1DF
:104310001D4800F071FC0446012C02D100F088FE1B
:104320000446012C15D100BFA02080F31188BFF3F3
:104330004F8FBFF36F8F00BF4FF0FF3013490860FE
:1043400001201349086000201249086000F074F849
:1043500011E0601C08B1012000E0002058B900BF46
:10436000A02080F31188BFF34F8FBFF36F8F00BF82
:1043700000BF00BFFDE7084800681CBD88000020A2
:1043800049444C4500000000ED2F00088400002047
:1043900070000020680000208C00002002480068A7
:1043A000401C014908607047900000201D480068CB
:1043B00018B101201C49086033E000201A49086048
:1043C0001A480068B0FA80F0C0F11F0101EB8100CB
:1043D000174A52F8200008B1012000E0002058B927
:1043E00000BFA02080F31188BFF34F8FBFF36F8F02
:1043F00000BF00BF00BFFDE701EB81020C4B03EBE8
:10440000820042685268426000F1080243689342A9
:1044100002D14268526842604268D268054B1A6015
:1044200000BF704790000020780000206C00002042
:104430003C030020540000201CB554480068544937
:10444000884201D0012000E0002058B900BFA02020
:1044500080F31188BFF34F8FBFF36F8F00BF00BF92
:1044600000BFFDE7494800684949491E884201D01C
:10447000012000E0002058B900BFA02080F311887F
:10448000BFF34F8FBFF36F8F00BF00BF00BFFDE7CB
:104490004049084600780190FF200A4610700846FF
:1044A000007800909DF8000000F0F0009DF80020DA
:1044B000904201D1012000E0002058B900BFA020A7
:1044C00080F31188BFF34F8FBFF36F8F00BF00BF22
:1044D00000BFFDE79DF8000000F0A0002E4A10701C
:1044E00007202E4A106009E02C480068401E2B4A25
:1044F00010609DF800004006000E00909DF800003E
:1045000000F080008028EFD024480068C0F1070048
:10451000042801D1012000E0002058B900BFA020EC
:1045200080F31188BFF34F8FBFF36F8F00BF00BFC1
:1045300000BFFDE7194800680002184A10601046E5
:10454000008800F4E0601060124A019810700F4873
:104550002030006840F470000C49203108600846A3
:10456000006840F070400860FFF72AFD00200C4909
:104570000860FBF785FE0B48006840F040400949A1
:104580000860FBF769FE00201CBD000000ED00E0A4
:1045900071C20F4100E400E0CC000020D0000020F8
:1045A000C800002034EF00E010B500BFA02080F369
:1045B0001188BFF34F8FBFF36F8F00BF00F062FB16
:1045C00018B14FF080500449086000BF002080F30C
:1045D000118800BF10BD000004ED00E02DE9F84394
:1045E00006460F4690460EB1012000E0002058B963
:1045F00000BFA02080F31188BFF34F8FBFF36F8FF0
:1046000000BF00BF00BFFDE706FB07F51FB1B5FB0C
:10461000F7F0B04201D1012000E0002058B900BFFE
:10462000A02080F31188BFF34F8FBFF36F8F00BFBF
:1046300000BF00BFFDE705F15000A84201D90120ED
:1046400000E0002058B900BFA02080F31188BFF31C
:104650004F8FBFF36F8F00BF00BF00BFFDE705F1B5
:104660005000FEF7FDFF04464CB1A14609F1500988
:1046700043464A46394630460094FEF7CBFC204676
:10468000BDE8F88370B505460E462C465CB900BF00
:10469000A02080F31188BFF34F8FBFF36F8F00BF4F
:1046A00000BF00BFFDE7FFF7EBFBD4E90F12206866
:1046B00001FB0200A0600020A06320686060E06B46
:1046C000401E226C216800FB0211E160FF2084F88B
:1046D000440084F845009EB9206908B9012000E033
:1046E0000020A8B904F1100000F0D0FB80B14FF019
:1046F000805009490860BFF34F8FBFF36F8F07E009
:1047000004F11000FFF786FB04F12400FFF782FBA1
:10471000FFF7E2FB012070BD04ED00E02DE9FF434F
:1047200083B0064688461D464FF0000934465CB902
:1047300000BFA02080F31188BFF34F8FBFF36F8FAE
:1047400000BF00BF00BFFDE7B8F1000F01D1206C32
:1047500008B9012000E0002058B900BFA02080F374
:104760001188BFF34F8FBFF36F8F00BF00BF00BF33
:10477000FDE7022D02D1E06B012801D1012000E00C
:10478000002058B900BFA02080F31188BFF34F8FDD
:10479000BFF36F8F00BF00BF00BFFDE700F05CFA02
:1047A00008B9059808B9012000E0002058B900BFF9
:1047B000A02080F31188BFF34F8FBFF36F8F00BF2E
:1047C00000BF00BFFDE700BFFFF75AFBA06BE16B26
:1047D000884201D3022D28D12A4641462046FEF7C1
:1047E0006AFB0746606A08B9012000E0002068B94A
:1047F00004F1240000F04AFB88B14FF080503249A8
:104800000860BFF34F8FBFF36F8F08E03FB14FF0E9
:1048100080502D490860BFF34F8FBFF36F8FFFF7B4
:104820005BFB012007B0BDE8F083059818B9FFF7DE
:1048300053FB0020F6E7B9F1000F04D101A8FFF700
:10484000D3FC4FF00109FFF747FBFFF7A7FDFFF788
:1048500017FB94F94400401C10B9002084F8440070
:1048600094F94500401C10B9002084F84500FFF77A
:1048700033FB05A901A800F075F9F0B92046FEF751
:10488000E0FCA0B104F110000599FFF7BFFC204641
:10489000FEF7A7FE00F048FB002895D14FF08050AE
:1048A00009490860BFF34F8FBFF36F8F8CE7204635
:1048B000FEF797FE00F038FB86E72046FEF791FEF4
:1048C00000F032FB0020ADE704ED00E02DE9F84FE9
:1048D00007468B4690461E463C465CB900BFA0206A
:1048E00080F31188BFF34F8FBFF36F8F00BF00BFFE
:1048F00000BFFDE7BBF1000F01D1206C08B901201A
:1049000000E0002058B900BFA02080F31188BFF359
:104910004F8FBFF36F8F00BF00BF00BFFDE7022EB8
:1049200002D1E06B012801D1012000E0002058B93C
:1049300000BFA02080F31188BFF34F8FBFF36F8FAC
:1049400000BF00BF00BFFDE7FFF74EFB00BFA02187
:10495000EFF3118081F31188BFF34F8FBFF36F8F97
:1049600000BF0546A06BE16B884201D3022E38D10F
:1049700094F945A0A06B0090324659462046FEF7B8
:104980009AFA0AF1010088B9606A08B9012000E0CA
:10499000002050B904F1240000F078FA28B1B8F1F1
:1049A000000F02D00120C8F8000017E0BAF17F0F15
:1049B00001D0012000E0002058B900BFA02080F302
:1049C0001188BFF34F8FBFF36F8F00BF00BF00BFD1
:1049D000FDE70AF1010040B284F845004FF00109FB
:1049E00001E04FF0000900BF85F3118800BF484681
:1049F000BDE8F88F2DE9F74183B005460E464FF02C
:104A000000082C465CB900BFA02080F31188BFF3DA
:104A10004F8FBFF36F8F00BF00BF00BFFDE70EB920
:104A2000206C08B9012000E0002058B900BFA02088
:104A300080F31188BFF34F8FBFF36F8F00BF00BFAC
:104A400000BFFDE700F008F908B9059808B9012092
:104A500000E0002058B900BFA02080F31188BFF308
:104A60004F8FBFF36F8F00BF00BF00BFFDE700BFD8
:104A7000FFF706FAA76BF7B131462046FEF706FAB4
:104A8000781EA063206908B9012000E0002060B909
:104A900004F1100000F0FAF938B14FF080503049BD
:104AA0000860BFF34F8FBFF36F8FFFF715FA012038
:104AB00006B0BDE8F081059818B9FFF70DFA00209F
:104AC000F6E7B8F1000F04D101A8FFF78DFB4FF016
:104AD0000108FFF701FAFFF761FCFFF7D1F994F93C
:104AE0004400401C10B9002084F8440094F94500AB
:104AF000401C10B9002084F84500FFF7EDF905A926
:104B000001A800F02FF8F0B92046FEF78DFBA0B108
:104B100004F124000599FFF779FB2046FEF761FDBB
:104B200000F002FA0028A3D14FF080500C49086031
:104B3000BFF34F8FBFF36F8F9AE72046FEF751FD0B
:104B400000F0F2F994E72046FEF74BFD00F0ECF997
:104B50002046FEF769FB00288AD00020A8E7000065
:104B600004ED00E070B505460C465DB900BFA0201D
:104B700080F31188BFF34F8FBFF36F8F00BF00BF6B
:104B800000BFFDE75CB900BFA02080F31188BFF330
:104B90004F8FBFF36F8F00BF00BF00BFFDE7FFF770
:104BA0006FF9134802686868131A2068401C08B936
:104BB000002619E00F4928680968884206D068680D
:104BC000904203D80126002020600DE02068984222
:104BD00007D92068C01A20602846FFF705FB002689
:104BE00002E0002020600126FFF776F9304670BD14
:104BF000680000207C0000202DE9FF4F85B0804632
:104C000089461746DDE912ABB800FEF729FD0646D6
:104C100056B15C20FEF724FD04460CB1266304E087
:104C20003046FFF779F900E000247CB10020CDE99F
:104C300000ABCDE902403A4649464046089BFEF7A4
:104C4000FEF92046FEF770F8012501E04FF0FF3530
:104C5000284609B0BDE8F08F0549096809B9012067
:104C600005E00449096809B9022000E00020704706
:104C70007000002090000020014908687047000083
:104C8000680000202DE9F0414FF00008444800681A
:104C900000287DD143480068451C424805601DBB83
:104CA00041480068006808B9012000E0002058B9B8
:104CB00000BFA02080F31188BFF34F8FBFF36F8F29
:104CC00000BF00BF00BFFDE73748076837480068EE
:104CD000354908603548076035480068401C34494C
:104CE0000860FEF7CFFB00BF3248006885423CD326
:104CF00000BF2D480068006808B9012000E00020CE
:104D000020B14FF0FF302B4908602DE026480068A5
:104D1000C068C4686668B54202D22648066023E0CF
:104D2000201DFEF7CDFFA06A18B104F11800FEF7B0
:104D3000C7FF94F82C10012088401F4909680843D8
:104D40001D490860E16A01EB81011C4A02EB810008
:104D5000211DFFF789F81A49E06A0968C96A884283
:104D6000C7D34FF00108C4E700BF15480068C06A08
:104D700000EB8000114951F82000012801D94FF0C3
:104D800001081048006808B14FF0010805E0FFE78E
:104D90000D480068401C0C4908604046BDE8F081A1
:104DA0009000002068000020580000205C000020D7
:104DB0007C000020840000206C0000203C030020C8
:104DC00054000020780000207400002070B50546D3
:104DD0002C460026002D50D029480068844201D17D
:104DE000012000E0002058B900BFA02080F3118806
:104DF000BFF34F8FBFF36F8F00BF00BF00BFFDE752
:104E0000206D58B900BFA02080F31188BFF34F8FE9
:104E1000BFF36F8F00BF00BF00BFFDE7206D401ED6
:104E20002065E16CE06A884227D0206D28BB201DF8
:104E3000FEF746FF40B994F82C1001208840114934
:104E4000096881430F480160E06CE062E06AC0F1EC
:104E50000500A06194F82C100120884009490968D8
:104E6000084308490860E16A01EB8101064A02EB48
:104E70008100211DFEF7F8FF0126304670BD0000BD
:104E8000540000206C0000203C03002070B5064652
:104E9000F068C4685CB900BFA02080F31188BFF33C
:104EA0004F8FBFF36F8F00BF00BF00BFFDE704F15E
:104EB0001800FEF705FF16480068A8B9201DFEF788
:104EC000FFFE94F82C10012088401249096808431D
:104ED00010490860E16A01EB81010F4A02EB810091
:104EE000211DFEF7C1FF04E004F118010B48FEF795
:104EF000BBFF0B49E06A0968C96A884204D90125E9
:104F000001200849086000E00025284670BD000027
:104F1000900000206C0000203C030020C80300200B
:104F2000540000207800002070B500240026374887
:104F3000006858B900BFA02080F31188BFF34F8FDD
:104F4000BFF36F8F00BF00BF00BFFDE7FEF798FF04
:104F50002E480068401E2D49086008460068002859
:104F60004FD12B48006800284BD024E02948C06866
:104F7000C46804F11800FEF7A3FE201DFEF7A0FE92
:104F800094F82C10012088402349096808432249DD
:104F90000860E16A01EB8101204A02EB8100211DDA
:104FA000FEF762FF1E49E06A0968C96A884202D3B7
:104FB00001201C4908601748006808B9012000E07A
:104FC00000200028D2D00CB1FEF75CFA1648056824
:104FD00065B100BFFFF756FE10B10120114908600E
:104FE0006D1E002DF6D100200F4908600D480068A5
:104FF00038B1012630070D490860BFF34F8FBFF36A
:105000006F8FFEF769FF304670BD000090000020F2
:1050100064000020C80300206C0000203C03002036
:1050200054000020780000207400002004ED00E00F
:105030001CB50024FDF7D4FE0E48006850B10E48A0
:10504000042100238A01CDE900100CA10D48FFF7CF
:10505000D3FD04465CB900BFA02080F31188BFF3E4
:105060004F8FBFF36F8F00BF00BF00BFFDE720462B
:105070001CBD00009C000020A0000020546D722088
:1050800053766300C93500082DE9FE4304460D46FA
:1050900016461F46DDF828804FF000095CB900BFB6
:1050A000A02080F31188BFF34F8FBFF36F8F00BF35
:1050B00000BF00BFFDE71448006810B300950196DB
:1050C0000294062D15DAFFF7C7FD022808D1002348
:1050D000424669460C480068FFF720FB814610E015
:1050E00000231A46694608480068FFF717FB814607
:1050F00007E000233A46694603480068FFF7E6FBED
:1051000081464846BDE8FE839C0000204FF0407079
:10511000E1EE100A704700000200000001000000EC
:105120000A0000000300000005000000593A0008D2
:105130000300000002000000140000000100000055
:1051400007000000853A000803000000030000008B
:10515000140000000200000007000000B13A00083F
:1051600004000000040000001E0000000200000017
:105170000A000000DD3A00083A535444494E003A10
:105180005354444F5554003A53544445525200002E
:1051900000000000000000010203040607080900E7
:1051A0000000000102030400C851000800000020B4
:1051B000F0000000C4010008B8520008F000002010
:1051C00098AA0000E00100080000000000000000B4
:1051D00000000000000000000000000000000000CF
:1051E00000000000000000000100000000000000BE
:1051F000010000000000000000000000892B0008F2
:10520000200000200000000000000000000000005E
:10521000000000000000000000000000000000008E
:10522000000000000000000000000000000000007E
:10523000000000000000000000000000000000006E
:10524000000000000000000000000000000000005E
:10525000000000000400000000000000000000004A
:10526000000000000000000000000000000000003E
:10527000000000000000000000000000000000002E
:10528000000000000000000000000000000000001E
:10529000AAAAAAAA00000000000000000000000066
:1052A0001000000001000000007A030A0000000066
:0852B0000000000000000000F6
:04000005080002F9F4
:00000001FF
