:020000040800F2
:10000000B8AC002001030008090300080B03000836
:100010000D0300080F030008110300080000000092
:100020000000000000000000000000004102000885
:1000300015030008000000009D020008F5460008B6
:100040001B0300081B0300081B0300081B03000818
:100050001B0300081B030008911600081B0300087F
:100060001B0300081B0300081B0300081B030008F8
:100070001B0300081B0300081B0300081B030008E8
:10008000751500081B0300081B0300081B0300086C
:100090001B0300081B0300081B0300081B030008C8
:1000A0001B0300081B0300081B0300081B030008B8
:1000B0001B0300081B0300081B0300081B030008A8
:1000C0001B0300081B0300081B0300081B03000898
:1000D0001B0300081B0300081B0300081B03000888
:1000E0001B0300081B0300081B0300081B03000878
:1000F0001B0300081B0300081B0300081B03000868
:100100001B0300081B030008194800081B03000814
:100110001B0300081B0300081B0300081B03000847
:100120001B0300081B0300081B0300081B03000837
:100130001B0300081B0300081B0300081B03000827
:100140001B0300081B0300081B0300081B03000817
:100150001B0300081B0300081B0300081B03000807
:100160001B0300081B0300081B0300081B030008F7
:100170001B0300081B0300081B030008000000000D
:100180001B0300081B03000800F002F800F049F808
:100190000AA090E8000C82448344AAF10107DA45E2
:1001A00001D100F03EF8AFF2090EBAE80F0013F0EB
:1001B000010F18BFFB1A43F00103184738760000FF
:1001C00058760000103A24BF78C878C1FAD8520790
:1001D00024BF30C830C144BF04680C6070470000C1
:1001E0000023002400250026103A28BF78C1FBD840
:1001F000520728BF30C148BF0B607047642900F028
:100200005781002070471FB507F092FA9DE8030060
:1002100000F0EEFD00F02AFB1FBD10B500F08FFBD3
:1002200010BD00F0C3FB1146FFF7EDFF04F028FFFF
:1002300000F0B2FD03B4FFF7F0FF03BC00F04AFF8B
:100240002C4B19680868B0E8F04F80F30988BFF3B9
:100250006F8F4FF0000080F311887047000000009E
:1002600008480068006880F308884FF0000080F3B9
:10027000148862B661B6BFF34F8FBFF36F8F00DF94
:1002800000BF00BF08ED00E0DFF80C00016841F49A
:1002900070010160704700BF88ED00E0EFF3098056
:1002A000BFF36F8F134B1A681EF0100F08BF20EDBD
:1002B000108A20E9F04F106009B44FF0A00080F3DD
:1002C0001188BFF34F8FBFF36F8F06F06BFB4FF0BA
:1002D000000080F3118809BC19680868B0E8F04F85
:1002E0001EF0100F08BFB0EC108A80F30988BFF32E
:1002F0006F8F704748000020EFF3058070470000C3
:100300000948804709480047FEE7FEE7FEE7FEE7A9
:10031000FEE7FEE7FEE7FEE7FEE7FEE704480549E5
:10032000054A064B70470000B547000889010008E0
:10033000B8A60020B8AC0020B8A80020B8A80020BB
:1003400053EA020C00F069802DE9F04B4FF00006F3
:10035000002B1FBFB3FA83F503FA05F424FA05F660
:100360005E4012BF1643B2FA82F502FA05F4C5F1F7
:1003700020051EBF22FA05FC44EA0C04203556EA8B
:10038000044C4FEA144418BF641C4FF000084FF0AF
:100390000009904271EB030C39D3002919BFB1FA5F
:1003A00081F701FA07F6B0FA80F700FA07F6C7F10D
:1003B00020071EBF20FA07FC46EA0C062037B6FBD2
:1003C000F4FCA7EB0507103F07F01F0BCBF120064D
:1003D0000CFA0BFB2CFA06F644BFB3460026202F7E
:1003E000A4BF5E464FF0000B5BEA060C08BF4FF05F
:1003F000010B19EB0B09ABFB027C48EB0608C01B99
:1004000006FB02CC0BFB03CC71EB0C01C1E70B46E6
:10041000024641464846BDE8F08B13B54FF0000058
:100420004FF00001AFF30080BDE81C4070470000B2
:100430000FB4044910B503AA029800F0C3F910BC28
:100440005DF814FBB0A500202DE9F0410E460446EE
:10045000002020622046E168884730B3252805D077
:10046000D4E901219047206A401CF2E7E168204668
:1004700000278847050018D0A5F14100192802D8A7
:1004800020354FF400673246294620462760FFF7A3
:10049000B5FE40B1012804D0F61D26F00706083647
:1004A000D8E7361DD6E72846DAE7206ABDE8F081AE
:1004B0002DE9F0410646002410687529314616A53D
:1004C00010D0AFF30080002802DA404213A507E005
:1004D00031688A0701D512A502E0490704D511A5A4
:1004E000012401E0AFF3008000210A2206F1240775
:1004F00009E0B0FBF2FCB0FBF2F302FB1C00303071
:1005000078541846491C0028F3D123462A46304621
:10051000BDE8F04100F0FCB8000000002D00000034
:100520002B00000020000000032A40F2308010F071
:10053000030C00F0158011F8013BBCF1020F62447E
:1005400098BF11F801CB00F8013B38BF11F8013B0F
:10055000A2F1040298BF00F801CB38BF00F8013BBC
:1005600011F0030300F02580083AC0F0088051F82C
:10057000043B083A51F804CBA0E80810F5E7121D37
:100580005CBF51F8043B40F8043BAFF30080D20756
:1005900024BF11F8013B11F801CB48BF11F8012B22
:1005A00024BF00F8013B00F801CB48BF00F8012B45
:1005B000704710B5203AC0F00B80B1E81850203ACF
:1005C000A0E81850B1E81850A0E81850BFF4F5AFF3
:1005D0005FEA027C24BFB1E81850A0E8185044BF7D
:1005E00018C918C0BDE810405FEA827C24BF51F8EA
:1005F000043B40F8043B08BF7047D20728BF31F8DE
:10060000023B48BF11F8012B28BF20F8023B48BF2E
:1006100000F8012B704702F0FF0343EA032242EA8D
:10062000024200F0E3B84FF0000200B513469446D2
:100630009646203922BFA0E80C50A0E80C50B1F13A
:100640002001BFF4F7AF090728BFA0E80C5048BF4E
:100650000CC05DF804EB890028BF40F8042B08BFEC
:10066000704748BF20F8022B11F0804F18BF00F8E8
:10067000012B70474FF0013C50F8042B51F8043B1C
:100680009A4221D1A2EB0C03934313EACC1317D166
:1006900050F8042B51F8043B9A4215D1A2EB0C03FD
:1006A000934313EACC130BD150F8042B51F8043BBD
:1006B0009A4209D1A2EB0C03934313EACC13DBD08B
:1006C0004FF00000704700BFD01A01BAB1FA81F1B3
:1006D00001F0180122FA01F0CB40C1F12001DBB298
:1006E000C0B2C01A2CFA01F3D11A914311EAC31116
:1006F000E6D1704770477047704710B500F096F824
:10070000006810BD10B5044600F090F8046010BDFC
:100710002DE9F0470D4699469246044600F124081B
:100720000168880604D5E06921F01001216000E02D
:100730000120A84201DD471B00E00027A1697A19CA
:1007400002EB0900081AA0612078C00602D42046F6
:10075000AFF30080002608E0D4E901211AF8060072
:100760009047206A401C761C20624E45F4DB2078BE
:10077000C0060AD52046AFF3008006E0D4E9012187
:1007800030209047206A401C2062381EA7F10107E4
:10079000F4DC07E0D4E9012118F805009047206A4D
:1007A000401C2062281EA5F10105F3DC2046AFF3B2
:1007B00000802078000602D50220BDE8F0870120E5
:1007C000FBE70000074B70B50D467B4400F037F89F
:1007D0000446284600F046F810B14FF0FF3070BDD7
:1007E000204670BD974800004FF000020429C0F079
:1007F000128010F0030C3FF418AFCCF1040CBCF1E4
:10080000020F18BF00F8012BA8BF20F8022BA1EBA4
:100810000C01FFF70ABF5FEAC17C24BF00F8012B7F
:1008200000F8012B48BF00F8012B704700487047C3
:1008300058A6002001694A1C02610878704700B57B
:100840008FB0CDE901310021059105497944CDE909
:10085000031011466846FFF7F7FD0FB000BD00001A
:10086000E5FFFFFF007B00F08000704710B54248B5
:100870005421FFF7D8FE41485421FFF7D4FE4048E9
:100880005421FFF7D0FE3F493B483C4A3F4B0860AC
:100890003D490A603A491960531C0365481C1065BC
:1008A000012008653B48344A39A1784400F0D8F962
:1008B00020B9384878440A3800F077FA37482F4A88
:1008C00035A1784400F0CCF920B9344878440A388E
:1008D00000F06BFA32482A4A2FA1784400F0C0F9A0
:1008E00020B92F4878440A3800F05FFA40232248A4
:1008F000DC000021224600F090F920B12548784420
:10090000543800F052FA1D4822464023002100F0DE
:1009100084F920B121487844543800F046FA184848
:1009200022461023002100F078F9002806D01C4848
:100930007844BDE81040563800F037BA10BD104872
:1009400070B5006D20F001040B4800F0FFF90B4872
:1009500000F0FCF90A4800F0F9F909E0206D20F0F8
:100960000105204600F0F2F9204600F044F82C463C
:10097000002CF3D170BD00005CA50020B0A50020C4
:1009800004A60020D8000020DC000020E0000020A9
:1009900072000000EE6E000077000000DD6E0000C7
:1009A000CD6E00000048704758A600207546FFF73E
:1009B000F9FFAE4605006946534620F0070085461C
:1009C00018B020B5FFF7AAFCBDE820404FF00006A4
:1009D0004FF000074FF000084FF0000B21F0070127
:1009E000AC46ACE8C009ACE8C009ACE8C009ACE86A
:1009F000C0098D46704770B50446051F00F0DCF94C
:100A00000068002C14BF446870BD002C18BFAC42B5
:100A10003CBF20466468F8D301680A18AA4218BF90
:100A2000456003D12A6805461144016028684119D0
:100A3000A1421CBF6C6070BD616869602168084498
:100A4000286070BD2DE9F04705460C46C86820F4C3
:100A5000201040F48000C860800602D5084600F0EF
:100A6000F8FAE06841F282014FF0FF3901400229B3
:100A700003D0204600F096FAB5E000F42041B1F52D
:100A8000004F0FD1C00306D56168E06A884200D8E4
:100A90000846606006E02069E0626060606904F01A
:100AA000F6F9A061A0680022EEB200280DDAE16834
:100AB0008B050AD4C043A06041F490302260E0600E
:100AC0006068411C61600670A5E0E06890462260A5
:100AD00040F40050E060206968BB606904F0E9F907
:100AE000012704F12405A0B1A08910F4407F08D0AB
:100AF000E06900F0ACF9206118B1E06840F40060F2
:100B000016E0E7612561E06820F4407040F4806001
:100B10000EE0E06900F09BF900282061F1D0E06868
:100B200040F4006010F4407FE06002D140F4807037
:100B3000E06020696060E06825696FF0010AC10526
:100B40001FD56168E06A884200D80846411B04D07E
:100B50002246284600F030FAF0BBE068010203D5D7
:100B6000E562C4E9015854E0691CE1626160E16931
:100B700040F48030491EC4E9021030462E70BDE8B2
:100B8000F087010202D500F480320AE06068411C5F
:100B900061600670E0680A2E40F48030E06006D0A4
:100BA0000022E16A6068814203D90B4602E001221B
:100BB000F7E70346A7895B1B7F0503D4E7699F42DC
:100BC00000DDE2B1814200D80146E5620F1AC4E9B6
:100BD0000158002B09DD00E005E0224619462846B1
:100BE00000F0EAF908B14846C9E747B1A069E562F3
:100BF0006560C01BA061E06840F01000E060E06844
:100C0000000208D56168A069E562491B0844656077
:100C1000A0615046B3E73046B1E770B5C468A50798
:100C200013D0650211D4B2F5807F09D0B2F5007FF0
:100C300006D0B2F5806F08D1012300F1240106E04F
:100C40005D1E6FF07F46B54201D3012070BD01618A
:100C5000C361416024F470611143C160002070BD24
:100C60002DE9F0410C4607461646104600F06EF896
:100C70002078611C61280AD0722802D077283CD1E4
:100C800002E00125002405E00225042402E00824F6
:100C900048F2020511F8010B2B2806D0622809D072
:100CA00011F8010C74280AD00BE045F0030544F05C
:100CB0000204EFE745F0040544F00104EAE744F0DC
:100CC00010043846214604F007F9411C15D00021D4
:100CD000316171604FF40071F560F161706120075E
:100CE00004D530460222002100F0E0F8306D40F0DB
:100CF000010030653046BDE8F0810020FBE72DE9BA
:100D0000F0410D460646104C206DC10704D0410845
:100D100004D020F00104F7E722460EE0542000F052
:100D200096F807000ED0206D47F0010108435421CA
:100D300020653846FFF777FC3A4629463046BDE83D
:100D4000F0418DE70020D6E75CA500202DE9F047B3
:100D500004464FF000094FF0FF37C568D4E9048618
:100D6000A80707D0204600F051F9304604F07CF87F
:100D7000002802DA3846BDE8F087280502D540464B
:100D8000FFF739FE4C212046FFF74DFC206D20F087
:100D9000010020654846EEE710B50446AFF3008039
:100DA0002046BDE81040FFF745BA10B500F078F9CD
:100DB000BDE8104000F06EB90048704760A6002002
:100DC000704770477047704738B504460A460020A0
:100DD0006946AFF30080002808BF38BD024600997D
:100DE000204600F084F9012038BD012000F0D3B97D
:100DF000F8B5AFF30080054600200C46102000BF78
:100E00000646A819A0420DD9324669460020AFF324
:100E10000080070008BF00F0BEF90098A04218BF8C
:100E20000546C419FFF7C8FF05600746F01D20F00E
:100E300007004619284600F053F9B44208BFF8BD30
:100E4000A21B31463868BDE8F84000F050B970B5D3
:100E50000646FFF7B1FF056806F10B0020F0070416
:100E6000B4429CBF002070BD2B466A68BAB11068BE
:100E7000A04210D304F1080188423CBF506858607A
:100E800007D35168101941601168091B016058604F
:100E90001460101D70BD13465268002AE7D1214628
:100EA0002846FFF791FF0028DED170BD2DE9F04103
:100EB000044616460D464769007B80072ED038460B
:100EC00003F0F7FF50BB3EB3012E02D0022E25D116
:100ED00004E0204600F025F905441DE0384603F003
:100EE000D6FFE168002841F01001E16005DA2046F4
:100EF00000F058F80120BDE8F081C9030BD5626805
:100F0000E16A914200D81146A26911442269891A06
:100F1000814200DD08460544002D01DA0220EAE79F
:100F2000E16A6068E268814206D29103E06203D51B
:100F300022F4003141F01002A6690027AE4213DC12
:100F4000E16A814201D90B4600E0034603EB060C3F
:100F50002369ACEB030CAC4506DD814201D98C461C
:100F600000E084469C4505D1A760276042F0200040
:100F7000A5620DE0AD1BE669AE1B8142A66000D9FB
:100F80000846C01A281A20605819606022F0200014
:100F900003490840E060002084F84870ABE7000097
:100FA000BFCFD7FFC16821F4001141F08001C160BB
:100FB00000218160016070472DE9F04781461446A9
:100FC0000E464FF0FF383248D5685769054209D0C0
:100FD0003846A16903F0B4FF002811DB2C48C04358
:100FE0000540E5602B4632464946384603F0BEFFD1
:100FF000A16920F00042B21A11440028A16103D077
:101000002046FFF7CFFF4046BDE8F08770B50446A5
:101010000569C06A6168884200D80846E16821F421
:101020002011E160C90312D5A84208D02246411B15
:101030002846FFF7C1FF10B14FF0FF3070BD002010
:10104000E562C4E90150E06820F48030E0600020EF
:1010500070BD10B50446C06820F02000E060A16AB1
:10106000A06988420DD02046FFF7D0FFE06820F449
:10107000405040F01000E060A06AA0612069E0628A
:10108000606044F24001E0688843E06010BD000009
:1010900010000200002801D000F01CB870470000CA
:1010A00010B5014602A000F05DF8012010BD00005F
:1010B00053494752545245443A2052656469726517
:1010C00063743A2063616E2774206F70656E3A20F6
:1010D0000000000001491820ABBEFEE72600020018
:1010E00000210160C0E901107047102070470346DD
:1010F00040688C46002818BF88423CBF03464068C1
:10110000F8D318681844884207D00CF1030020F087
:101110000700001D411A521A0146081D0A60FFF718
:101120006ABC10B50146C268900703D0900607D587
:10113000886A0AE0FFF77AFB01210160881E10BD72
:101140008B69486818440B69C01A91F848301BB184
:1011500091F84910401A10BD1103FCD50028FADDA2
:10116000401E10BD70B505460C460A2000E06D1CFF
:1011700000F018F835B128780028F8D102E0641C96
:1011800000F010F814B120780028F8D1BDE87040C4
:101190000A2000F007B810B500F00CF8BDE81040C8
:1011A000FFF778BF08B569468DF800000320ABBE95
:1011B00008BD704710B5012805D0002103A0FFF736
:1011C000D1FF012010BD09A1F8E7000053494752A3
:1011D000544D454D3A204F7574206F662068656107
:1011E00070206D656D6F7279000000003A204865CF
:1011F0006170206D656D6F727920636F72727570AA
:101200007465640010B5044634B1012C0DD0022C75
:1012100014D0032C24D11AE0C0201A494870084683
:10122000407840F0300048701BE08020154948703D
:101230000846407840F03000487012E0C020114964
:1012400048700846407840F02000487009E080204F
:101250000C4948700846407840F02000487000E093
:1012600000BF00BF0748407840F00C0005494870B7
:101270000846407840F003004870491C042005F0FF
:10128000D7FB10BD440000200FB410B5179C00BF61
:1012900000207E4981F8400000BF08460068C06910
:1012A00040F480600968C86101221021784800F08C
:1012B00037FD2A2202A97748FFF77BF9BDF83200F3
:1012C000744948850D98C8620E98086309220FA9D1
:1012D00070483430FFF76DF99DF845006D4981F88D
:1012E0003D009DF8460081F83E001298086413986E
:1012F0004864149888641598C86416980865012095
:1013000065494870022005F093FB802062494870CF
:101310000846407840F0200048700846407840F089
:101320000C0048700846407840F003004870491CA3
:10133000042005F07DFB802057494870491C05209A
:1013400005F076FB5449062004F0CAFD5248407867
:1013500000F02000504948700846407820F0800096
:1013600048700846407820F04000487008464078B1
:1013700020F0100048700846407820F004004870C3
:101380000846407840F0040048700846407840F035
:1013900003004870491C062005F04AFB3E49491CE1
:1013A000082004F09DFD3C48407800F0F0003A49E8
:1013B00048700846407840F001004870491C0820F9
:1013C00005F036FB3449491C092004F089FD3248F8
:1013D000407800F0F000304948700846407840F00E
:1013E00001004870491C092005F022FB2A49491CCC
:1013F0000E2004F075FD012C1AD12748407840F0EA
:101400008000254948700846407840F04000487008
:101410000846407820F0200048700846407820F0C8
:10142000100048700846407820F00800487003E03B
:1014300014B90220184948701749491C0E2005F0BC
:10144000F7FA1549491C0F2004F04AFD0020124903
:101450004870491C0F2005F0EBFA00200E49487037
:10146000491C142005F0E4FA0B49491C152005F02D
:10147000DFFA0949491C1A2005F0DAFA0649491C25
:101480001B2005F0D5FA10BC5DF814FB0C020020FF
:10149000000C0240D80300204400002070B5044630
:1014A000A4F1320045B2680045B2EEB21148467070
:1014B000411C142005F0BCFA0E49491C152005F00A
:1014C000B7FA642C01DD182007E004EB44000001AA
:1014D000642190FBF1F01838C0B206494870491CED
:1014E000202005F0A5FA0349491C212005F0A0FAA7
:1014F00070BD00004400002010B599201C494870C0
:10150000491C002005F094FA802019494870491CB4
:10151000472005F08DFA1649491C322004F0E0FC02
:101520001348407840F0800011494870491C32202F
:1015300005F07EFA0E49491C322004F0D1FC0C481B
:10154000407820F080000A494870491C322005F09C
:101550006FFA002006494870491C05F069FA9E2080
:1015600003494870491C022005F062FA10BD0000D2
:101570004400002010B5024800F0EAF810BD000059
:10158000540200200146087810381823B0FBF3F20B
:101590000848805CC865032A05D908686FF309000C
:1015A000001D886503E008686FF309008865886D91
:1015B00070470000B3770008014600208A6A8B69F3
:1015C000CBB932B1012A0DD0022A03D0032A10D19F
:1015D0000EE000BFCB6A03F08073B3F1807F00D1CF
:1015E000012007E0CB6AB3F1C07F00D1012001E008
:1015F00000E000BF34E08B69B3F5005F1AD132B16F
:10160000012A07D0022A03D0032A11D10AE000BF21
:1016100001200EE0CB6A03F08073B3F1807F00D12C
:10162000012006E0CB6AB3F1C07F00D1012000E0C9
:1016300000BF15E032B1012A05D0022A04D0032AE6
:101640000CD103E000BF00BF012008E0CB6A03F02B
:101650008073B3F1807F00D1012000E000BF00BFA4
:10166000704730B50468246824F4802405682C6031
:10167000046863608468402C04D10468A260046834
:10168000E16003E00468A1600468E26030BD00002E
:1016900010B501200249086003F0B2FC10BD000043
:1016A000143C014070B50446A56D00F03FFB0646B2
:1016B00094F83500022808D08020606500BF002023
:1016C00084F8340000BF012070BD2068006820F05D
:1016D0001600216808602068406920F080002168B9
:1016E0004861206C08B9A06C28B12068006820F01F
:1016F0000800216808602068006820F00100216867
:1017000008600FE000F012FB801B05280AD920209A
:10171000606500BF002084F8340000BF032084F817
:101720003500D1E72068006800F001000028E9D109
:1017300094F85C103F208840A86000BF002084F827
:10174000340000BF012084F835000020BCE7000011
:10175000F8B50446002000908C4800684FF41651FC
:10176000B0FBF1F7A56D2E6894F85C100820884056
:10177000304098B12068006800F0040070B1206823
:10178000006820F004002168086094F85C100820CC
:101790008840A860606D40F00100606594F85C10BE
:1017A00001208840304068B12068406900F0800026
:1017B00040B194F85C1001208840A860606D40F052
:1017C0000200606594F85C1004208840304068B1E5
:1017D0002068006800F0020040B194F85C1004201A
:1017E0008840A860606D40F00400606594F85C106B
:1017F00010208840304078B32068006800F008006E
:1018000050B394F85C1010208840A86020680068ED
:1018100000F4802080B12068006800F4002028B91E
:10182000206CC8B12046216C884715E0A06C98B1A7
:101830002046A16C88470FE02068006800F48070A3
:1018400028B92068006820F0080021680860206C32
:1018500010B12046216C884794F85C102020884005
:101860003040002865D02068006800F01000002893
:101870005FD094F85C1020208840A86094F8350070
:10188000052828D12068006820F01600216808602B
:101890002068406920F0800021684861206C08B908
:1018A000A06C28B12068006820F00800216808605A
:1018B00094F85C103F208840A86000BF002084F8A6
:1018C000340000BF012084F83500206D10B120469F
:1018D000216D8847F8BD2068006800F4802080B141
:1018E0002068006800F4002028B9606C10B1204620
:1018F000616C88471DE0E06BD8B12046E16B8847FA
:1019000017E02068006800F4807068B920680068FB
:1019100020F010002168086000BF002084F8340027
:1019200000BF012084F83500E06B10B12046E16B68
:101930008847606D38B3606D00F00100F0B105209C
:1019400084F835002068006820F0010021680860F4
:1019500000BF0098401C0090B84200D905E0206804
:10196000006800F001000028F3D100BF00BF002094
:1019700084F8340000BF012084F83500E06C10B119
:101980002046E16C884700BFA4E70000D400002097
:101990002DE9F0410446002500F0C8F9074614B9C6
:1019A0000120BDE8F081606A00B100BF00BF0020E7
:1019B00084F8340000BF022084F8350020680068F5
:1019C00020F00100216808600AE000F0AFF9C01BB8
:1019D000052805D920206065032084F83500E0E75C
:1019E0002068006800F001000028EED1206805683A
:1019F00021480540D4E901010843E1680843216911
:101A0000084361690843A1690843E1690843216A01
:101A100008430543606A042803D1D4E90B01084355
:101A20000543206805602068456925F00705606A60
:101A30000543606A04280DD1A06A0543E06A48B1F5
:101A40002046FFF7B9FD28B140206065012084F8E9
:101A50003500A6E7206845612046FFF793FD06465E
:101A600094F85C103F208840B06000206065012041
:101A700084F83500002094E73F8010F02DE9F0470E
:101A800004460D4616461F464FF00008D4F85890FD
:101A900000BF94F83400012802D10220BDE8F0878D
:101AA000012084F8340000BF94F83500012825D1C6
:101AB000022084F83500002060653B463246294606
:101AC0002046FFF7CEFD94F85C103F208840C9F80F
:101AD00008002068006840F0160021680860206C4B
:101AE00028B12068006840F008002168086020687C
:101AF000006840F001002168086006E000BF002097
:101B000084F8340000BF4FF002084046C6E70000EA
:101B1000F8B502460B460025002400200021DCE039
:101B2000012606FA01F51E6806EA0504AC4273D1E7
:101B30005E68012E08D05E68022E05D05E68112E08
:101B400002D05E68122E13D190684F000326BE406B
:101B5000B0434F00DE68BE403043906050680126BD
:101B60008E40B0431E79C6F300168E40304350605D
:101B7000D0684F000326BE40B0434F009E68BE4071
:101B80003043D0605E68022E02D05E68122E13D100
:101B9000CF0802F1200656F827004E07F70E0F2651
:101BA000BE40B0434F07FF0E1E69BE403043CF0812
:101BB00002F1200646F8270010684F000326BE40B9
:101BC000B0431E7906F003064F00BE40304310605C
:101BD0005E6806F08056B6F1805F7DD100BF0026BA
:101BE0000096404E366846F480463E4F3E603E4684
:101BF000366806F48046009600BF00BF3A4E8F0854
:101C000056F827008E07370F0F26BE40B043374ED9
:101C1000B24202D1002624E05EE0354EB24201D14C
:101C200001261EE0334EB24201D1022619E0324EA7
:101C3000B24201D1032614E0304EB24201D1042653
:101C40000FE02F4EB24201D105260AE02D4EB242DE
:101C500001D1062605E02C4EB24201D1072600E054
:101C600008268F073F0FBE4030431F4E8F0846F8AF
:101C70002700264E3068A0435E6806F48036B6F52D
:101C8000803F00D12043214E3060361D3068A04394
:101C90005E6806F40036B6F5003F00D120431B4EC7
:101CA000361D3060361D3068A0435E6806F480162D
:101CB000B6F5801F00D12043144E08363060361D23
:101CC0003068A0435E6806F40016B6F5001F00D128
:101CD00020430E4E0C363060491C1029FFF420AF13
:101CE000F8BD0000443802400838014000000240BE
:101CF0000004024000080240000C024000100240B4
:101D00000014024000180240001C0240003C014048
:101D1000024613690B400BB1012000E00020704720
:101D20000AB1816101E00B048361704701480068DA
:101D300070470000C800002070B504460CB90120AF
:101D400070BD94F83D0028B9002084F83C0020467E
:101D500000F00EFB242084F83D002068006820F08D
:101D60000100216808602068006840F40040216894
:101D700008602068006820F400402168086001F0D5
:101D800071FA05465C496068884206D85B4885421E
:101D900001D2012007E0002005E05948854201D228
:101DA000012000E00020012800D1C9E75548B5FB1B
:101DB000F0F62068406820F03F003043216848601A
:101DC0004D496068884201D8701C07E04FF4967056
:101DD00070434FF47A71B0FBF1F0401C2168096A3E
:101DE00021F03F0108432168086243496068884246
:101DF00014D8681E61684900B0FBF1F0401CC0F3C4
:101E00000B00042801D204203DE0681E61684900EF
:101E1000B0FBF1F0401CC0F30B0034E0A06838B90F
:101E2000681E616801EB4101B0FBF1F0401C0AE063
:101E3000681E616801EBC10202EB0111B0FBF1F019
:101E4000401C40F48040C0F30B0008B901201AE0A8
:101E5000A06848B9681E616801EB4101B0FBF1F070
:101E6000401CC0F30B000CE0681E616801EBC1026E
:101E700002EB0111B0FBF1F0401CC0F30B0040F489
:101E8000804040F400402168C9694CF6FF729143DC
:101E900008432168C861D4E907010843216809683B
:101EA00021F0C001084321680860D4E90310084309
:101EB0002168896848F2FF329143084321688860AD
:101EC000D4E9050108432168C96821F0FF010843EE
:101ED0002168C8602068006840F00100216808603F
:101EE00000202064202084F83D000020206384F836
:101EF0003E0000BF24E70000A086010080841E0091
:101F000000093D0040420F002DE9F8430446894690
:101F100017469846089EFFF709FF054694F83D00CE
:101F200020287DD119230122B2492046009501F0D5
:101F3000C3FF10B10220BDE8F88300BF94F83C0055
:101F4000012801D10220F6E7012084F83C0000BFFF
:101F50002068006800F0010028B92068006840F09F
:101F60000100216808602068006820F40060216892
:101F70000860222084F83D00102084F83E000020F4
:101F800020646762A4F82A80608D20859A48E06208
:101F90002B4632464946204601F064FE08B1012036
:101FA000C9E7208D88B900BF0020009020684069F3
:101FB000009020688069009000BF00BF2068006822
:101FC00040F400702168086047E0208D012817D197
:101FD0002068006820F480602168086000BF00204D
:101FE000009020684069009020688069009000BFE0
:101FF00000BF2068006840F40070216808602CE091
:10200000208D022818D12068006820F480602168A3
:1020100008602068006840F400602168086000E003
:10202000E6E000BF00200090206840690090206832
:102030008069009000BF10E02068006840F4806074
:102040002168086000BF002000902068406900906F
:1020500020688069009000BF00BFBAE0208D03288F
:102060007ED8208D012815D12A463146204601F020
:10207000C8FF08B101205EE720680069616A087046
:10208000606A401C6062208D401E2085608D401E6D
:1020900060859EE0208D02282AD1334600225749D0
:1020A0002046009501F008FF08B1012043E72068B1
:1020B000006840F400702168086020680069616A67
:1020C0000870606A401C6062208D401E2085608D13
:1020D000401E608520680069616A0870606A401C63
:1020E0006062208D401E2085608D401E608570E0FE
:1020F0003346002241492046009501F0DDFE08B13B
:10210000012018E72068006820F4806021680860DA
:1021100020680069616A0870606A401C6062208DF6
:10212000401E2085608D401E608533460022334965
:102130002046009501F0C0FE08B10120FBE62068B2
:10214000006840F400702168086020680069616AD6
:102150000870606A401C6062208D401E208500E08F
:1021600010E0608D401E608520680069616A08701B
:10217000606A401C6062208D401E2085608D401E7C
:10218000608526E02A463146204601F03AFF08B134
:102190000120D0E620680069616A0870606A401C0E
:1021A0006062208D401E2085608D401E6085206805
:1021B0004069C0F3800060B120680069616A0870FE
:1021C000606A401C6062208D401E2085608D401E2C
:1021D0006085208D00287FF441AF202084F83D00E9
:1021E000002084F83E0000BF84F83C0000BFA2E657
:1021F0000220A0E6020010000000FFFF0400010022
:102200002DE9F8430446894616461F46DDF820802E
:10221000FFF78CFD054694F83D0020287ED1192358
:10222000012251492046009501F046FE10B10220DE
:10223000BDE8F88300BF94F83C00012801D10220DA
:10224000F6E7012084F83C0000BF2068006800F039
:10225000010028B92068006840F00100216808608A
:102260002068006820F4006021680860212084F85C
:102270003D00102084F83E000020206466626785DF
:10228000608D20853948E0622B464246494620460B
:1022900001F084FD08B10120CAE700BF00200090D2
:1022A00020684069009020688069009000BF00BFEE
:1022B00044E02A464146204601F0E3FE50B1206C3E
:1022C000042805D12068006840F400702168086087
:1022D0000120ADE7606A007821680861606A401CEF
:1022E0006062608D401E6085208D401E20852068C4
:1022F0004069C0F3800070B1208D60B1606A0078E1
:1023000021680861606A401C6062608D401E6085C3
:10231000208D401E20852A46414600E022E02046CE
:1023200001F09CFD50B1206C042805D120680068A4
:1023300040F4007021680860012079E7208D0028B2
:10234000B7D12068006840F4007021680860202040
:1023500084F83D00002084F83E0000BF84F83C0073
:1023600000BF65E7022063E7020010000000FFFFE6
:1023700010B586B00446142101A8FEF754F91B4994
:102380002068884230D100BF0020009018480068C3
:1023900040F00200164908600846006800F002009C
:1023A000009000BF00BF4FF4107001901220029007
:1023B00000200390032004900420059001A90D48FB
:1023C000FFF7A6FB00BF002000900948103000680E
:1023D00040F400100649103108600846006800F417
:1023E0000010009000BF00BF06B010BD00540040B8
:1023F000303802400004024010B586B00446206820
:10240000806805908B492068884201D18A4801E0A4
:102410004FF0402080680490206840680390854910
:102420002068884201D1844801E04FF04020406894
:1024300002906068B0F5007F02D0606800286FD11C
:10244000059800F00200022806D1039800F08000F1
:1024500010B1204601F096FE049800F0010030B162
:10246000029800F0400010B1204601F055FE04989B
:1024700000F04000402832D1029800F0200070B3F4
:102480006C492068884201D16B4801E04FF0402040
:10249000406820F06000674A2168914201D1664996
:1024A00001E04FF0402148602068406820F0A00023
:1024B0002168486000BF002001902068C06801903A
:1024C00020688068019000BF00BF012084F84100AF
:1024D000606C40F002006064204600F021FA05982C
:1024E00000F00800082831D1039800F020000028EF
:1024F0002CD02068406820F0A000216848604D4939
:102500002068884201D14C4801E04FF040204068EB
:1025100020F06000474A2168914202D1464902E01A
:1025200015E04FF04021486000BF00200190206876
:102530008068019000BF00BF012084F84100606CFA
:1025400040F004006064204600F0EAF970E004986E
:1025500000F00200022806D1029800F0800010B1BD
:10256000204601F02BFE059800F0010030B10398E1
:1025700000F0400010B1204601F0B1FD059800F0D8
:102580004000402827D1039800F0200018B32068AD
:10259000406820F060002168486026492068884231
:1025A00001D1254801E04FF04020406820F0A00014
:1025B000204A2168914201D11F4901E04FF040219A
:1025C0004860012084F84100606C40F002006064C3
:1025D000204600F0A5F9049800F00800082827D14B
:1025E000029800F0200018B312492068884201D1F7
:1025F000114801E04FF04020406820F0A0000D4A53
:102600002168914201D10C4901E04FF0402148601E
:102610002068406820F0600021684860012084F84C
:102620004100606C40F004006064204600F078F9DE
:1026300006B010BD00380040003400407047000074
:10264000F8B5044600266068B0F5007F02D06068E7
:10265000002872D1A06B40B1A06BFFF723F820B126
:10266000606C40F0080060640126642301220221AE
:10267000204601F0AFFE38B1606C40F001006064AC
:10268000012084F841000126642300228021204695
:1026900001F0A0FE38B1606C40F0010060640120E0
:1026A00084F8410001262068C06920F48060216818
:1026B000C86100BF0020009020688068009000BFC3
:1026C00000BF2068406820F002002168486094F84C
:1026D0004100052856D1E06B40B1E06BFEF7E2FF08
:1026E00020B1606C40F00800606401268A492068CF
:1026F000884201D1894801E04FF04020C06920F4B0
:102700008060854A2168914201D1844901E04FF0FF
:102710004021C86100BF002000907F4920688842A6
:1027200001D17E4801E04FF04020C06800907A4916
:102730002068884202D1794802E02EE04FF0402024
:102740008068009000BF00BF73492068884201D1B3
:10275000724801E04FF04020406820F001006E4ACE
:102760002168914201D16D4901E04FF0402148605C
:10277000606840B9606C40F040006064012084F8FB
:1027800041000126C2E064492068884201D16348C3
:1027900001E04FF04020C068B8E06068B0F5407FCD
:1027A00003D06068B0F5807FECD1E06B40B1E06BA6
:1027B000FEF778FF20B1606C40F0080060640126ED
:1027C00094F8410005287BD1A06B40B1A06BFEF7C7
:1027D00069FF20B1606C40F0080060640126FFF7DB
:1027E000A5FA05460CE0FFF7A1FA401B642807D9BB
:1027F000606C40F001006064012084F84100012613
:1028000045492068884201D1444801E04FF040200A
:102810008068C0F340000028E5D00CE0FFF786FA9E
:10282000401B642807D9606C40F0010060640120FF
:1028300084F84100012638492068884201D1374890
:1028400001E04FF040208068C0F3C0100028E5D1BF
:1028500031492068884201D1304801E04FF04020E2
:10286000C06920F480602C4A2168914201D12B4933
:1028700001E04FF04021C86100BF002000902649D0
:102880002068884201D1254801E04FF0402080684F
:10289000009000BF00BF20492068884201D11F4836
:1028A00001E04FF04020406820F002001A4A216801
:1028B000914202D1194902E002E04FF04021486004
:1028C0002068C06920F480602168C86100BF0020D2
:1028D00000902068C068009020688068009000BF69
:1028E00000BF2068406820F00100216848606068EF
:1028F000B0F5807F08D1606C40F04000606401203A
:1029000084F84100012601E02068C068012084F8B5
:1029100041003046F8BD000000380040003400405F
:10292000704700002DE9F047044614B90120BDE8C6
:10293000F08794F8410038B9002084F840006548D9
:102940006063204600F0CEF8022084F84100206841
:10295000C06940F6BF7188432168C86102202168C0
:102960000862606902283CD0E06808B9102600E0DF
:102970002026A068202800D87600012000F092FAD6
:1029800080462069B0F5007F17D1E06850B1B000F3
:10299000B8FBF0F000EB800041006069B1FBF0F0A3
:1029A000451D13E0F000B8FBF0F000EB80004100A3
:1029B0006069B1FBF0F0451D08E0B8FBF6F000EBF4
:1029C000800041006069B1FBF0F0451D0A20B5FBB5
:1029D000F0F505F00109A5EB090047084FEA0929C0
:1029E00002E002274FF00009022F01D3FF2F05D983
:1029F000606C40F010006064012098E7206940EAB4
:102A00000900384321680862606840F40060A168EA
:102A10000843E1680843A16908432168C96940F691
:102A2000BF72914308432168C861206A01284AD1D6
:102A30002948606329492068884201D1284801E07B
:102A40004FF04020C06940F6BF718843234A216897
:102A5000914201D1224901E04FF04021C86102209A
:102A60001E4A2168914201D11D4901E04FF04021E9
:102A700008621A492068884201D1194801E04FF0E4
:102A80004020C0691FFA80FA6068B0F5007F01D06D
:102A9000606810B94FF4807500E00025A089218B93
:102AA000084321890843284380B240F4006040EA8B
:102AB0000A0A0A492068884201D1094801E04FF01A
:102AC0004020C0F81CA000206064012084F8410070
:102AD00000202CE78D420008F92300080038004050
:102AE0000034004010B586B00446142101A8FDF75B
:102AF0009AFD3A49206888426ED100BF00200090BC
:102B00003748006840F400403549086008460068CE
:102B100000F40040009000BF00BF00BF0020009004
:102B20002F481038006840F001002D491039086026
:102B30000846006800F00100009000BF00BF00BF21
:102B4000002000900846006840F004000860084635
:102B5000006800F00400009000BF00BF102001904A
:102B6000022002900020039004900620059001A905
:102B70001C48FEF7CDFF4FF4A450019002200290B4
:102B80000020039004900620059001A91648FEF746
:102B9000BFFF1648164908600020486040211448CD
:102BA00081600021C1604FF4806101614900416191
:102BB000890081614911C1610021016204214162E2
:102BC000032181620021C1620163FEF7E1FE00BFC3
:102BD0000748A063846300BF06B010BD003C0040FE
:102BE0004038024000000240000802408860024075
:102BF00054020020704700002DE9F04104460E46C3
:102C0000154606B115B90120BDE8F08100BF94F862
:102C10004000012801D10220F6E7012084F840009D
:102C200000BF94F84100012806D000BF002084F8BE
:102C3000400000BF0220E7E7032084F841000020A5
:102C4000606466622068C06900F00707032F01D046
:102C5000052F0AD14FF6FF7000EA450020854FF698
:102C6000FF7000EA4500608501E0258565851F4805
:102C7000A16B08641E48A16BC8631E48A16BC864A1
:102C8000238DD4F800C00CF10C02616AA06BFEF732
:102C9000F5FE68B1606C40F008006064012084F8C3
:102CA000410000BF002084F8400000BF0120ABE7D6
:102CB0002068C06900F4806028B92068C06940F4C9
:102CC00080602168C8612068406800F0020028B96F
:102CD0002068406840F002002168486000BF002082
:102CE00084F8400000BF00BF8EE700007F4200086C
:102CF000574200082942000870477047034800689F
:102D0000034909780844014908607047C800002059
:102D1000D000002010B50A48006840F4007008494F
:102D200008600846006840F480600860032000F0F6
:102D3000A5F80F2000F006F800F02AF8002010BDDA
:102D4000003C024070B504460E4800784FF47A719A
:102D5000B1FBF0F00C490968B1FBF0F5284600F032
:102D60002DFD08B1012070BD102C07D20022214694
:102D7000501E00F045F80548046001E00120F2E72C
:102D80000020F0E7D0000020D4000020CC0000207C
:102D900008B500BF002000900E48006840F4804055
:102DA0000C4908600846006800F48040009000BFAD
:102DB00000BF00BF00200090081F006840F0805056
:102DC000091F08600846006800F08050009000BFAE
:102DD00000BF08BD443802400146084600280DDB0C
:102DE00000BF00BF00F01F0301229A4043099B006F
:102DF00003F1E023C3F8002100BF00BF00BF70470C
:102E00002DE9F05F80460D461646002701F08AFE48
:102E1000074639462A46334601F00700C0F1070A43
:102E2000BAF1040F02D94FF0040A01E0C0F1070A19
:102E3000D14600F1040ABAF1070F02D24FF0000A9E
:102E400001E0A0F1030AD4464FF0010A0AFA09FA98
:102E5000AAF1010A0AEA020A0AFA0CFA4FF0010B77
:102E60000BFA0CFBABF1010B0BEA030B4AEA0B0468
:102E70002146404601F05EFEBDE8F09F00BF00F035
:102E80000702064B19684FF6FF031940044B0B432A
:102E900043EA0221014B196000BF70470CED00E0CE
:102EA0000000FA0570B5014600200022002300242E
:102EB000012934D11B4D2D6805F400031BB1012BF2
:102EC00029D1194829E0174D2D1F2D6805F48005DB
:102ED000B5F5800F08D1134D2D1F2D6805F03F0566
:102EE000124EB6FBF5F207E00E4D2D1F2D6805F0D2
:102EF0003F050F4EB6FBF5F20A4D7C352D68C5F344
:102F0000881505FB02F4074D7C352D68C5F3027565
:102F1000B4FBF5F001E0002000BF00BF00BF00BF20
:102F200070BD0000083802400080BB0000127A002B
:102F30000024F400F8B5044600250026207800F0AF
:102F4000010020B9207800F0040004282FD10020CF
:102F50005B498866FEF7EAFE054606E0FEF7E6FEF8
:102F6000401B022801D90320F8BD56480068C0F371
:102F7000C0600028F2D160688101207A41EA0070C7
:102F800050498431086001204D498866FEF7CEFE25
:102F9000054606E0FEF7CAFE401B022801D90320C1
:102FA000E2E748480068C0F3C0600028F2D020780B
:102FB00000F0020002287DD100BF002000904148AF
:102FC0004030006840F080503E494031086008467B
:102FD000006800F08050009000BF00BF3A480068D1
:102FE00040F4807038490860FEF7A0FE054606E010
:102FF000FEF79CFE401B022801D90320B4E73248AB
:10300000006800F480700028F2D02E48703000680C
:1030100000F440764EB3A08900F44070B04224D052
:1030200028487030006820F4407601202749086065
:1030300000200860234870300660006800F001003E
:1030400098B1FEF773FE054608E0FEF76FFE401BE1
:1030500041F28831884201D9032085E71948703050
:103060000068C0F340000028EFD000BFA08900F442
:103070004070B0F5407F0CD112480830006820F451
:10308000F810134AE168114008430E4908310860FE
:1030900007E00C480830006820F4F81009490831AE
:1030A0000860084870300068A189C1F30B0108432B
:1030B000044900E002E07031086000BF002053E7DF
:1030C000000047420038024000700040400E474276
:1030D000FFFCFF0F70B504460D460CB9012070BD12
:1030E0005848006800F00F00A84209D255490D70F9
:1030F0000846006800F00F00A84201D00120EEE76A
:10310000207800F0020002281DD1207800F0040091
:10311000042805D14C48006840F4E0504A49086052
:10312000207800F00800082805D14748006840F4DE
:103130006040454908604448006820F0F000A168FC
:10314000084341490860207800F00100A8B3606896
:10315000012807D13C4808380068C0F34040B8B99E
:103160000120BCE76068022802D06068032807D10C
:10317000354808380068C0F3406048B90120AEE720
:10318000314808380068C0F3400008B90120A6E7BC
:103190002D48006820F00300616808432A49086050
:1031A000FEF7C4FD064609E0FEF7C0FD801B41F2B4
:1031B0008831884202D9032091E707E0224800685D
:1031C00000F00C006168B0EB810FEDD11D48006884
:1031D00000F00F00A84209D91A490D70084600688E
:1031E00000F00F00A84201D0012078E7207800F01D
:1031F0000400042807D11448006820F4E050E16876
:10320000084311490860207800F00800082808D118
:103210000D48006820F46040216940EAC1000A4975
:10322000086000F02FF808490968C1F30311074A44
:10323000515CC8400649086006480068FFF782FDF7
:1032400000204CE7003C024008380240BB770008F1
:10325000D4000020CC000020014800687047000026
:10326000D400002000B5FFF7F7FF04490968C1F357
:103270008221034A515CC84000BD0000083802406A
:10328000CB7700082DE9F047002400250026A14651
:103290002548006800F00C0020B1042805D008285B
:1032A0003AD105E0DFF8849039E0DFF8849036E029
:1032B0001D48001F006800F03F041B48001F006805
:1032C00000F4800078B11A481749091F0968C1F352
:1032D0008811A0FB01700146224600233846FDF705
:1032E0002FF805460EE011480F49091F0968C1F380
:1032F0008811A0FB01700146224600233846FDF7E5
:103300001FF805460848001F0068C0F30140401C34
:103310004600B5FBF6F902E0DFF8109000BF00BFF1
:103320004846BDE8F0870000083802400024F40059
:1033300000127A00F8B504460CB90120F8BD2078D7
:1033400000F00100002874D0F948006800F00C007B
:1033500004280DD0F648006800F00C00082813D1AE
:10336000F348001F006800F48000B0F5800F0BD117
:10337000EF4808380068C0F34040002859D0606822
:10338000002856D10120D9E700BF6068B0F5803F22
:1033900008D1E7480838006840F48030E44908392B
:1033A00008601EE06068B0F5A02F0DD1E048083835
:1033B000006840F48020DE4908390860084600684B
:1033C00040F4803008600CE0D9480838006820F4E8
:1033D0008030D749083908600846006820F480200A
:1033E000086000BF606890B1FEF7A0FC054606E0EB
:1033F000FEF79CFC401B642801D903209EE7CC48C3
:1034000008380068C0F340400028F1D011E0FEF712
:103410008DFC054606E0FEF789FC401B642801D9B7
:1034200003208BE7C24808380068C0F340400028FA
:10343000F1D1207800F0020002285FD1BC4800687A
:1034400000F00C0058B1BA48006800F00C000828E1
:103450001CD1B748001F006800F48000B0B9B44820
:1034600008380068C0F3400020B1E068012801D0AE
:10347000012063E7AE480838006820F0F8002169B1
:1034800040EAC100AA490839086037E0E06800B3A3
:103490000120A8490860FEF749FC054606E0FEF752
:1034A00045FC401B022801D9032047E7A048083803
:1034B0000068C0F340000028F1D09D48083800683B
:1034C00020F0F800216940EAC100994908390860F4
:1034D00014E0002097490860FEF728FC054606E046
:1034E000FEF724FC401B022801D9032026E7904860
:1034F00008380068C0F340000028F1D1207800F0BF
:10350000080008282CD16069A8B101208A49086008
:10351000FEF70CFC054606E0FEF708FC401B0228FF
:1035200001D903200AE782486C300068C0F34000EC
:103530000028F1D014E000207F490860FEF7F6FB78
:10354000054606E0FEF7F2FB401B022801D90320E6
:10355000F4E677486C300068C0F340000028F1D1F1
:10356000207800F00400042870D10027704838301B
:10357000006800F0805090B900BF002000906C48B7
:103580003830006840F0805069493831086008469A
:10359000006800F08050009000BF00BF012767481E
:1035A000006800F48070B0B96448006840F480702E
:1035B00062490860FEF7BAFB054606E0FEF7B6FB77
:1035C000401B022801D90320B8E65C48006800F4DB
:1035D00080700028F2D000BFA068012808D15448AC
:1035E0006830006840F001005149683108601DE012
:1035F000A06805280DD14E486830006840F00400EE
:103600004B49683108600846006840F001000860D6
:103610000CE047486830006820F0010044496831F8
:1036200008600846006820F00400086000BFA06839
:10363000A8B1FEF77BFB054609E0FEF777FB401BD0
:1036400041F28831884202D9032077E626E03848E3
:1036500068300068C0F340000028EED013E0FEF7A9
:1036600065FB054608E0FEF761FB401B41F288312F
:10367000884201D9032061E62D4868300068C0F314
:1036800040000028EFD1012F07D1294838300068C9
:1036900020F0805026493831086000BFA06900281A
:1036A00045D02348006800F00C0008285DD0A069D0
:1036B000022845D100201F490866FEF737FB054662
:1036C00006E0FEF733FB401B022801D9032035E654
:1036D000174808380068C0F340600028F1D1D4E9E9
:1036E00007010843616A40EA81110122A06AC2EB26
:1036F000500041EA00412C20005D41EA00600C4985
:10370000091F086001200B490866FEF70FFB0546FC
:1037100006E0FEF70BFB401B022801D903200DE653
:10372000034808380068C0F340600028F1D03FE04B
:103730000838024000004742800E474200700040B7
:1037400000201C490866FEF7F1FA054606E0FEF780
:10375000EDFA401B022801D90320EFE51648006866
:10376000C0F340600028F2D122E0A069012800D116
:10377000E4E51148001D066806F48001E069814215
:1037800014D106F03F01206A81420FD147F6C07084
:103790003040616A884209D106F44031A06A814212
:1037A00004D106F07061E06A814201D00120C5E5D4
:1037B0000020C3E5000047420038024070B50446CF
:1037C0002546681EB0F1807F01D301200FE0681EFE
:1037D0004FF0E02148610F214FF0FF3001F0AAF9CE
:1037E00000204FF0E021886107200861002070BDB3
:1037F0007047704710B504460CB9012010BD94F80D
:103800003D0028B9002084F83C00204600F00CF868
:10381000022084F83D00211D206801F015F80120E8
:1038200084F83D000020E9E770470146022081F856
:103830003D000868806800F00702062A05D0086885
:10384000006840F001000B681860012081F83D001D
:103850000020704701460868C06840F001000B680E
:10386000D8600868806800F00702062A05D008685A
:10387000006840F001000B681860002070470146A6
:10388000022081F83D0000BF0868006A41F2111271
:10389000104050B90868006A9210104028B90868B2
:1038A000006820F001000A68106000BF012081F864
:1038B0003D000020704701460868C06820F0010004
:1038C0000A68D06000BF0868006A41F21112104017
:1038D00050B90868006A9210104028B9086800685A
:1038E00020F001000A68106000BF00207047704798
:1038F00010B5044620680069C0F34000D8B12068C4
:10390000C068C0F34000B0B16FF0020021680861E8
:10391000012020772068806900F0030018B120465C
:10392000FFF7E5FF05E0204600F0ADF8204600F087
:103930004AF90020207720680069C0F38000D8B1E0
:103940002068C068C0F38000B0B16FF00400216847
:103950000861022020772068806900F4407018B167
:103960002046FFF7C4FF05E0204600F08CF8204613
:1039700000F029F90020207720680069C0F3C0001A
:10398000D8B12068C068C0F3C000B0B16FF00800C3
:1039900021680861042020772068C06900F00300D6
:1039A00018B12046FFF7A3FF05E0204600F06BF8B2
:1039B000204600F008F90020207720680069C0F355
:1039C0000010D8B12068C068C0F30010B0B16FF02B
:1039D000100021680861082020772068C06900F481
:1039E000407018B12046FFF782FF05E0204600F046
:1039F0004AF8204600F0E7F80020207720680069A8
:103A000000F0010058B12068C06800F0010030B13A
:103A10006FF0010021680861204600F001F920687C
:103A20000069C0F3C01058B12068C068C0F3C0106E
:103A300030B16FF08000216808612046FFF7D8FEA2
:103A400020680069C0F3801058B12068C068C0F3D6
:103A5000801030B16FF0400021680861204600F00E
:103A6000E0F820680069C0F3401058B12068C068D1
:103A7000C0F3401030B16FF020002168086120468B
:103A8000FFF7B7FE10BD704770B504460D461646E9
:103A900000BF94F83C00012801D1022070BD012034
:103AA00084F83C0000BF022084F83D0036B1042EAB
:103AB0001BD0082E31D00C2E5ED145E0294620685F
:103AC00000F040FF2068806940F0080021688861AC
:103AD0002068806920F0040021688861206880697E
:103AE000296908432168886147E02946206800F079
:103AF00061FF2068806940F4006021688861206867
:103B0000806920F480602168886120688069296963
:103B100040EA0120216888612FE02946206800F0F2
:103B200087FF2068C06940F008002168C8612068EC
:103B3000C06920F004002168C8612068C069296953
:103B400008432168C86118E02946206800F0ACFFEE
:103B50002068C06940F400602168C8612068C069BD
:103B600020F480602168C8612068C069296940EA42
:103B700001202168C86100E000BF00BF012084F877
:103B80003D0000BF002084F83C0000BF00BF85E777
:103B900010B504460CB9012010BD94F83D0028B9B9
:103BA000002084F83C00204600F00CF8022084F845
:103BB0003D00211D206800F047FE012084F83D00F3
:103BC0000020E9E77047704770B504460E460122B1
:103BD0003146206800F0A4FE0F492068884203D0D7
:103BE0000E492068884201D1012000E0002028B160
:103BF0002068406C40F40040216848642068806878
:103C000000F00705062D05D02068006840F001008F
:103C100021680860002070BD0000014000040140E0
:103C200070477047014608684069C0F38020B0B112
:103C30006FF480600A68506100200863202081F8DA
:103C40003D00002081F83E00086C40F0040008644C
:103C500000BF002081F83C0000BF01207047002019
:103C6000FCE700002DE9F84304460D4690461E4649
:103C7000E76A2068006840F4806021680860082FC7
:103C800004D0012F02D017F5803F06D120680068CC
:103C900040F480702168086008E0206B112805D18D
:103CA0002068006840F48070216808604346002264
:103CB0004FF001112046009600F0FEF860B1206838
:103CC000006800F48070B0F5807F02D14FF400707E
:103CD00020640320BDE8F8832069B0F5804F05D14A
:103CE000E8B240F001002168086149E005F4407045
:103CF000F02141EAE0102168086133464246264936
:103D0000204600F01CF908B10120E3E7E8B2216881
:103D10000861334642462049891F204600F00FF9CA
:103D200008B10120D6E700BF00200090206840695C
:103D3000009020688069009000BF00BF2068006884
:103D400040F4807021680860434600224FF0011162
:103D50002046009600F0B0F858B12068006800F4E2
:103D60008070B0F5807F02D14FF400702064032092
:103D7000B0E705F44070F12141EAE01021680861E4
:103D8000334642460449891F204600F0D8F808B15E
:103D900001209FE700209DE7080001002DE9F8437E
:103DA00004460D4617469846E66A082E04D0012EB2
:103DB00002D016F5803F06D12068006840F480707C
:103DC0002168086008E0206B122805D1206800688F
:103DD00040F48070216808603B4600224FF00111DA
:103DE0002046CDF8008000F067F860B120680068D8
:103DF00000F48070B0F5807F02D14FF40070206431
:103E00000320BDE8F8832069B0F5804F04D105F0A8
:103E1000FE002168086112E005F44070F02141EADB
:103E2000E0102168086143463A460B49204600F0FD
:103E300086F808B10120E4E7E8B22168086143464A
:103E40003A460549891F204600F079F808B101205B
:103E5000D7E70020D5E700000800010070B5044650
:103E60000D46164620E02046FFF7DCFE08B1012093
:103E700070BD681CC0B1FDF759FF801BA84200D877
:103E800095B900202063202084F83D00002084F8AC
:103E90003E00206C40F02000206400BF002084F829
:103EA0003C0000BF0120E3E720684069C0F38000C8
:103EB0000028D8D00020DBE72DE9F04104460D466C
:103EC00017461E46DDF818801CE0701CD0B1FDF7C7
:103ED0002DFFA0EB0800B04200D89EB9002020635F
:103EE000202084F83D00002084F83E00206C40F043
:103EF0002000206400BF002084F83C0000BF0120A7
:103F0000BDE8F081C5F3074001280AD12068406967
:103F1000A9B20840A9B2884201D101200BE00020DB
:103F200009E020688069A9B20840A9B2884201D19D
:103F3000012000E00020B842C7D00020E0E72DE9D2
:103F4000F04104460D4616461F463DE02068406994
:103F5000C0F38020E8B12068006840F40070216858
:103F600008606FF480602168486100202063202091
:103F700084F83D00002084F83E00206C40F00400EE
:103F8000206400BF002084F83C0000BF0120BDE891
:103F9000F081701CC0B1FDF7C9FEC01BB04200D853
:103FA00096B900202063202084F83D00002084F88A
:103FB0003E00206C40F02000206400BF002084F808
:103FC0003C0000BF0120E2E7C5F3074001280AD109
:103FD00020684069A9B20840A9B2884201D10120F5
:103FE0000BE0002009E020688069A9B20840A9B26E
:103FF000884201D1012000E000200028A6D0002046
:10400000C5E770B504460D46164632E020684069A3
:10401000C0F30010A0B16FF01000216848610020CB
:104020002063202084F83D00002084F83E00206CAE
:10403000206400BF002084F83C0000BF012070BD58
:10404000FDF774FE801BA84200D895B900202063BC
:10405000202084F83D00002084F83E00206C40F0D1
:104060002000206400BF002084F83C0000BF012035
:10407000E5E720684069C0F380100028C6D0002022
:10408000DDE770B504460D46164620E02046FFF7F2
:10409000C9FD08B1012070BD681CC0B1FDF746FE26
:1040A000801BA84200D895B900202063202084F806
:1040B0003D00002084F83E00206C40F02000206489
:1040C00000BF002084F83C0000BF0120E3E7206827
:1040D0004069C0F3C0100028D8D00020DBE710B53D
:1040E00004462068C06881B2E26A901CE0621180D8
:1040F000608E401E6086608E68B92068406820F03F
:10410000600021684860608D28B9012084F8410072
:104110002046FEF793FA10BD10B5044617492068F3
:10412000884201D1164801E04FF04020C06881B2BA
:10413000E26A901CE0621180608E401E6086608E94
:10414000D8B90E492068884201D10D4801E04FF0EE
:104150004020406820F06000084A2168914201D167
:10416000074901E04FF040214860608D28B90120E7
:1041700084F841002046FEF761FA10BD0038004087
:104180000034004010B50446616A881C60620888EB
:104190002168C860608D401E6085608D68B92068A8
:1041A000406820F0A00021684860608E28B9012096
:1041B00084F841002046FEF741FA10BD10B50446D0
:1041C000616A881C60620888154A2168914201D1A1
:1041D000144901E04FF04021C860608D401E6085A9
:1041E000608DD8B90E492068884201D10D4801E0A0
:1041F0004FF04020406820F0A000094A2168914219
:1042000001D1084901E04FF040214860608E28B993
:10421000012084F841002046FEF710FA10BD00008E
:10422000003800400034004070B50546AC6B206893
:10423000406820F0030021684860002060856086A7
:10424000012084F84100606C40F008006064204662
:10425000FEF766FB70BD70B50546AC6BE86950B9FA
:104260002068406820F002002168486000206085D6
:10427000012084F841002046FEF73EFD70BD70B578
:104280000446A56B2846FEF738FD70BD1CB50446F4
:1042900020688068019094F84100042830D101988A
:1042A00000F0010038B120684068C0F3801010B100
:1042B000204600F059F8019800F0400040281FD136
:1042C00020684068C0F34010D0B12068406820F0FA
:1042D00060002168486000BF002000902068C0682E
:1042E000009020688068009000BF00BF012084F823
:1042F0004100606C40F0020060642046FEF710FB55
:1043000094F8410003282ED1019800F00200022801
:1043100007D120684068C0F3C01010B1204600F0FB
:104320003EF8019800F0080008281CD12068406879
:10433000C0F34010B8B12068406820F0A0002168A8
:10434000486000BF0020009020688068009000BF97
:1043500000BF012084F84100606C40F004006064FC
:104360002046FEF7DDFA1CBD10B504462068C06883
:10437000E16A0880E06A801CE062608E401E608610
:10438000608E58B92068406820F06000216848605D
:10439000012084F841002046FEF72CFC10BD10B52A
:1043A0000446606A00882168C860606A801C606298
:1043B000608D401E6085608D58B92068406820F08F
:1043C000A00021684860012084F841002046FEF7E3
:1043D00093FC10BD2DE9F04104460E4617461D46DC
:1043E000FDF7A4FC804613E0681C88B1FDF79EFC35
:1043F000A0EB0800A84200D255B9012084F8410082
:1044000000BF002084F8400000BF0320BDE8F08119
:10441000206880683040B04201D1012000E00020D7
:10442000B842E1D10020F1E70A49096801F0010131
:1044300071B108498039096801F0010141B100BF3B
:104440004FF0604109680029FAD04FF060421070C7
:1044500070470000800E00E008B500BF002000900B
:104460001048006840F001000E49086008460068E6
:1044700000F00100009000BF00BF01200A49086061
:104480000A48486000208860C8600948FDF740FB82
:1044900000220A210620FEF7B3FC0620FEF79CFC52
:1044A00008BD000030380240E40000200000211068
:1044B0000000024008B500BF002000900A480068D4
:1044C00040F40010084908600846006800F4001035
:1044D000009000BF00BF002205211020FEF790FCD5
:1044E0001020FEF779FC08BD3038024000B587B0D7
:1044F00000BF002001902748006840F001002549D6
:1045000008600846006800F00100019000BF00BF8D
:1045100000BF002001900846006840F008000860D5
:104520000846006800F00800019000BF00BF00BF0F
:10453000002001900846006840F00400086008462A
:10454000006800F00400019000BF00BF00BF002021
:1045500001900846006840F00200086008460068C4
:1045600000F00200019000BF00BF00224FF21001D6
:104570000948FDF7D5FB4FF210000290012003908F
:1045800000200490059002A90348FDF7C1FA07B086
:1045900000BD000030380240000C024010B50A484F
:1045A0000A4908600A484860002108488160C160E3
:1045B0004FF480410161002141618161C16101626B
:1045C000FDF7BAFB10BD000000540040B801002008
:1045D000A086010010B50B480B49086040154860E3
:1045E000002109488160C1604FF4007101614BF600
:1045F0008031416100218161C1610162FEF792F960
:1046000010BD0000003C00400C02002008B500BFB7
:10461000002000900D48006840F001000B49086040
:104620000846006800F00100009000BF00BFC020F5
:10463000074908600220486000208860C8600220A6
:1046400008610448FDF764FA08BD000030380240F4
:10465000E40000200000024008B500BF00200090E8
:104660001048006840F002000E49086008460068E3
:1046700000F00200009000BF00BF0B480B4908602B
:1046800044F61F610948C160532008494860002171
:104690000648816001614161FFF7ACF80348FFF70C
:1046A000C4F808BD4038024000040040B4020020B5
:1046B00010B50E48FFF76CFA60200D490860002025
:1046C00048608860086100220848FFF7DDF9002192
:1046D0000648FFF779FA042205490448FFF7D4F9A0
:1046E00004210248FFF770FA10BD0000B402002058
:1046F000F402002010B5FEF701FB02F0BFFD012817
:1047000001D002F063FA10BD00B597B000BF0020E1
:1047100001902648006840F080502449086008460F
:10472000006800F08050019000BF00BF00BF002073
:1047300001901F48006840F480401D490860084609
:10474000006800F48040019000BF00BF0120069087
:104750000004079002200C9041050D9108210E9154
:104760004FF4A8710F91022110910721119106A811
:10477000FEF7E0FD0F20129002201390002014900D
:104780004FF4A05015904FF480501690052112A8B8
:10479000FEF7A0FC01200290642003900221049106
:1047A00002A8FEF7C7FB17B000BD0000403802406A
:1047B000007000401448006840F47000124908601E
:1047C0001248006840F001001049086000200F49BD
:1047D000083108600D4800680D4908400B49086021
:1047E0000C48091D0860081F006820F48020091F7C
:1047F0000860002005490C3108604FF00060024954
:10480000803908607047000088ED00E00038024001
:10481000FFFFF6FE1030002410B50948FFF768F8D6
:10482000074800680069C0F3400010B10120054945
:1048300008706FF0010002490968086110BD0000AE
:10484000380100200300002010B50268294B98426F
:104850000ED0B0F1804F0BD0274B984208D0274B99
:10486000984205D0264B984202D0264B984203D15D
:1048700022F070024B681A431E4B984220D0B0F1D0
:10488000804F1DD01C4B98421AD01C4B984217D019
:104890001B4B984214D01B4B984211D01A4B984294
:1048A0000ED01A4B98420BD0194B984208D0194B96
:1048B000984205D0184B984202D0184B984203D129
:1048C00022F44072CB681A4322F080034C6943EA19
:1048D000040202608B68C3620B688362054B9842D6
:1048E00002D0084B984201D10B6903630123436155
:1048F00010BD00000000014000040040000800401E
:10490000000C004000040140004001400044014010
:104910000048014000180040001C004000200040FA
:1049200030B501F01F05012404FA05F3046A9C4325
:104930000462046A01F01F0502FA05F52C430462C3
:1049400030BD000030B5056A25F001050562026A38
:104950004368846924F0700424F003040D682C4338
:1049600022F002028D682A43104DA84200D103E0D4
:104970000F4DA84206D100BF22F00802CD682A439D
:1049800022F00402094DA84202D0094DA84207D1E5
:1049900023F4807323F400734D692B438D692B43FB
:1049A000436084614D684563026230BD0000014090
:1049B0000004014030B5056A25F010050562026A61
:1049C0004368846924F4E04424F440740D6844EAA4
:1049D000052422F020028D6842EA0512124DA842F9
:1049E00000D103E0114DA84207D100BF22F08002A0
:1049F000CD6842EA051222F040020B4DA84202D0D7
:104A00000A4DA84209D123F4806323F400634D6961
:104A100043EA85038D6943EA8503436084614D68F9
:104A20008563026230BD00000000014000040140C7
:104A300030B5056A25F480750562026A4368C46969
:104A400024F0700424F003040D682C4322F4007257
:104A50008D6842EA0522124DA84200D103E0114DB3
:104A6000A84207D100BF22F40062CD6842EA0522C5
:104A700022F480620A4DA84202D00A4DA84209D110
:104A800023F4805323F400534D6943EA05138D69E1
:104A900043EA05134360C4614D68C563026230BDDB
:104AA000000001400004014030B5056A25F480553E
:104AB0000562036A4468C26922F4E04222F440724B
:104AC0000D6842EA052223F400538D6843EA05335A
:104AD000084DA84202D0084DA84204D124F48044D5
:104AE0004D6944EA85144460C2614D6805640362FF
:104AF00030BD0000000001400004014041000802F8
:104B000018BF04200A0E18BF40F001004FF07F428A
:104B100032EA010108BF40F00200012808BF052069
:104B20007047000002480068C0F302207047000090
:104B30000CED00E010B5002804DB0A07130E054A4F
:104B4000135406E00A07140E034A00F00F031B1F5C
:104B5000D45410BD00E400E018ED00E000B510EE04
:104B6000101A2DED028B81B0524A6846B2EB410F0C
:104B70002ED94FF0E640B0EB410F94BF00204FF02C
:104B8000FF3000900098B0EE408A00286ADB10F0F9
:104B9000010F4BD068EE080A9FED471A9FED470AB8
:104BA00000EE810A9FED461A10F0020F00EE801A07
:104BB000B7EE000A00EE810A02BF01B0BDEC028B25
:104BC00000BD00BF01B0B1EE400ABDEC028B00BDDC
:104BD0003C4B21F00042934241D911F0004FDFEDF0
:104BE0003A0A20EE201ADFED390A19BF31EE601AB9
:104BF00071EE200A31EE201A71EE600ABDEEE01A65
:104C000011EE100A9FED321A00F0030000EEC10A07
:104C10009FED301A009000EEC10A9FED2F1A00EEB2
:104C2000C10A9FED2E1A00EEC10AABE728EE080A72
:104C30009FED2B1ADFED2B0A10F0020F40EE410A18
:104C40009FED291A00EE201A61EE000AB0EE480A24
:104C500008EE200AB6D101B0BDEC028B00BD00F019
:104C600059F88FE718EE100A4000B0F17F4F0DD2CF
:104C700018EE100AFFF742FF042808BF00F042F8C0
:104C8000B0EE480A01B0BDEC028B00BD09D1012095
:104C9000FBF738FD01B0BDEC028B5DF804EB00F0D2
:104CA00029B801B0B0EE480ABDEC028B5DF804EB08
:104CB00000F01CB8B61F927EB93AB2BACA9F2A3D1C
:104CC000DDFFFFBE490E494683F9223F0000004B3D
:104CD0000000C93F00A0FD390020A2331A61342C26
:104CE000336D4C39DA82083CA0AA2ABE30EE000AA5
:104CF00070470000DFED020A80EEA00A7047000056
:104D0000000000009FED020A20EE000A704700003C
:104D1000000000102DE9F0014FF07F42B2EB410F8F
:104D20009FBF4FF0FF310160BDE8F00170474FF0C9
:104D3000004242EA0123C1F3C752783A551112F0FA
:104D40001F0C434CCCF120067C44C1F3C752A2F1A6
:104D500078024FEA621204EB820254F8254008BF41
:104D6000D2E9015612D0556804FA0CF425FA06F778
:104D70003C43976805FA0CF527FA06F8D26807FA5B
:104D80000CFCF24045EA08054CEA0206A4FB034C81
:104D9000A5FB0352A6FB03631D449D4234BF0126BD
:104DA00000261319334416B1934202D903E093420B
:104DB00001D2012200E00022624402F1200C92069E
:104DC000DC0C42EA443200EE102A5B03DFED210ADC
:104DD000F8EEC01A00EE103A4FEA9C1C11F0004F9A
:104DE000B8EE400AC0F800C020EE201A00EE105ABB
:104DF000DFED190AB8EE400A20EE200A71EE810AB2
:104E000070EE800A10EE902A02F500626FF30B023A
:104E100000EE902A70EEE11A31EEC11ADFED101AA1
:104E200030EE411A9FED0D0A20EE800A01EE210AB4
:104E30009FED0C1A00EE810A04BFBDE8F001704737
:104E4000CCF180510160BDE8F001B1EE400A70473D
:104E5000882A0000000000360000802C22AAFD29CC
:104E6000DB0FC92F0000C92F01466FF40040084432
:104E700020B1012804D0022806D103E000207047A9
:104E80000020FCE70020FAE74FF0FF30F7E701468B
:104E90006FF40040084420B1012804D0022806D154
:104EA00003E0002070470020FCE70020FAE7002024
:104EB000F8E701466FF40040084420B1012804D00F
:104EC000022806D103E0012070470120FCE7012001
:104ED000FAE70020F8E7000070B504460D4614B963
:104EE0004FF0FF3070BD20783A281AD10EA120462D
:104EF000FBF7C0FB10B948F20100F3E70CA1204614
:104F0000FBF7B8FB10B948F20200EBE70AA1204614
:104F1000FBF7B0FB10B948F20300E3E74FF0FF30B6
:104F2000E0E74FF0FF30DDE73A535444494E0000CC
:104F30003A5354444F5554003A5354444552520046
:104F400002466FF40040104420B1012805D0022829
:104F500009D105E04FF0FF3070474FF0FF30FBE71D
:104F60004FF0FF30F8E74FF0FF30F5E72DE9F04163
:104F700006460C46154698466FF40040304420B172
:104F8000012806D0022811D10EE04FF0FF30BDE815
:104F9000F08105E014F8017B384600F0D9FF6D1E62
:104FA000002DF7D10020F2E70020F0E74FF0FF30AE
:104FB000EDE770B5044600251FE0012C0FD0022C50
:104FC00004D0032C08D0042C0CD102E001F05AF8D4
:104FD00009E001F01FF806E000F0E6FF03E001F051
:104FE00035F800E000BF00BFC82001F053FA00F020
:104FF000BFFFC82001F04EFA6D1C022DDDDB70BD35
:1050000001200149087070470100002008B500BF69
:10501000002000901048006840F008000E49086029
:105020000846006800F00800009000BF00BF0B4871
:105030000B49086040F277504860002108488160C1
:1050400042F6DF61C160002101614161FEF7D2FBE0
:105050003220FDF7C1FE08BD40380240000C004080
:10506000380100208A68002A01DCFBF7EBBC521EE5
:105070008A604A68C0B2531C4B60107070470000D1
:105080001CB5FFF797FBFDF745FEFFF73DFBFFF76C
:105090002DFAFFF7E1F9FFF70DFAFFF77FFAFFF7B7
:1050A00099FAFFF7B3FAFFF7D7FAFFF701FB0120F0
:1050B00019490870FFF7AAFF00220121022001F020
:1050C0009FFD1649086000220121022001F098FD91
:1050D000134908601348032100238022CDE9001002
:1050E00011A1164802F09AF81548032100238022E6
:1050F000CDE9001013A1184802F090F817480321D9
:1051000000238022CDE9001015A1194802F086F88D
:1051100001F070FB00BFFEE73D00002018000020FA
:105120001C000020200000207644657465637442F2
:105130007574746F6E54797065000000E960000842
:10514000240000207644657465637455736572535A
:105150007461746500000000F164000828000020FC
:10516000765461736B506C6179536F6E6700000009
:10517000F966000830B52DED028BA7B0B0EE408A7D
:105180000546BDEEC80A10EE101A53A0FBF750F901
:105190002A22544912A8FBF70CFA5248408DADF868
:1051A00072005048C06A1D904E48006B1E90092244
:1051B0004C4934311FA8FBF7FCF94A4890F83D00F0
:1051C0008DF88500474890F83E008DF886004548E8
:1051D000006C22904348406C23904248806C24909D
:1051E0004048C06C25903F48006D26900020442226
:1051F00016A911906846FBF7DCF912A80FC8FCF756
:1052000043F81E20FCF74AF90320FBF7FBFFFCF7ED
:1052100073F99FED350AC8EE000A3448C0ED000A64
:105220009FED310AC0EE080ABCEEE00A10EE100A4B
:105230002F490880002432E0600000EE900AF8EE6A
:10524000E00A9FED2C1A60EE810A284890ED001AC2
:1052500060EE810AB0EE600AFFF780FCDFED260AFF
:1052600020EE200A254880ED000A90ED000ABDEEF0
:10527000C00A10EE100A00B26100214A22F81100A3
:105280001E4890ED000ABDEEC00A10EE100A00B2F2
:10529000012101EB440122F81100601C84B2144882
:1052A00000888442C8DB124800884FF6FF7101EA8B
:1052B000400213491348FDF79FFC284601F0EAF825
:1052C0001048FDF7BDF9002210210F48FCF728FD1A
:1052D00027B0BDEC028B30BD746F6E652025642055
:1052E0000A000000B801002000803B473000002089
:1052F00034000020D00F494000007A442C000020E8
:10530000100300200C020020000C02402DE9F041A7
:1053100005460E461C4807681C480068001D00F042
:10532000CDFE50B91948006890F82C100120884033
:1053300017490968814316480160681C38B936B1BD
:1053400012480168091D134800F06AFF1AE07C1931
:105350000E4800684460BC4207D20C480168091D31
:105360000D48006800F042FF0CE008480168091D84
:105370000A48006800F03AFF09480068844201D2F8
:1053800007480460BDE8F0815C0000204800002070
:105390006000002020050020500000204C0000206C
:1053A0007800002010B5044600F046FF244800684D
:1053B000401C234908602348006840B92148046024
:1053C0000846006801280DD100F0D8F90AE01E480F
:1053D000006838B91B480068C06AE16A884201D891
:1053E0001848046019480068401C184908600846BD
:1053F0000068606494F82C10012088401449096802
:10540000084313490860E16A01EB8101114A02EB8C
:105410008100211D00F004FF00F03AFF0A480068F7
:1054200068B108480068C06AE16A884207D24FF054
:10543000805009490860BFF34F8FBFF36F8F10BDD5
:105440005800002048000020640000207400002064
:10545000600000206C04002004ED00E010B500F0B6
:10546000EBFE10480068D0B90F4800F0AFFE0F48BF
:1054700000F0ACFE0C480E4908600C480D4908606D
:1054800000220C21052001F0BBFB064908600846FC
:10549000006820B108A10348006800F0BFFF00F0D9
:1054A000F7FE10BD900000203405002048050020C4
:1054B000880000208C000020546D72510000000014
:1054C00010B516E000F0B8FE0C48C068C468201D96
:1054D00000F0F4FD0A480068401E094908600948C8
:1054E0000068401E0749086000F0D2FE204600F028
:1054F0005FF8044800680028E4D110BD0C050020C6
:10550000580000205400002070B504460D46206C61
:1055100070B1216CE0680144E160D4E90210884276
:1055200001D32168E1602846226CE168FAF7FCFFAC
:1055300070BD2DE9F04104460F4615464FF00008B6
:10554000A66B206C48B9206800282CD1A06801F017
:105550004FFF80460020A06025E07DB93946226CCF
:105560006068FAF7E1FF216C606808446060D4E984
:105570000101884217D32068606014E03946226C2C
:10558000E068FAF7D1FF216CE068411AE160216818
:10559000E068884203D2216CA068411AE160022DC4
:1055A00001D106B1761E701CA0634046BDE8F081B3
:1055B00010B50446206B00F08BFE204600F088FEFC
:1055C00010BD00000146084A126812680AB901229B
:1055D00000E000220A600A6822B9034A1268D26811
:1055E000106800E0002070478800002030B54FF4BC
:1055F0002043174800F007042CB1C01D20F007001D
:10560000134C041B1B1B0246124C22600024114D3C
:105610006C60D018083820F007000F4C2060002480
:105620000D4D2D686C600C4D2D682C601146441A90
:105630004C60094C24680C60084D4C682C60084D87
:105640004C682C604FF00044064D2C6030BD0000CB
:105650005C0500209C000020A4000020AC0000207D
:10566000A8000020B800002000BFFFF729FF06486F
:1056700000680128F9D94FF0805004490860BFF351
:105680004F8FBFF36F8FF0E76C04002004ED00E054
:105690002DE9F04106460D4617469846069C0DB981
:1056A000246000E02760E66325640121204601F0C4
:1056B000FBFA84F84C80BDE8F0812DE9F05F82466A
:1056C0000E4690469B460A9F0C9C4FEA8801A522F5
:1056D000206BFAF7A0FFA8F10100216B01EB800914
:1056E00029F0070909F0070008B9012000E00020AF
:1056F00058B900BFA02080F31188BFF34F8FBFF3CC
:105700006F8F00BF00BF00BFFDE786B1002507E037
:10571000715D04F134004155705D00B902E06D1C0B
:10572000102DF5D300BF00214320015502E00020D9
:1057300084F83400052F00D30427E762E7640020D3
:105740002065201D00F04FFD04F1180000F04BFD16
:105750002461C7F10500A06164620020606584F8DF
:1057600058005A465146484600F0A4FB20600B986A
:1057700008B10B980460BDE8F09F000010B500244C
:1057800007E004EB84010F4A02EB810000F01EFDEC
:10579000641C052CF5D30C4800F018FD0B4800F0F4
:1057A00015FD0B4800F012FD0A4800F00FFD0A48F5
:1057B00000F00CFD044809490860044808490860E5
:1057C00010BD00006C040020D0040020E404002080
:1057D000F80400200C050020200500204C000020CB
:1057E0005000002010B50146164800E0006803682C
:1057F0008B42FBD30246436813448B4204D1436877
:105800004C682344436001460A464B6813440468CD
:10581000A34211D10C4C03682468A34208D04B6802
:105820000468646823444B6003681B680B6005E0F0
:10583000054B1B680B6001E003680B60884200D0D9
:10584000016010BD9C000020A40000202DE9F04163
:1058500004460D4616461F464FF000086560246159
:10586000B5420CD8F01BA169884202D34FF0010861
:1058700011E0211D0948006800F0B8FC0BE0BE42B1
:1058800004D2BD4202D34FF0010804E0211D0448B8
:10589000006800F0ABFC4046BDE8F0818C000020C1
:1058A0008800002070B5054600F0C6FCA86B08B95A
:1058B000012400E0002400F0EBFC204670BD70B530
:1058C000054600F0B9FCA86BE96B884201D10124C0
:1058D00000E0002400F0DCFC204670BDF8B5054671
:1058E0000F461A480068C068C468201D00F0E6FB37
:1058F00094F8280000F00400F0B1A06941192B468B
:105900003A462046FFF7A2FFE0B1002003462A46B0
:1059100001460090204601F0C9FE06465EB900BF70
:10592000A02080F31188BFF34F8FBFF36F8F00BFAC
:1059300000BF00BFFDE705E094F8280020F001005B
:1059400084F828002046216A8847F8BD8800002096
:1059500070B586B08DE003980028FBDB059C60697C
:1059600008B9012000E0002010B9201D00F0A6FBBE
:1059700002A800F0DDF8054603980A2877D2DFE890
:1059800000F00905073A426506083B4300BF00BF27
:1059900000BF00BF94F8280040F0010084F8280000
:1059A0000498A269811803462A462046FFF74EFF55
:1059B00000B32046216A884794F8280000F00400CC
:1059C000C0B1002000900498A16942180023194634
:1059D000204601F06BFE06465EB900BFA02080F3B2
:1059E0001188BFF34F8FBFF36F8F00BF00BF00BFA1
:1059F000FDE700BF3CE000BF94F8280020F0010064
:105A000084F8280034E000BF94F8280040F001003A
:105A100084F828000498A061A06908B1012000E082
:105A2000002058B900BFA02080F31188BFF34F8F2A
:105A3000BFF36F8F00BF00BF00BFFDE7A069411932
:105A40002B462A462046FFF701FF11E094F8280074
:105A500000F0020020B9204600F03AFC06E006E023
:105A600094F8280020F0010084F8280000E000BF2E
:105A700000BF002203A90448006801F0CDFA002805
:105A80007FF469AF06B070BD90000020F8B5054600
:105A90000C4600F07FFF684600F04AF80646009882
:105AA00020BB44B9B54206D801F050FD3146284626
:105AB000FFF714FF1CE03CB10E480068006808B90D
:105AC000012000E000200446A91B22460A48006885
:105AD00000F0BAFC01F03AFD50B94FF08050074990
