:020000040800F2
:1000000028AB0020E9020008F1020008F302000812
:10001000F5020008F7020008F902000800000000DD
:10002000000000000000000000000000290200089D
:10003000FD02000800000000850200089D34000851
:100040000303000803030008030300080303000878
:100050000303000803030008CD0A00080303000897
:100060000303000803030008030300080303000858
:100070000303000803030008030300080303000848
:10008000B109000803030008030300080303000884
:100090000303000803030008030300080303000828
:1000A0000303000803030008030300080303000818
:1000B0000303000803030008030300080303000808
:1000C00003030008030300080303000803030008F8
:1000D00003030008030300080303000803030008E8
:1000E00003030008030300080303000803030008D8
:1000F00003030008030300080303000803030008C8
:100100000303000803030008C135000803030008C7
:1001100003030008030300080303000803030008A7
:100120000303000803030008030300080303000897
:100130000303000803030008030300080303000887
:100140000303000803030008030300080303000877
:100150000303000803030008030300080303000867
:100160000303000803030008030300080303000857
:100170000303000803030008030300080000000055
:10018000030300080303000800F002F800F03CF845
:100190000AA090E8000C82448344AAF10107DA45E2
:1001A00001D100F031F8AFF2090EBAE80F0013F0F8
:1001B000010F18BFFB1A43F001031847C05D000090
:1001C000E05D0000103A24BF78C878C1FAD8520721
:1001D00024BF30C830C144BF04680C6070470000C1
:1001E0000023002400250026103A28BF78C1FBD840
:1001F000520728BF30C148BF0B6070471FB505F0DC
:1002000087FE1FBD10B510BD00F0E4F91146FFF7E1
:10021000F5FF03F069FC00F002FA03B4FFF7F2FF08
:1002200003BC00F005FA00002C4B19680868B0E820
:10023000F04F80F30988BFF36F8F4FF0000080F319
:10024000118870470000000008480068006880F3CB
:1002500008884FF0000080F3148862B661B6BFF3DF
:100260004F8FBFF36F8F00DF00BF00BF08ED00E0CE
:10027000DFF80C00016841F470010160704700BFB5
:1002800088ED00E0EFF30980BFF36F8F134B1A681E
:100290001EF0100F08BF20ED108A20E9F04F10600B
:1002A00009B44FF0A00080F31188BFF34F8FBFF364
:1002B0006F8F04F067FF4FF0000080F3118809BCD6
:1002C00019680868B0E8F04F1EF0100F08BFB0ECD6
:1002D000108A80F30988BFF36F8F70474C000020AD
:1002E000EFF3058070470000094880470948004740
:1002F000FEE7FEE7FEE7FEE7FEE7FEE7FEE7FEE7D6
:10030000FEE7FEE704480549054A064B7047000032
:100310005D3500088901000828A5002028AB0020D1
:1003200028A7002028A7002053EA020C00F06980CB
:100330002DE9F04B4FF00006002B1FBFB3FA83F5F9
:1003400003FA05F424FA05F65E4012BF1643B2FA2A
:1003500082F502FA05F4C5F120051EBF22FA05FC5C
:1003600044EA0C04203556EA044C4FEA144418BF02
:10037000641C4FF000084FF00009904271EB030C31
:1003800039D3002919BFB1FA81F701FA07F6B0FA9B
:1003900080F700FA07F6C7F120071EBF20FA07FC16
:1003A00046EA0C062037B6FBF4FCA7EB0507103F26
:1003B00007F01F0BCBF120060CFA0BFB2CFA06F60C
:1003C00044BFB3460026202FA4BF5E464FF0000B6B
:1003D0005BEA060C08BF4FF0010B19EB0B09ABFBF6
:1003E000027C48EB0608C01B06FB02CC0BFB03CCCF
:1003F00071EB0C01C1E70B46024641464846BDE899
:10040000F08B13B54FF000004FF00001AFF3008008
:10041000BDE81C407047032A40F2308010F0030C06
:1004200000F0158011F8013BBCF1020F624498BF47
:1004300011F801CB00F8013B38BF11F8013BA2F1E4
:10044000040298BF00F801CB38BF00F8013B11F05F
:10045000030300F02580083AC0F0088051F8043BFF
:10046000083A51F804CBA0E80810F5E7121D5CBF6C
:1004700051F8043B40F8043BAFF30080D20724BF9F
:1004800011F8013B11F801CB48BF11F8012B24BF33
:1004900000F8013B00F801CB48BF00F8012B704782
:1004A00010B5203AC0F00B80B1E81850203AA0E80F
:1004B0001850B1E81850A0E81850BFF4F5AF5FEA43
:1004C000027C24BFB1E81850A0E8185044BF18C9F6
:1004D00018C0BDE810405FEA827C24BF51F8043B9D
:1004E00040F8043B08BF7047D20728BF31F8023BF1
:1004F00048BF11F8012B28BF20F8023B48BF00F885
:10050000012B704702F0FF0343EA032242EA024252
:1005100000F037B84FF0000200B5134694469646F7
:10052000203922BFA0E80C50A0E80C50B1F1200106
:10053000BFF4F7AF090728BFA0E80C5048BF0CC0B4
:100540005DF804EB890028BF40F8042B08BF704712
:1005500048BF20F8022B11F0804F18BF00F8012B84
:10056000704770477047704710B500F02BF800686F
:1005700010BD10B5044600F025F8046010BD4FF022
:1005800000020429C0F0128010F0030C3FF4C4AF45
:10059000CCF1040CBCF1020F18BF00F8012BA8BF6E
:1005A00020F8022BA1EB0C01FFF7B6BF5FEAC17C7C
:1005B00024BF00F8012B00F8012B48BF00F8012BE5
:1005C0007047000000487047C8A4002000487047EA
:1005D000C8A400207546FFF7F9FFAE46050069463E
:1005E000534620F00700854618B020B5FFF78AFE75
:1005F000BDE820404FF000064FF000074FF0000824
:100600004FF0000B21F00701AC46ACE8C009ACE8A4
:10061000C009ACE8C009ACE8C0098D46704710B508
:100620000446AFF300802046BDE81040FFF7F5BD5B
:1006300001491820ABBEFEE726000200704700000B
:1006400010B5044634B1012C0DD0022C14D0032C6B
:1006500024D11AE0C0201A4948700846407840F07A
:10066000300048701BE080201549487008464078EB
:1006700040F03000487012E0C02011494870084630
:10068000407840F02000487009E080200C49487014
:100690000846407840F02000487000E000BF00BFEE
:1006A0000748407840F00C000549487008464078FB
:1006B00040F003004870491C042004F0A9FD10BD5F
:1006C000490000200FB410B5179C00BF00207E49E0
:1006D00081F8400000BF08460068C06940F48060AF
:1006E0000968C86101221021784800F0E1FC2A2243
:1006F00002A97748FFF7D4FEBDF832007449488557
:100700000D98C8620E98086309220FA9704834300A
:10071000FFF7C6FE9DF845006D4981F83D009DF844
:10072000460081F83E0012980864139848641498B3
:1007300088641598C8641698086501206549487052
:10074000022004F065FD8020624948700846407828
:1007500040F0200048700846407840F00C00487097
:100760000846407840F003004870491C042004F01B
:100770004FFD802057494870491C052004F048FD72
:100780005449062004F09EF85248407800F02000BA
:10079000504948700846407820F08000487008466C
:1007A000407820F0400048700846407820F0100063
:1007B00048700846407820F00400487008464078A9
:1007C00040F0040048700846407840F0030048704C
:1007D000491C062004F01CFD3E49491C082004F079
:1007E00071F83C48407800F0F0003A4948700846FB
:1007F000407840F001004870491C082004F008FDD2
:100800003449491C092004F05DF83248407800F072
:10081000F000304948700846407840F001004870C8
:10082000491C092004F0F4FC2A49491C0E2004F05C
:1008300049F8012C1AD12748407840F0800025491A
:1008400048700846407840F04000487008464078BC
:1008500020F0200048700846407820F010004870D2
:100860000846407820F00800487003E014B90220E0
:10087000184948701749491C0E2004F0C9FC154955
:10088000491C0F2004F01EF8002012494870491C32
:100890000F2004F0BDFC00200E494870491C1420B4
:1008A00004F0B6FC0B49491C152004F0B1FC0949C1
:1008B000491C1A2004F0ACFC0649491C1B2004F01A
:1008C000A7FC10BC5DF814FBD4010020000C024012
:1008D000440300204900002070B50446A4F1320012
:1008E00045B2680045B2EEB211484670411C142072
:1008F00004F08EFC0E49491C152004F089FC642C80
:1009000001DD182007E004EB44000001642190FBA6
:10091000F1F01838C0B206494870491C202004F094
:1009200077FC0349491C212004F072FC70BD0000D3
:100930004900002010B599201C494870491C00202E
:1009400004F066FC802019494870491C472004F0D7
:100950005FFC1649491C322003F0B4FF134840786D
:1009600040F0800011494870491C322004F050FCCE
:100970000E49491C322003F0A5FF0C48407820F0B6
:1009800080000A494870491C322004F041FC0020D4
:1009900006494870491C04F03BFC9E2003494870FE
:1009A000491C022004F034FC10BD00004900002066
:1009B00010B5024800F094F810BD00001C020020A1
:1009C0000146087810381823B0FBF3F20848805C21
:1009D000C865032A05D908686FF30900001D8865FA
:1009E00003E008686FF309008865886D70470000B0
:1009F0003C5F0008014600208A6A8B69CBB932B19E
:100A0000012A0DD0022A03D0032A10D10EE000BF24
:100A1000CB6A03F08073B3F1807F00D1012007E03F
:100A2000CB6AB3F1C07F00D1012001E000E000BF3C
:100A300034E08B69B3F5005F1AD132B1012A07D0D7
:100A4000022A03D0032A11D10AE000BF01200EE0E0
:100A5000CB6A03F08073B3F1807F00D1012006E000
:100A6000CB6AB3F1C07F00D1012000E000BF15E0E8
:100A700032B1012A05D0022A04D0032A0CD103E0A6
:100A800000BF00BF012008E0CB6A03F08073B3F120
:100A9000807F00D1012000E000BF00BF704730B56B
:100AA0000468246824F4802405682C60046863606A
:100AB0008468402C04D10468A2600468E16003E00B
:100AC0000468A1600468E26030BD000010B5012038
:100AD0000249086002F0D6FF10BD0000143C01403E
:100AE000F8B50446002000908C4800684FF4165179
:100AF000B0FBF1F7A56D2E6894F85C1008208840D3
:100B0000304098B12068006800F0040070B120689F
:100B1000006820F004002168086094F85C10082048
:100B20008840A860606D40F00100606594F85C103A
:100B300001208840304068B12068406900F08000A2
:100B400040B194F85C1001208840A860606D40F0CE
:100B50000200606594F85C1004208840304068B161
:100B60002068006800F0020040B194F85C10042096
:100B70008840A860606D40F00400606594F85C10E7
:100B800010208840304078B32068006800F00800EA
:100B900050B394F85C1010208840A860206800686A
:100BA00000F4802080B12068006800F4002028B99B
:100BB000206CC8B12046216C884715E0A06C98B124
:100BC0002046A16C88470FE02068006800F4807020
:100BD00028B92068006820F0080021680860206CAF
:100BE00010B12046216C884794F85C102020884082
:100BF0003040002865D02068006800F01000002810
:100C00005FD094F85C1020208840A86094F83500EC
:100C1000052828D12068006820F0160021680860A7
:100C20002068406920F0800021684861206C08B984
:100C3000A06C28B12068006820F0080021680860D6
:100C400094F85C103F208840A86000BF002084F822
:100C5000340000BF012084F83500206D10B120461B
:100C6000216D8847F8BD2068006800F4802080B1BD
:100C70002068006800F4002028B9606C10B120469C
:100C8000616C88471DE0E06BD8B12046E16B884776
:100C900017E02068006800F4807068B92068006878
:100CA00020F010002168086000BF002084F83400A4
:100CB00000BF012084F83500E06B10B12046E16BE5
:100CC0008847606D38B3606D00F00100F0B1052019
:100CD00084F835002068006820F001002168086071
:100CE00000BF0098401C0090B84200D905E0206881
:100CF000006800F001000028F3D100BF00BF002011
:100D000084F8340000BF012084F83500E06C10B195
:100D10002046E16C884700BFA4E70000D80000200F
:100D20002DE9F0410446002500F0C8F9074614B942
:100D30000120BDE8F081606A00B100BF00BF002063
:100D400084F8340000BF022084F835002068006871
:100D500020F00100216808600AE000F0AFF9C01B34
:100D6000052805D920206065032084F83500E0E7D8
:100D70002068006800F001000028EED120680568B6
:100D800021480540D4E901010843E168084321698D
:100D9000084361690843A1690843E1690843216A7E
:100DA00008430543606A042803D1D4E90B010843D2
:100DB0000543206805602068456925F00705606ADD
:100DC0000543606A04280DD1A06A0543E06A48B172
:100DD0002046FFF70FFE28B140206065012084F80F
:100DE0003500A6E7206845612046FFF7E9FD064685
:100DF00094F85C103F208840B060002060650120BE
:100E000084F83500002094E73F8010F02DE9F0478A
:100E100004460D4616461F464FF00008D4F8589079
:100E200000BF94F83400012802D10220BDE8F08709
:100E3000012084F8340000BF94F83500012825D142
:100E4000022084F83500002060653B463246294682
:100E50002046FFF724FE94F85C103F208840C9F834
:100E600008002068006840F0160021680860206CC7
:100E700028B12068006840F00800216808602068F8
:100E8000006840F001002168086006E000BF002013
:100E900084F8340000BF4FF002084046C6E7000067
:100EA000F8B502460B460025002400200021DCE0B6
:100EB000012606FA01F51E6806EA0504AC4273D164
:100EC0005E68012E08D05E68022E05D05E68112E85
:100ED00002D05E68122E13D190684F000326BE40E8
:100EE000B0434F00DE68BE4030439060506801263A
:100EF0008E40B0431E79C6F300168E4030435060DA
:100F0000D0684F000326BE40B0434F009E68BE40ED
:100F10003043D0605E68022E02D05E68122E13D17C
:100F2000CF0802F1200656F827004E07F70E0F26CD
:100F3000BE40B0434F07FF0E1E69BE403043CF088E
:100F400002F1200646F8270010684F000326BE4035
:100F5000B0431E7906F003064F00BE4030431060D8
:100F60005E6806F08056B6F1805F7DD100BF002636
:100F70000096404E366846F480463E4F3E603E4600
:100F8000366806F48046009600BF00BF3A4E8F08D0
:100F900056F827008E07370F0F26BE40B043374E56
:100FA000B24202D1002624E05EE0354EB24201D1C9
:100FB00001261EE0334EB24201D1022619E0324E24
:100FC000B24201D1032614E0304EB24201D10426D0
:100FD0000FE02F4EB24201D105260AE02D4EB2425B
:100FE00001D1062605E02C4EB24201D1072600E0D1
:100FF00008268F073F0FBE4030431F4E8F0846F82C
:101000002700264E3068A0435E6806F48036B6F5A9
:10101000803F00D12043214E3060361D3068A04310
:101020005E6806F40036B6F5003F00D120431B4E43
:10103000361D3060361D3068A0435E6806F48016A9
:10104000B6F5801F00D12043144E08363060361D9F
:101050003068A0435E6806F40016B6F5001F00D1A4
:1010600020430E4E0C363060491C1029FFF420AF8F
:10107000F8BD00004438024008380140000002403A
:101080000004024000080240000C02400010024030
:101090000014024000180240001C0240003C0140C5
:1010A000024613690B400BB1012000E0002070479D
:1010B0000AB1816101E00B04836170470148006857
:1010C00070470000CC00002070B504460CB9012028
:1010D00070BD94F83D0028B9002084F83C002046FB
:1010E00000F00EFB242084F83D002068006820F00A
:1010F0000100216808602068006840F40040216811
:1011000008602068006820F400402168086001F051
:10111000FFF805465C496068884206D85B4885420E
:1011200001D2012007E0002005E05948854201D2A4
:10113000012000E00020012800D1C9E75548B5FB97
:10114000F0F62068406820F03F0030432168486096
:101150004D496068884201D8701C07E04FF49670D2
:1011600070434FF47A71B0FBF1F0401C2168096ABA
:1011700021F03F01084321680862434960688842C2
:1011800014D8681E61684900B0FBF1F0401CC0F340
:101190000B00042801D204203DE0681E616849006C
:1011A000B0FBF1F0401CC0F30B0034E0A06838B98C
:1011B000681E616801EB4101B0FBF1F0401C0AE0E0
:1011C000681E616801EBC10202EB0111B0FBF1F096
:1011D000401C40F48040C0F30B0008B901201AE025
:1011E000A06848B9681E616801EB4101B0FBF1F0ED
:1011F000401CC0F30B000CE0681E616801EBC102EB
:1012000002EB0111B0FBF1F0401CC0F30B0040F405
:10121000804040F400402168C9694CF6FF72914358
:1012200008432168C861D4E90701084321680968B7
:1012300021F0C001084321680860D4E90310084385
:101240002168896848F2FF32914308432168886029
:10125000D4E9050108432168C96821F0FF0108436A
:101260002168C8602068006840F0010021680860BB
:1012700000202064202084F83D000020206384F8B2
:101280003E0000BF24E70000A086010080841E000D
:1012900000093D0040420F002DE9F843044689460D
:1012A00017469846089EFFF709FF054694F83D004B
:1012B00020287DD119230122B2492046009501F052
:1012C00085FD10B10220BDE8F88300BF94F83C0012
:1012D000012801D10220F6E7012084F83C0000BF7C
:1012E0002068006800F0010028B92068006840F01C
:1012F0000100216808602068006820F4006021680F
:101300000860222084F83D00102084F83E00002070
:1013100020646762A4F82A80608D20859A48E06284
:101320002B4632464946204601F026FC08B10120F2
:10133000C9E7208D88B900BF00200090206840696F
:10134000009020688069009000BF00BF206800689E
:1013500040F400702168086047E0208D012817D113
:101360002068006820F480602168086000BF0020C9
:10137000009020684069009020688069009000BF5C
:1013800000BF2068006840F40070216808602CE00D
:10139000208D022818D12068006820F48060216820
:1013A00008602068006840F400602168086000E080
:1013B000E6E000BF002000902068406900902068AF
:1013C0008069009000BF10E02068006840F48060F1
:1013D0002168086000BF00200090206840690090EC
:1013E00020688069009000BF00BFBAE0208D03280C
:1013F0007ED8208D012815D12A463146204601F09D
:101400008AFD08B101205EE720680069616A087002
:10141000606A401C6062208D401E2085608D401EE9
:1014200060859EE0208D02282AD13346002257494C
:101430002046009501F0CAFC08B1012043E720686E
:10144000006840F400702168086020680069616AE3
:101450000870606A401C6062208D401E2085608D8F
:10146000401E608520680069616A0870606A401CDF
:101470006062208D401E2085608D401E608570E07A
:101480003346002241492046009501F09FFC08B1F7
:10149000012018E72068006820F480602168086057
:1014A00020680069616A0870606A401C6062208D73
:1014B000401E2085608D401E6085334600223349E2
:1014C0002046009501F082FC08B10120FBE620686F
:1014D000006840F400702168086020680069616A53
:1014E0000870606A401C6062208D401E208500E00C
:1014F00010E0608D401E608520680069616A087098
:10150000606A401C6062208D401E2085608D401EF8
:10151000608526E02A463146204601F0FCFC08B1F1
:101520000120D0E620680069616A0870606A401C8A
:101530006062208D401E2085608D401E6085206881
:101540004069C0F3800060B120680069616A08707A
:10155000606A401C6062208D401E2085608D401EA8
:101560006085208D00287FF441AF202084F83D0065
:10157000002084F83E0000BF84F83C0000BFA2E6D3
:101580000220A0E6020010000000FFFF040001009E
:101590002DE9F8430446894616461F46DDF82080AB
:1015A000FFF78CFD054694F83D0020287ED11923D5
:1015B000012251492046009501F008FC10B102209B
:1015C000BDE8F88300BF94F83C00012801D1022057
:1015D000F6E7012084F83C0000BF2068006800F0B6
:1015E000010028B92068006840F001002168086007
:1015F0002068006820F4006021680860212084F8D9
:101600003D00102084F83E0000202064666267855B
:10161000608D20853948E0622B4642464946204687
:1016200001F046FB08B10120CAE700BF002000908E
:1016300020684069009020688069009000BF00BF6A
:1016400044E02A464146204601F0A5FC50B1206CFA
:10165000042805D12068006840F400702168086003
:101660000120ADE7606A007821680861606A401C6B
:101670006062608D401E6085208D401E2085206840
:101680004069C0F3800070B1208D60B1606A00785D
:1016900021680861606A401C6062608D401E608540
:1016A000208D401E20852A46414600E022E020464B
:1016B00001F05EFB50B1206C042805D12068006861
:1016C00040F4007021680860012079E7208D00282F
:1016D000B7D12068006840F40070216808602020BD
:1016E00084F83D00002084F83E0000BF84F83C00F0
:1016F00000BF65E7022063E7020010000000FFFF63
:1017000010B586B00446142101A8FEF703FF1B495B
:101710002068884230D100BF00200090184800683F
:1017200040F00200164908600846006800F0020018
:10173000009000BF00BF4FF4107001901220029083
:1017400000200390032004900420059001A90D4877
:10175000FFF7A6FB00BF002000900948103000688A
:1017600040F400100649103108600846006800F493
:101770000010009000BF00BF06B010BD0054004034
:10178000303802400004024010B586B0044620689C
:10179000806805908B492068884201D18A4801E021
:1017A0004FF040208068049020684068039085498D
:1017B0002068884201D1844801E04FF04020406811
:1017C00002906068B0F5007F02D0606800286FD199
:1017D000059800F00200022806D1039800F080006E
:1017E00010B1204601F058FC049800F0010030B11F
:1017F000029800F0400010B1204601F017FC049858
:1018000000F04000402832D1029800F0200070B370
:101810006C492068884201D16B4801E04FF04020BC
:10182000406820F06000674A2168914201D1664912
:1018300001E04FF0402148602068406820F0A0009F
:101840002168486000BF002001902068C0680190B6
:1018500020688068019000BF00BF012084F841002B
:10186000606C40F002006064204600F0B0F805981B
:1018700000F00800082831D1039800F0200000286B
:101880002CD02068406820F0A000216848604D49B5
:101890002068884201D14C4801E04FF04020406868
:1018A00020F06000474A2168914202D1464902E097
:1018B00015E04FF04021486000BF002001902068F3
:1018C0008068019000BF00BF012084F84100606C77
:1018D00040F004006064204600F079F870E004985D
:1018E00000F00200022806D1029800F0800010B13A
:1018F000204601F0EDFB059800F0010030B103989F
:1019000000F0400010B1204601F073FB059800F094
:101910004000402827D1039800F0200018B3206829
:10192000406820F0600021684860264920688842AD
:1019300001D1254801E04FF04020406820F0A00090
:10194000204A2168914201D11F4901E04FF0402116
:101950004860012084F84100606C40F0020060643F
:10196000204600F034F8049800F00800082827D139
:10197000029800F0200018B312492068884201D173
:10198000114801E04FF04020406820F0A0000D4ACF
:101990002168914201D10C4901E04FF0402148609B
:1019A0002068406820F0600021684860012084F8C9
:1019B0004100606C40F004006064204600F007F8CD
:1019C00006B010BD0038004000340040704770473A
:1019D0002DE9F047044614B90120BDE8F08794F8DA
:1019E000410038B9002084F8400065486063204613
:1019F00000F0CEF8022084F841002068C06940F66B
:101A0000BF7188432168C86102202168086260694B
:101A100002283CD0E06808B9102600E02026A06823
:101A2000202800D87600012000F092FA8046206934
:101A3000B0F5007F17D1E06850B1B000B8FBF0F00E
:101A400000EB800041006069B1FBF0F0451D13E040
:101A5000F000B8FBF0F000EB800041006069B1FBE2
:101A6000F0F0451D08E0B8FBF6F000EB8000410007
:101A70006069B1FBF0F0451D0A20B5FBF0F505F0FB
:101A80000109A5EB090047084FEA092902E00227EE
:101A90004FF00009022F01D3FF2F05D9606C40F0F1
:101AA00010006064012098E7206940EA090038438B
:101AB00021680862606840F40060A1680843E1683A
:101AC0000843A16908432168C96940F6BF72914380
:101AD00008432168C861206A01284AD12948606307
:101AE00029492068884201D1284801E04FF0402070
:101AF000C06940F6BF718843234A2168914201D1F1
:101B0000224901E04FF04021C86102201E4A2168AD
:101B1000914201D11D4901E04FF0402108621A496C
:101B20002068884201D1194801E04FF04020C06987
:101B30001FFA80FA6068B0F5007F01D0606810B9C4
:101B40004FF4807500E00025A089218B084321898E
:101B50000843284380B240F4006040EA0A0A0A4978
:101B60002068884201D1094801E04FF04020C0F8C8
:101B70001CA000206064012084F8410000202CE7B4
:101B8000A1310008891700080038004000340040E7
:101B900010B586B00446142101A8FEF7BBFC3A49F3
:101BA000206888426ED100BF00200090374800684E
:101BB00040F40040354908600846006800F40040E1
:101BC000009000BF00BF00BF002000902F481038D9
:101BD000006840F001002D4910390860084600688F
:101BE00000F00100009000BF00BF00BF0020009087
:101BF0000846006840F0040008600846006800F0ED
:101C00000400009000BF00BF10200190022002904D
:101C10000020039004900620059001A91C48FFF7BE
:101C20003FF94FF4A450019002200290002003904D
:101C300004900620059001A91648FFF731F91648CF
:101C40001649086000204860402114488160002146
:101C5000C1604FF480610161490041618900816187
:101C60004911C161002101620421416203218162A5
:101C70000021C1620163FFF753F800BF0748A0636A
:101C8000846300BF06B010BD003C004040380240F5
:101C90000000024000080240886002401C02002050
:101CA000704700002DE9F04104460E46154606B186
:101CB00015B90120BDE8F08100BF94F8400001286B
:101CC00001D10220F6E7012084F8400000BF94F81B
:101CD0004100012806D000BF002084F8400000BF6A
:101CE0000220E7E7032084F8410000206064666278
:101CF0002068C06900F00707032F01D0052F0AD123
:101D00004FF6FF7000EA450020854FF6FF7000EAAD
:101D10004500608501E0258565851F48A16B086445
:101D20001E48A16BC8631E48A16BC864238DD4F8FC
:101D300000C00CF10C02616AA06BFFF767F868B194
:101D4000606C40F008006064012084F8410000BF2E
:101D5000002084F8400000BF0120ABE72068C06984
:101D600000F4806028B92068C06940F48060216870
:101D7000C8612068406800F0020028B92068406807
:101D800040F002002168486000BF002084F8400055
:101D900000BF00BF8EE70000933100086B310008E0
:101DA0003D310008704770470348006803490978CF
:101DB0000844014908607047CC000020D40000208E
:101DC00010B50A48006840F40070084908600846E9
:101DD000006840F480600860032000F0A5F80F2040
:101DE00000F006F800F02AF8002010BD003C024088
:101DF00070B504460E4800784FF47A71B1FBF0F0EC
:101E00000C490968B1FBF0F5284600F02DFD08B13A
:101E1000012070BD102C07D200222146501E00F078
:101E200045F80548046001E00120F2E70020F0E7F2
:101E3000D4000020D8000020D000002008B500BF4A
:101E4000002000900E48006840F480400C49086073
:101E50000846006800F48040009000BF00BF00BF4B
:101E600000200090081F006840F08050091F0860A3
:101E70000846006800F08050009000BF00BF08BD19
:101E8000443802400146084600280DDB00BF00BF71
:101E900000F01F0301229A4043099B0003F1E02355
:101EA000C3F8002100BF00BF00BF70472DE9F05FFD
:101EB00080460D461646002701F01AFC07463946B3
:101EC0002A46334601F00700C0F1070ABAF1040FB1
:101ED00002D94FF0040A01E0C0F1070AD14600F12F
:101EE000040ABAF1070F02D24FF0000A01E0A0F194
:101EF000030AD4464FF0010A0AFA09FAAAF1010AC4
:101F00000AEA020A0AFA0CFA4FF0010B0BFA0CFB70
:101F1000ABF1010B0BEA030B4AEA0B0421464046E6
:101F200001F0EEFBBDE8F09F00BF00F00702064B9A
:101F300019684FF6FF031940044B0B4343EA022193
:101F4000014B196000BF70470CED00E00000FA057E
:101F500070B501460020002200230024012934D15D
:101F60001B4D2D6805F400031BB1012B29D1194825
:101F700029E0174D2D1F2D6805F48005B5F5800F5C
:101F800008D1134D2D1F2D6805F03F05124EB6FBED
:101F9000F5F207E00E4D2D1F2D6805F03F050F4EA1
:101FA000B6FBF5F20A4D7C352D68C5F3881505FBA7
:101FB00002F4074D7C352D68C5F30275B4FBF5F0CE
:101FC00001E0002000BF00BF00BF00BF70BD0000E7
:101FD000083802400080BB0000127A000024F400A0
:101FE000F8B5044600250026207800F0010020B94D
:101FF000207800F0040004282FD100205B49886677
:10200000FFF75CF8054606E0FFF758F8401B02288A
:1020100001D90320F8BD56480068C0F3C06000280D
:10202000F2D160688101207A41EA00705049843120
:10203000086001204D498866FFF740F8054606E034
:10204000FFF73CF8401B022801D90320E2E748488B
:102050000068C0F3C0600028F2D0207800F00200D1
:1020600002287DD100BF0020009041484030006828
:1020700040F080503E49403108600846006800F05A
:102080008050009000BF00BF3A48006840F4807064
:1020900038490860FFF712F8054606E0FFF70EF82A
:1020A000401B022801D90320B4E73248006800F43D
:1020B00080700028F2D02E487030006800F440761E
:1020C0004EB3A08900F44070B04224D0284870304C
:1020D000006820F44076012027490860002008604D
:1020E000234870300660006800F0010098B1FEF7E8
:1020F000E5FF054608E0FEF7E1FF401B41F28831AD
:10210000884201D9032085E7194870300068C0F380
:1021100040000028EFD000BFA08900F44070B0F567
:10212000407F0CD112480830006820F4F810134AA0
:10213000E168114008430E490831086007E00C4887
:102140000830006820F4F810094908310860084890
:1021500070300068A189C1F30B010843044900E015
:1021600002E07031086000BF002053E700004742E2
:102170000038024000700040400E4742FFFCFF0F55
:1021800070B504460D460CB9012070BD5848006872
:1021900000F00F00A84209D255490D7008460068AA
:1021A00000F00F00A84201D00120EEE7207800F0F7
:1021B000020002281DD1207800F00400042805D177
:1021C0004C48006840F4E0504A490860207800F02C
:1021D0000800082805D14748006840F46040454998
:1021E00008604448006820F0F000A16808434149B5
:1021F0000860207800F00100A8B36068012807D1CA
:102200003C4808380068C0F34040B8B90120BCE73A
:102210006068022802D06068032807D13548083872
:102220000068C0F3406048B90120AEE73148083883
:102230000068C0F3400008B90120A6E72D480068F7
:1022400020F00300616808432A490860FEF736FF62
:10225000064609E0FEF732FF801B41F288318842D2
:1022600002D9032091E707E02248006800F00C0043
:102270006168B0EB810FEDD11D48006800F00F00E0
:10228000A84209D91A490D700846006800F00F00ED
:10229000A84201D0012078E7207800F0040004284B
:1022A00007D11448006820F4E050E1680843114960
:1022B0000860207800F00800082808D10D48006860
:1022C00020F46040216940EAC1000A49086000F03A
:1022D0002FF808490968C1F30311074A515CC84047
:1022E0000649086006480068FFF782FD00204CE7B9
:1022F000003C024008380240445F0008D80000203B
:10230000D00000200148006870470000D80000207D
:1023100000B5FFF7F7FF04490968C1F38221034ABA
:10232000515CC84000BD000008380240545F0008FE
:102330002DE9F047002400250026A1462548006825
:1023400000F00C0020B1042805D008283AD105E09F
:10235000DFF8849039E0DFF8849036E01D48001FF4
:10236000006800F03F041B48001F006800F4800074
:1023700078B11A481749091F0968C1F38811A0FBF1
:1023800001700146224600233846FDF7CDFF054681
:102390000EE011480F49091F0968C1F38811A0FB1D
:1023A00001700146224600233846FDF7BDFF054671
:1023B0000848001F0068C0F30140401C4600B5FB00
:1023C000F6F902E0DFF8109000BF00BF4846BDE814
:1023D000F0870000083802400024F40000127A0060
:1023E000F8B504460CB90120F8BD207800F00100D2
:1023F000002874D0F948006800F00C0004280DD0C3
:10240000F648006800F00C00082813D1F348001FBC
:10241000006800F48000B0F5800F0BD1EF48083859
:102420000068C0F34040002859D06068002856D1A9
:102430000120D9E700BF6068B0F5803F08D1E748C8
:102440000838006840F48030E449083908601EE02C
:102450006068B0F5A02F0DD1E0480838006840F45E
:102460008020DE49083908600846006840F4803062
:1024700008600CE0D9480838006820F48030D7495B
:10248000083908600846006820F48020086000BF12
:10249000606890B1FEF712FE054606E0FEF70EFEFC
:1024A000401B642801D903209EE7CC480838006807
:1024B000C0F340400028F1D011E0FEF7FFFD0546D3
:1024C00006E0FEF7FBFD401B642801D903208BE7E3
:1024D000C24808380068C0F340400028F1D1207895
:1024E00000F0020002285FD1BC48006800F00C0038
:1024F00058B1BA48006800F00C0008281CD1B74851
:10250000001F006800F48000B0B9B44808380068C3
:10251000C0F3400020B1E068012801D0012063E74A
:10252000AE480838006820F0F800216940EAC10090
:10253000AA490839086037E0E06800B30120A849DB
:102540000860FEF7BBFD054606E0FEF7B7FD401B41
:10255000022801D9032047E7A04808380068C0F3E3
:1025600040000028F1D09D480838006820F0F800AD
:10257000216940EAC10099490839086014E0002047
:1025800097490860FEF79AFD054606E0FEF796FDBE
:10259000401B022801D9032026E79048083800682C
:1025A000C0F340000028F1D1207800F0080008288E
:1025B0002CD16069A8B101208A490860FEF77EFD30
:1025C000054606E0FEF77AFD401B022801D90320EC
:1025D0000AE782486C300068C0F340000028F1D060
:1025E00014E000207F490860FEF768FD054606E01C
:1025F000FEF764FD401B022801D90320F4E677486A
:102600006C300068C0F340000028F1D1207800F061
:102610000400042870D1002770483830006800F0AA
:10262000805090B900BF002000906C48383000689E
:1026300040F080506949383108600846006800F071
:102640008050009000BF00BF01276748006800F479
:102650008070B0B96448006840F4807062490860D6
:10266000FEF72CFD054606E0FEF728FD401B02287C
:1026700001D90320B8E65C48006800F480700028A7
:10268000F2D000BFA068012808D154486830006823
:1026900040F001005149683108601DE0A06805283C
:1026A0000DD14E486830006840F004004B49683155
:1026B00008600846006840F0010008600CE04748E8
:1026C0006830006820F0010044496831086008461D
:1026D000006820F00400086000BFA068A8B1FEF701
:1026E000EDFC054609E0FEF7E9FC401B41F28831AC
:1026F000884202D9032077E626E03848683000682F
:10270000C0F340000028EED013E0FEF7D7FC0546EA
:1027100008E0FEF7D3FC401B41F28831884201D922
:10272000032061E62D4868300068C0F340000028AF
:10273000EFD1012F07D129483830006820F08050B0
:1027400026493831086000BFA069002845D02348D9
:10275000006800F00C0008285DD0A069022845D16F
:1027600000201F490866FEF7A9FC054606E0FEF7B3
:10277000A5FC401B022801D9032035E6174808387C
:102780000068C0F340600028F1D1D4E90701084394
:10279000616A40EA81110122A06AC2EB500041EA5D
:1027A00000412C20005D41EA00600C49091F0860CF
:1027B00001200B490866FEF781FC054606E0FEF79E
:1027C0007DFC401B022801D903200DE60348083890
:1027D0000068C0F340600028F1D03FE008380240B4
:1027E00000004742800E47420070004000201C4914
:1027F0000866FEF763FC054606E0FEF75FFC401B3B
:10280000022801D90320EFE516480068C0F34060B4
:102810000028F2D122E0A069012800D1E4E51148A6
:10282000001D066806F48001E069814214D106F0BB
:102830003F01206A81420FD147F6C0703040616A83
:10284000884209D106F44031A06A814204D106F0E1
:102850007061E06A814201D00120C5E50020C3E536
:10286000000047420038024070B504462546681E05
:10287000B0F1807F01D301200FE0681E4FF0E0210E
:1028800048610F214FF0FF3000F03AFF00204FF079
:10289000E021886107200861002070BD7047704703
:1028A00010B504460CB9012010BD94F83D0028B9BC
:1028B000002084F83C00204600F00CF8022084F848
:1028C0003D00211D206800F093FE012084F83D00AA
:1028D0000020E9E770470146022081F83D000868C2
:1028E000806800F00702062A05D00868006840F0FA
:1028F00001000B681860012081F83D00002070473E
:1029000001460868C06840F001000B68D86008689C
:10291000806800F00702062A05D00868006840F0C9
:1029200001000B681860002070470146022081F802
:102930003D0000BF0868006A41F21112104050B912
:102940000868006A9210104028B90868006820F0F2
:1029500001000A68106000BF012081F83D000020DE
:10296000704701460868C06820F001000A68D0601E
:1029700000BF0868006A41F21112104050B908689F
:10298000006A9210104028B90868006820F0010021
:102990000A68106000BF00207047704710B50446F9
:1029A00020680069C0F34000D8B12068C068C0F357
:1029B0004000B0B16FF0020021680861012020776B
:1029C0002068806900F0030018B12046FFF7E5FF9A
:1029D00005E0204600F0ADF8204600F0ABF80020FE
:1029E000207720680069C0F38000D8B12068C068F3
:1029F000C0F38000B0B16FF00400216808610220CC
:102A000020772068806900F4407018B12046FFF7F5
:102A1000C4FF05E0204600F08CF8204600F08AF85C
:102A20000020207720680069C0F3C000D8B120687A
:102A3000C068C0F3C000B0B16FF008002168086141
:102A4000042020772068C06900F0030018B12046F8
:102A5000FFF7A3FF05E0204600F06BF8204600F0EA
:102A600069F80020207720680069C0F30010D8B111
:102A70002068C068C0F30010B0B16FF0100021688A
:102A80000861082020772068C06900F4407018B100
:102A90002046FFF782FF05E0204600F04AF8204676
:102AA00000F048F8002020772068006900F001005D
:102AB00058B12068C06800F0010030B16FF001002B
:102AC00021680861204600F036F820680069C0F3EC
:102AD000C01058B12068C068C0F3C01030B16FF0AA
:102AE0008000216808612046FFF7D8FE2068006951
:102AF000C0F3801058B12068C068C0F3801030B1B6
:102B00006FF0400021680861204600F015F8206849
:102B10000069C0F3401058B12068C068C0F340108D
:102B200030B16FF02000216808612046FFF7B7FE42
:102B300010BD70477047704770470146086840698C
:102B4000C0F38020B0B16FF480600A68506100204B
:102B50000863202081F83D00002081F83E00086CC9
:102B600040F00400086400BF002081F83C0000BF72
:102B7000012070470020FCE72DE9F84304460D468C
:102B800090461E46E76A2068006840F4806021682D
:102B90000860082F04D0012F02D017F5803F06D11E
:102BA0002068006840F480702168086008E0206BAD
:102BB000112805D12068006840F480702168086001
:102BC000434600224FF001112046009600F0FEF827
:102BD00060B12068006800F48070B0F5807F02D199
:102BE0004FF4007020640320BDE8F8832069B0F53D
:102BF000804F05D1E8B240F001002168086149E04A
:102C000005F44070F02141EAE01021680861334684
:102C100042462649204600F01CF908B10120E3E7AE
:102C2000E8B221680861334642462049891F2046A0
:102C300000F00FF908B10120D6E700BF0020009096
:102C400020684069009020688069009000BF00BF44
:102C50002068006840F480702168086043460022C4
:102C60004FF001112046009600F0B0F858B12068EE
:102C7000006800F48070B0F5807F02D14FF40070DE
:102C800020640320B0E705F44070F12141EAE01030
:102C900021680861334642460449891F204600F0F6
:102CA000D8F808B101209FE700209DE70800010047
:102CB0002DE9F84304460D4617469846E66A082E65
:102CC00004D0012E02D016F5803F06D1206800689E
:102CD00040F480702168086008E0206B122805D15C
:102CE0002068006840F48070216808603B4600223C
:102CF0004FF001112046CDF8008000F067F860B178
:102D00002068006800F48070B0F5807F02D14FF435
:102D1000007020640320BDE8F8832069B0F5804F7F
:102D200004D105F0FE002168086112E005F440704E
:102D3000F02141EAE0102168086143463A460B4918
:102D4000204600F086F808B10120E4E7E8B22168E7
:102D5000086143463A460549891F204600F079F844
:102D600008B10120D7E70020D5E7000008000100E6
:102D700070B504460D46164620E02046FFF7DDFEFE
:102D800008B1012070BD681CC0B1FEF797F9801B27
:102D9000A84200D895B900202063202084F83D0087
:102DA000002084F83E00206C40F02000206400BF2A
:102DB000002084F83C0000BF0120E3E72068406960
:102DC000C0F380000028D8D00020DBE72DE9F041D7
:102DD00004460D4617461E46DDF818801CE0701CA0
:102DE000D0B1FEF76BF9A0EB0800B04200D89EB955
:102DF00000202063202084F83D00002084F83E005D
:102E0000206C40F02000206400BF002084F83C00CB
:102E100000BF0120BDE8F081C5F3074001280AD1B9
:102E200020684069A9B20840A9B2884201D10120B6
:102E30000BE0002009E020688069A9B20840A9B22F
:102E4000884201D1012000E00020B842C7D0002014
:102E5000E0E72DE9F04104460D4616461F463DE0E9
:102E600020684069C0F38020E8B12068006840F421
:102E70000070216808606FF480602168486100205C
:102E80002063202084F83D00002084F83E00206C60
:102E900040F00400206400BF002084F83C0000BF24
:102EA0000120BDE8F081701CC0B1FEF707F9C01B1E
:102EB000B04200D896B900202063202084F83D005D
:102EC000002084F83E00206C40F02000206400BF09
:102ED000002084F83C0000BF0120E2E7C5F3074072
:102EE00001280AD120684069A9B20840A9B28842E5
:102EF00001D101200BE0002009E020688069A9B21F
:102F00000840A9B2884201D1012000E00020002839
:102F1000A6D00020C5E770B504460D46164632E03F
:102F200020684069C0F30010A0B16FF01000216864
:102F3000486100202063202084F83D00002084F8B0
:102F40003E00206C206400BF002084F83C0000BFDD
:102F5000012070BDFEF7B2F8801BA84200D895B9D9
:102F600000202063202084F83D00002084F83E00EB
:102F7000206C40F02000206400BF002084F83C005A
:102F800000BF0120E5E720684069C0F380100028F9
:102F9000C6D00020DDE770B504460D46164620E099
:102FA0002046FFF7CAFD08B1012070BD681CC0B102
:102FB000FEF784F8801BA84200D895B90020206352
:102FC000202084F83D00002084F83E00206C40F072
:102FD0002000206400BF002084F83C0000BF0120D6
:102FE000E3E720684069C0F3C0100028D8D0002073
:102FF000DBE710B504462068C06881B2E26A901C25
:10300000E0621180608E401E6086608E68B9206824
:10301000406820F0600021684860608D28B9012078
:1030200084F841002046FEF7D1FC10BD10B50446DF
:1030300017492068884201D1164801E04FF040202E
:10304000C06881B2E26A901CE0621180608E401E0E
:103050006086608ED8B90E492068884201D10D483B
:1030600001E04FF04020406820F06000084A2168ED
:10307000914201D1074901E04FF040214860608D45
:1030800028B9012084F841002046FEF79FFC10BDBE
:10309000003800400034004010B50446616A881CC6
:1030A000606208882168C860608D401E6085608D00
:1030B00068B92068406820F0A00021684860608EF0
:1030C00028B9012084F841002046FEF77FFC10BD9E
:1030D00010B50446616A881C60620888154A216838
:1030E000914201D1144901E04FF04021C860608D48
:1030F000401E6085608DD8B90E492068884201D194
:103100000D4801E04FF04020406820F0A000094A3F
:103110002168914201D1084901E04FF04021486007
:10312000608E28B9012084F841002046FEF74EFC4D
:1031300010BD0000003800400034004070B5054666
:10314000AC6B2068406820F00300216848600020D4
:1031500060856086012084F84100606C40F00800C2
:1031600060642046FEF733FC70BD70B50546AC6B5D
:10317000E86950B92068406820F002002168486082
:1031800000206085012084F841002046FEF70AFEF9
:1031900070BD70B50446A56B2846FEF704FE70BDF1
:1031A0001CB5044620688068019094F8410004280A
:1031B00030D1019800F0010038B120684068C0F3B8
:1031C000801010B1204600F059F8019800F040003E
:1031D00040281FD120684068C0F34010D0B120685B
:1031E000406820F060002168486000BF0020009027
:1031F0002068C068009020688068009000BF00BF11
:10320000012084F84100606C40F0020060642046B8
:10321000FEF7DDFB94F8410003282ED1019800F061
:103220000200022807D120684068C0F3C01010B126
:10323000204600F03EF8019800F0080008281CD154
:1032400020684068C0F34010B8B12068406820F0A2
:10325000A0002168486000BF0020009020688068BE
:10326000009000BF00BF012084F84100606C40F076
:10327000040060642046FEF7AAFB1CBD10B504469E
:103280002068C068E16A0880E06A801CE062608EA5
:10329000401E6086608E58B92068406820F060004B
:1032A00021684860012084F841002046FEF7F8FCC0
:1032B00010BD10B50446606A00882168C860606A65
:1032C000801C6062608D401E6085608D58B92068EA
:1032D000406820F0A00021684860012084F8410087
:1032E0002046FEF75FFD10BD08B500BF002000902E
:1032F0001048006840F001000E4908600846006868
:1033000000F00100009000BF00BF01200A490860E2
:103310000A484860022088600020C8600848FDF71D
:10332000BFFD00220A210620FEF7C0FD0620FEF7A1
:10333000A9FD08BD30380240DC000020000011105B
:103340000000024008B500BF002000900A48006855
:1033500040F40010084908600846006800F40010B6
:10336000009000BF00BF002205211020FEF79EFD47
:103370001020FEF787FD08BD3038024000B587B049
:1033800000BF002001902748006840F00100254957
:1033900008600846006800F00100019000BF00BF0F
:1033A00000BF002001900846006840F00800086057
:1033B0000846006800F00800019000BF00BF00BF91
:1033C000002001900846006840F0040008600846AC
:1033D000006800F00400019000BF00BF00BF0020A3
:1033E00001900846006840F0020008600846006846
:1033F00000F00200019000BF00BF00224FF2100158
:103400000948FDF755FE4FF210000290012003908D
:1034100000200490059002A90348FDF741FD07B084
:1034200000BD000030380240000C024010B50A48D0
:103430000A4908600A484860002108488160C16064
:103440004FF480410161002141618161C1610162EC
:10345000FDF73AFE10BD000000540040800100203E
:10346000A086010010B50B480B4908604015486064
:10347000002109488160C1604FF4007101614BF681
:103480008031416100218161C1610162FEF7A0FAD2
:1034900010BD0000003C0040D401002010B5FEF734
:1034A00083FC02F0DBFA012801D001F07FFF10BDA0
:1034B00000B597B000BF002001902648006840F09A
:1034C0008050244908600846006800F08050019050
:1034D00000BF00BF00BF002001901F48006840F4FB
:1034E00080401D4908600846006800F48040019053
:1034F00000BF00BF012006900004079002200C903E
:1035000041050D9108210E914FF4A8710F910221F0
:1035100010910721119106A8FEF762FF0F2012906B
:1035200002201390002014904FF4A05015904FF4F7
:1035300080501690052112A8FEF722FE012002906D
:10354000642003900221049102A8FEF749FD17B000
:1035500000BD000040380240007000401448006880
:1035600040F47000124908601248006840F0010001
:103570001049086000200F49083108600D480068B4
:103580000D4908400B4908600C48091D0860081FD8
:10359000006820F48020091F0860002005490C31D4
:1035A00008604FF0006002498039086070470000F1
:1035B00088ED00E000380240FFFFF6FE10300024E6
:1035C00010B50948FFF7EAF9074800680069C0F339
:1035D000400010B10120054908706FF00100024958
:1035E0000968086110BD00003001002003000020C0
:1035F00010B50268294B98420ED0B0F1804F0BD025
:10360000274B984208D0274B984205D0264B98422A
:1036100002D0264B984203D122F070024B681A4325
:103620001E4B984220D0B0F1804F1DD01C4B9842C9
:103630001AD01C4B984217D01B4B984214D01B4BEE
:10364000984211D01A4B98420ED01A4B98420BD088
:10365000194B984208D0194B984205D0184B984204
:1036600002D0184B984203D122F44072CB681A431F
:1036700022F080034C6943EA040202608B68C36253
:103680000B688362054B984202D0084B984201D1E7
:103690000B6903630123436110BD0000000001407A
:1036A0000004004000080040000C004000040140FD
:1036B0000040014000440140004801400018004023
:1036C000001C0040002000404100080218BF0420F8
:1036D0000A0E18BF40F001004FF07F4232EA0101AC
:1036E00008BF40F00200012808BF05207047000015
:1036F00002480068C0F30220704700000CED00E0B3
:1037000010B5002804DB0A07130E054A135406E01F
:103710000A07140E034A00F00F031B1FD45410BDF8
:1037200000E400E018ED00E000B510EE101A2DEDF9
:10373000028B81B0524A6846B2EB410F2ED94FF04E
:10374000E640B0EB410F94BF00204FF0FF300090F7
:103750000098B0EE408A00286ADB10F0010F4BD0D1
:1037600068EE080A9FED471A9FED470A00EE810AAE
:103770009FED461A10F0020F00EE801AB7EE000A15
:1037800000EE810A02BF01B0BDEC028B00BD00BF9C
:1037900001B0B1EE400ABDEC028B00BD3C4B21F004
:1037A0000042934241D911F0004FDFED3A0A20EE7A
:1037B000201ADFED390A19BF31EE601A71EE200AC6
:1037C00031EE201A71EE600ABDEEE01A11EE100A19
:1037D0009FED321A00F0030000EEC10A9FED301A8F
:1037E000009000EEC10A9FED2F1A00EEC10A9FED76
:1037F0002E1A00EEC10AABE728EE080A9FED2B1A3D
:10380000DFED2B0A10F0020F40EE410A9FED291A5E
:1038100000EE201A61EE000AB0EE480A08EE200A17
:10382000B6D101B0BDEC028B00BD00F059F88FE7B6
:1038300018EE100A4000B0F17F4F0DD218EE100ABA
:10384000FFF742FF042808BF00F042F8B0EE480A34
:1038500001B0BDEC028B00BD09D10120FCF789FE4F
:1038600001B0BDEC028B5DF804EB00F029B801B0AB
:10387000B0EE480ABDEC028B5DF804EB00F01CB81A
:10388000B61F927EB93AB2BACA9F2A3DDDFFFFBE8B
:10389000490E494683F9223F0000004B0000C93F12
:1038A00000A0FD390020A2331A61342C336D4C394D
:1038B000DA82083CA0AA2ABE30EE000A7047000057
:1038C000DFED020A80EEA00A704700000000000051
:1038D0009FED020A20EE000A704700000000001071
:1038E0002DE9F0014FF07F42B2EB410F9FBF4FF047
:1038F000FF310160BDE8F00170474FF0004242EA3D
:103900000123C1F3C752783A551112F01F0C434CF2
:10391000CCF120067C44C1F3C752A2F178024FEAF1
:10392000621204EB820254F8254008BFD2E9015626
:1039300012D0556804FA0CF425FA06F73C43976850
:1039400005FA0CF527FA06F8D26807FA0CFCF240E3
:1039500045EA08054CEA0206A4FB034CA5FB03520A
:10396000A6FB03631D449D4234BF012600261319A4
:10397000334416B1934202D903E0934201D20122AB
:1039800000E00022624402F1200C9206DC0C42EAC4
:10399000443200EE102A5B03DFED210AF8EEC01A74
:1039A00000EE103A4FEA9C1C11F0004FB8EE400AAE
:1039B000C0F800C020EE201A00EE105ADFED190A00
:1039C000B8EE400A20EE200A71EE810A70EE800AFD
:1039D00010EE902A02F500626FF30B0200EE902ABF
:1039E00070EEE11A31EEC11ADFED101A30EE411A15
:1039F0009FED0D0A20EE800A01EE210A9FED0C1AC0
:103A000000EE810A04BFBDE8F0017047CCF180519F
:103A10000160BDE8F001B1EE400A704744260000A5
:103A2000000000360000802C22AAFD29DB0FC92FE0
:103A30000000C92F70B5044600251FE0012C0FD0EF
:103A4000022C04D0032C08D0042C0CD102E000F08E
:103A5000F1FF09E000F0B6FF06E000F07DFF03E0B3
:103A600000F0CCFF00E000BF00BFC82001F0EAF981
:103A700000F056FFC82001F0E5F96D1C022DDDDBDA
:103A800070BD00000120014908707047010000204E
:103A900008B500BF002000901048006840F0080002
:103AA0000E4908600846006800F00800009000BF5A
:103AB00000BF0B480B49086040F277504860002176
:103AC0000848816047F22F51C160002101614161C6
:103AD000FEF7E6FE3220FEF7D5F908BD4038024079
:103AE000000C0040300100201CB5FFF737FDFEF749
:103AF00067F9FFF7DDFCFFF741FCFFF7F5FBFFF788
:103B000021FCFFF793FCFFF7ADFC01201949087079
:103B1000FFF7BEFF00220121022001F061FC1649DF
:103B2000086000220121022001F05AFC13490860BC
:103B30001348032100238022CDE9001011A116486B
:103B400001F05CFF1548032100238022CDE900101D
:103B500013A1184801F052FF1748032100238022C7
:103B6000CDE9001015A1194801F048FF01F0B4FAA1
:103B700000BFFEE73D000020180000201C000020D0
:103B80002000002076446574656374427574746F18
:103B90006E54797065000000994A000824000020E6
:103BA00076446574656374557365725374617465A6
:103BB00000000000A14E0008280000207654617328
:103BC0006B506C6179536F6E670000008D50000878
:103BD00030B52DED028BA7B0B0EE408A05462A2203
:103BE000504912A8FCF75CFC4E48408DADF87200BD
:103BF0004C48C06A1D904B48006B1E9009224949F1
:103C000034311FA8FCF74CFC464890F83D008DF875
:103C10008500444890F83E008DF886004148006CCD
:103C200022904048406C23903E48806C24903D4850
:103C3000C06C25903B48006D26900020442216A9B8
:103C400011906846FCF72CFC12A80FC8FCF73AFD4F
:103C50001E20FCF741FE0320FCF7F2FCFCF76AFE95
:103C60009FED310AC8EE000A3048C0ED000A9FED12
:103C70002E0AC0EE080ABCEEE00A10EE100A2C492B
:103C80000880002432E0600000EE900AF8EEE00ABE
:103C90009FED281A60EE810A244890ED001A60EE2C
:103CA000810AB0EE600AFFF73FFDDFED230A20EE48
:103CB000200A224880ED000A90ED000ABDEEC00AFD
:103CC00010EE100A00B261001D4A22F811001B48D4
:103CD00090ED000ABDEEC00A10EE100A00B20121FC
:103CE00001EB440122F81100601C84B210480088E6
:103CF0008442C8DB0E4800884FF6FF7101EA40029B
:103D00000F491048FDF7CEFF4FF4FA7001F09AF812
:103D1000002210210C48FDF7CBF927B0BDEC028B37
:103D200030BD00008001002000803B4730000020B3
:103D300034000020D00F494000007A442C000020BD
:103D40007C020020D4010020000C02402DE9F0414B
:103D500005460E461C4807681C480068001D00F018
:103D600085FE50B91948006890F82C100120884051
:103D700017490968814316480160681C38B936B193
:103D800012480168091D134800F022FF1AE07C194F
:103D90000E4800684460BC4207D20C480168091D07
:103DA0000D48006800F0FAFE0CE008480168091DA3
:103DB0000A48006800F0F2FE09480068844201D217
:103DC00007480460BDE8F081600000204C0000203E
:103DD000640000208C0400205400002050000020CB
:103DE0007C00002010B5044600F0FEFE2448006868
:103DF000401C234908602348006840B921480460FA
:103E00000846006801280DD100F0D8F90AE01E48E4
:103E1000006838B91B480068C06AE16A884201D866
:103E20001848046019480068401C18490860084692
:103E30000068606494F82C100120884014490968D7
:103E4000084313490860E16A01EB8101114A02EB62
:103E50008100211D00F0BCFE00F0F2FE0A4800685F
:103E600068B108480068C06AE16A884207D24FF02A
:103E7000805009490860BFF34F8FBFF36F8F10BDAB
:103E80005C0000204C00002068000020780000202A
:103E900064000020D803002004ED00E010B500F01D
:103EA000A3FE10480068D0B90F4800F067FE0F4825
:103EB00000F064FE0C480E4908600C480D4908608B
:103EC00000220C21052001F08BFA06490860084603
:103ED000006820B108A10348006800F077FF00F0F7
:103EE000AFFE10BD94000020A0040020B404002008
:103EF0008C00002090000020546D725100000000E2
:103F000010B516E000F070FE0C48C068C468201DB3
:103F100000F0ACFD0A480068401E094908600948E5
:103F20000068401E0749086000F08AFE204600F045
:103F30005FF8044800680028E4D110BD7804002030
:103F40005C0000205800002070B504460D46206C2F
:103F500070B1216CE0680144E160D4E9021088424C
:103F600001D32168E1602846226CE168FCF753FA2E
:103F700070BD2DE9F04104460F4615464FF000088C
:103F8000A66B206C48B9206800282CD1A06801F0ED
:103F90001FFE80460020A06025E07DB93946226CD6
:103FA0006068FCF738FA216C606808446060D4E906
:103FB0000101884217D32068606014E03946226C02
:103FC000E068FCF728FA216CE068411AE16021689A
:103FD000E068884203D2216CA068411AE160022D9A
:103FE00001D106B1761E701CA0634046BDE8F08189
:103FF00010B50446206B00F043FE204600F040FE62
:1040000010BD00000146084A126812680AB9012270
:1040100000E000220A600A6822B9034A1268D268E6
:10402000106800E0002070478C00002030B54FF48D
:104030002043174800F007042CB1C01D20F00700F2
:10404000134C041B1B1B0246124C22600024114D12
:104050006C60D018083820F007000F4C2060002456
:104060000D4D2D686C600C4D2D682C601146441A66
:104070004C60094C24680C60084D4C682C60084D5D
:104080004C682C604FF00044064D2C6030BD0000A1
:10409000C8040020A0000020A8000020B0000020DC
:1040A000AC000020BC00002000BFFFF729FF06483D
:1040B00000680128F9D94FF0805004490860BFF327
:1040C0004F8FBFF36F8FF0E7D803002004ED00E0BF
:1040D0002DE9F04106460D4617469846069C0DB957
:1040E000246000E02760E66325640121204601F09A
:1040F000CBF984F84C80BDE8F0812DE9F05F824671
:104100000E4690469B460A9F0C9C4FEA8801A522CA
:10411000206BFCF7F7F9A8F10100216B01EB800996
:1041200029F0070909F0070008B9012000E0002084
:1041300058B900BFA02080F31188BFF34F8FBFF3A1
:104140006F8F00BF00BF00BFFDE786B1002507E00D
:10415000715D04F134004155705D00B902E06D1CE1
:10416000102DF5D300BF00214320015502E00020AF
:1041700084F83400052F00D30427E762E7640020A9
:104180002065201D00F007FD04F1180000F003FD7C
:104190002461C7F10500A06164620020606584F8B5
:1041A00058005A465146484600F076FB20600B986E
:1041B00008B10B980460BDE8F09F000010B5002422
:1041C00007E004EB84010F4A02EB810000F0D6FC0B
:1041D000641C052CF5D30C4800F0D0FC0B4800F013
:1041E000CDFC0B4800F0CAFC0A4800F0C7FC0A48A6
:1041F00000F0C4FC04480949086004480849086004
:1042000010BD0000D80300203C0400205004002012
:1042100064040020780400208C040020500000205A
:104220005400002010B50146164800E000680368FD
:104230008B42FBD30246436813448B4204D143684C
:104240004C682344436001460A464B6813440468A3
:10425000A34211D10C4C03682468A34208D04B68D8
:104260000468646823444B6003681B680B6005E0C6
:10427000054B1B680B6001E003680B60884200D0AF
:10428000016010BDA0000020A80000202DE9F04131
:1042900004460D4616461F464FF00008656024612F
:1042A000B5420CD8F01BA169884202D34FF0010837
:1042B00011E0211D0948006800F070FC0BE0BE42CF
:1042C00004D2BD4202D34FF0010804E0211D04488E
:1042D000006800F063FC4046BDE8F08190000020DB
:1042E0008C00002070B5054600F07EFCA86B08B974
:1042F000012400E0002400F0A3FC204670BD70B54E
:10430000054600F071FCA86BE96B884201D10124DD
:1043100000E0002400F094FC204670BDF8B505468E
:104320000F461A480068C068C468201D00F09EFB54
:1043300094F8280000F00400F0B1A06941192B4660
:104340003A462046FFF7A2FFE0B1002003462A4686
:1043500001460090204601F099FD06465EB900BF77
:10436000A02080F31188BFF34F8FBFF36F8F00BF82
:1043700000BF00BFFDE705E094F8280020F0010031
:1043800084F828002046216A8847F8BD8C00002068
:1043900070B586B08DE003980028FBDB059C606952
:1043A00008B9012000E0002010B9201D00F05EFBDC
:1043B00002A800F0DDF8054603980A2877D2DFE866
:1043C00000F00905073A426506083B4300BF00BFFD
:1043D00000BF00BF94F8280040F0010084F82800D6
:1043E0000498A269811803462A462046FFF74EFF2B
:1043F00000B32046216A884794F8280000F00400A2
:10440000C0B1002000900498A16942180023194609
:10441000204601F03BFD06465EB900BFA02080F3B8
:104420001188BFF34F8FBFF36F8F00BF00BF00BF76
:10443000FDE700BF3CE000BF94F8280020F0010039
:1044400084F8280034E000BF94F8280040F0010010
:1044500084F828000498A061A06908B1012000E058
:10446000002058B900BFA02080F31188BFF34F8F00
:10447000BFF36F8F00BF00BF00BFFDE7A069411908
:104480002B462A462046FFF701FF11E094F828004A
:1044900000F0020020B9204600F0F2FB06E006E042
:1044A00094F8280020F0010084F8280000E000BF04
:1044B00000BF002203A90448006801F09DF900280C
:1044C0007FF469AF06B070BD94000020F8B50546D2
:1044D0000C4600F04FFE684600F04AF80646009889
:1044E00020BB44B9B54206D801F020FC314628462D
:1044F000FFF714FF1CE03CB10E480068006808B9E3
:10450000012000E000200446A91B22460A4800685A
:1045100000F072FC01F00AFC50B94FF080500749DE
:104520000860BFF34F8FBFF36F8F01E001F0FEFB18
:10453000F8BD0000900000209400002004ED00E091
:1045400009480068006808B9012000E0002020B197
:104550004FF0FF300549086005E003480068C06877
:104560000068024908607047500000207C0000206D
:1045700070B5044601F082FA054607480068854296
:1045800004D200F00BF80120206001E00020206040
:1045900001480560284670BD9C0000202DE9F843C5
:1045A00035E025480068C068056823480068C06891
:1045B000C468201D00F05AFA2046216A884794F802
:1045C000280000F0040010B3A0694619AE4207D9D4
:1045D00066602461211D1848006800F0DFFA16E0CB
:1045E000002003462A4601460090204601F04EFC7A
:1045F00007465FB900BFA02080F31188BFF34F8F3B
:10460000BFF36F8F00BF00BF00BFFDE700BF0A48C8
:104610000068006808B9012000E000200028C0D030
:104620000548D0F800800548006803490860034841
:10463000C0F80080BDE8F8838C00002090000020C6
:104640000F480068401C08B9012000E0002058B95C
:1046500000BFA02080F31188BFF34F8FBFF36F8F8F
:1046600000BF00BF00BFFDE700BFA02080F311889E
:10467000BFF34F8FBFF36F8F00BF00BFFEE7000097
:10468000C000002008B500BF6846FFF7BBFC044629
:1046900020460099FFF71AFFFFF77AFEF4E770B59E
:1046A000044600F0A1FA94F9455010E0606A08B998
:1046B000012000E0002038B904F1240001F0E8FAFC
:1046C00018B100F09DFC00E003E0681E45B2002D2B
:1046D000ECDC00BFFF2084F8450000F0B1FA00F0E8
:1046E00083FA94F9445010E0206908B9012000E0F1
:1046F000002048B904F1100001F0CAFA08B100F036
:104700007FFC681E45B200E001E0002DECDC00BF3C
:10471000FF2084F8440000F093FA70BD2DE9F041C9
:1047200004464FF0000800F025FD5548006808B920
:10473000FFF77CFC53480068204000287ED144B33A
:1047400004F10800A04224D9083404F00700F8B1AD
:1047500004F00700C0F108002044A04217D904F07B
:104760000700C0F10800044404F0070008B9012064
:1047700000E0002060B900BFA02080F31188BFF3E3
:104780004F8FBFF36F8F00BF00BF00BFFDE7002456
:1047900000E00024002C55D03B480068844251D8EA
:1047A0003A4E3046056801E02E462D686868A04202
:1047B00002D228680028F7D131480068854241D0EC
:1047C000306800F10808286830606868001B10280D
:1047D0001AD92F1907F0070008B9012000E00020BE
:1047E00058B900BFA02080F31188BFF34F8FBFF3EB
:1047F0006F8F00BF00BF00BFFDE76868001B7860D7
:104800006C603846FFF70EFD1F4968680968081A92
:104810001D490860084600681D490968884203D29E
:10482000194800681A490860164968680968084309
:104830006860002028601748006800E002E0401C23
:104840001449086001F072FAB8F1000F01D100F0CC
:1048500021F908F0070008B9012000E0002058B94C
:1048600000BFA02080F31188BFF34F8FBFF36F8F7D
:1048700000BF00BF00BFFDE74046BDE8F08100007B
:10488000A8000020BC000020AC000020A0000020F8
:10489000B0000020B4000020001F4FF080730360C0
:1048A000001F21F001030360001F054B0360143853
:1048B0000260001F6FF002030360203870470000A1
:1048C0004146000838B505460C4609480570642085
:1048D0000123074A942100900648FCF759FE642002
:1048E00001232246942100900248FCF7D5FC38BDF4
:1048F000490000204403002010B50348FEF700F8EB
:104900000148FDF7E8FF10BD3001002010B5034855
:10491000FEF727F80148FEF708F810BD3001002027
:1049200010B500224FF480510A48FCF7C1FB002269
:104930004FF400510748FCF7BBFB00224FF48041C5
:104940000448FCF7B5FB00224FF400410148FCF796
:10495000AFFB10BD000C024010B50122D1030B4883
:10496000FCF7A6FB00224FF480510848FCF7A0FB9F
:1049700000224FF400510548FCF79AFB00224FF447
:1049800080410248FCF794FB10BD0000000C02407F
:1049900010B50446012C06D0022C07D0032C08D0F9
:1049A000042C0CD108E000F029F809E000F042F8EE
:1049B00006E0FFF7D1FF03E000F004F800E000BFDD
:1049C00000BF10BD10B5012211030B48FCF770FBAE
:1049D00000224FF400510848FCF76AFB00224FF414
:1049E00080410548FCF764FB00224FF40041024877
:1049F000FCF75EFB10BD0000000C024010B5012268
:104A000051030B48FCF754FB00224FF48051084837
:104A1000FCF74EFB00224FF480410548FCF748FBB1
:104A200000224FF400410248FCF742FB10BD000099
:104A3000000C024010B5012291030B48FCF738FB33
:104A400000224FF480510848FCF732FB00224FF45B
:104A500000510548FCF72CFB00224FF400410248AE
:104A6000FCF726FB10BD0000000C024001460A695D
:104A7000D1E901309860D1E901035860506888425B
:104A800001D188685060002008611068401E1060E5
:104A90001068704700BFFEE760E00A2000F0D2F91E
:104AA0002F48007820B101280FD0022855D11AE0F4
:104AB0002C480078012804D1294908702A49087037
:104AC00002E00A2000F0BEF947E001212748FCF788
:104AD000E7FA38B900BF00202249087000BF022061
:104AE0001F49087039E01F48007800BB2048007853
:104AF00020B901201E490870FFF7FEFE1D4800780E
:104B0000012829D1FFF702FF00201949087019492F
:104B10000870012014490870002011490870002312
:104B2000421E11491448006800F0FAFC15E002200A
:104B30000D49087000200A490870FFF7E7FE0020C1
:104B40000B4908700B4908700023421E06490A48A9
:104B5000006800F0E5FC00E000BF00BF9DE700003A
:104B600000000020010000200200002000000240A0
:104B700008000020030000201800002000F10801B8
:104B800041604FF0FF31816000F10801C1600161B7
:104B900000210160704700210161704710B5024695
:104BA0000B685C1C0CB9106907E002F1080000E01A
:104BB0004068446824689C42FAD944684C604C6858
:104BC000A160886041600A611468641C146010BDB3
:104BD00042684A6093688B6093685960916008618D
:104BE00003685B1C0360704700BFA02080F311883E
:104BF000BFF34F8FBFF36F8F00BF0F480068401C9B
:104C00000D49086008460068012813D10B48006868
:104C1000C0B208B9012000E0002058B900BFA020B0
:104C200080F31188BFF34F8FBFF36F8F00BF00BFBA
:104C300000BFFDE770470000C000002004ED00E069
:104C40000E48006858B900BFA02080F31188BFF358
:104C50004F8FBFF36F8F00BF00BF00BFFDE7074856
:104C60000068401E054908600846006820B9002019
:104C700080F3118800BF00BF70470000C000002013
:104C800070B506463546002E46D0083D2C462349D1
:104C900060680968084008B1012000E0002058B9A8
:104CA00000BFA02080F31188BFF34F8FBFF36F8F39
:104CB00000BF00BF00BFFDE7206808B9012000E089
:104CC000002058B900BFA02080F31188BFF34F8F98
:104CD000BFF36F8F00BF00BF00BFFDE70F496068E3
:104CE00009680840C0B12068B0B90C49606809681B
:104CF0008843606000F03EFA09496068096808442A
:104D0000074908602046FFF78DFA06480068401CF6
:104D10000449086001F00AF870BD0000BC000020E2
:104D2000AC000020B800002000204FF0E021086116
:104D30008861064800684FF47A71B0FBF1F0401EBC
:104D40004FF0E0214861072008617047D80000203B
:104D500070B5FBF7C5FA0446102C17D304F1E02018
:104D600090F8F05316480078854201DB012000E0FE
:104D7000002058B900BFA02080F31188BFF34F8FE7
:104D8000BFF36F8F00BF00BF00BFFDE70D48006895
:104D900000F4E0600C490968884201D8012000E075
:104DA000002058B900BFA02080F31188BFF34F8FB7
:104DB000BFF36F8F00BF00BF00BFFDE770BD0000F5
:104DC000C40000200CED00E0C800002002460020D6
:104DD0000BE0084B53F8303033B9064B43F8301032
:104DE00003EBC0035A6002E0401C0828F1D300BF67
:104DF00070470000980300202DE9F04105460E465B
:104E000017462C46FFF7F0FE94F94400401C10B9F9
:104E1000002084F8440094F94500401C10B900209B
:104E200084F84500FFF70CFFA06B28B93A463146DD
:104E300004F1240000F008F92046FFF730FCBDE83B
:104E4000F081000070B504460025DCB1124800680E
:104E500008B9012000E0002058B900BFA02080F36D
:104E60001188BFF34F8FBFF36F8F00BF00BF00BF2C
:104E7000FDE700F07FF900212046FEF767FF00F014
:104E800055FF05463DB94FF0805004490860BFF317
:104E90004F8FBFF36F8F70BD8800002004ED00E0DE
:104EA0001FB50020039000240190029000908BE039
:104EB0004FF0FF3203A94548006800F09DFC14B193
:104EC000022C7FD143E09DF80C00012802D002287B
:104ED0003AD127E03E480078401C3D49087008461A
:104EE0000078FFF755FD3B483B49096800EB81001E
:104EF000D0ED000AB0EE600AC820FEF769FE344823
:104F00000078042802D10020314908703248006836
:104F1000401C3149086008460068082801D100207B
:104F2000086012E0FFF7FCFC29480078FEF782FDDC
:104F30002748017829482A4A126840F8321002248A
:104F400000202349087000E000BF00BF3BE09DF84F
:104F50000C00012802D0022831D110E01C48007852
:104F6000401C1B49087008460078FFF711FD1848DF
:104F70000078042802D100201549087020E0FFF7CE
:104F8000CFFC13480078FEF755FD0A20029000245C
:104F900000200F49087012480068401C1049086042
:104FA00008460068022808D1012000900023821ED4
:104FB00069460C48006800F0B3FA01E002E000BF67
:104FC00000BF00E000BF00BF72E700001800002033
:104FD0003E0000201C5F00084000002070010020FF
:104FE000040000201C0000200349096801600349F7
:104FF00009684160704700007400002060000020D4
:1050000001200149086070477000002070B5044617
:105010000D465CB900BFA02080F31188BFF34F8F0D
:10502000BFF36F8F00BF00BF00BFFDE705480168F9
:1050300018312046FFF7B2FD01212846FEF786FE13
:1050400070BD00004C00002070B505460E461446A9
:105050005DB900BFA02080F31188BFF34F8FBFF36D
:105060006F8F00BF00BF00BFFDE707480168183120
:105070002846FFF7ADFD0CB14FF0FF362146304614
:10508000FEF764FE70BD00004C00002008B5002053
:10509000009019E04FF0FF3269460C48006800F0BC
:1050A000ABFB9DF8000001280ED1002405E0084963
:1050B00011F83400FEF7BEFC641C06480068844208
:1050C000F5DB002003490860E4E700001C00002035
:1050D00070010020040000201CB51E4800210B4672
:1050E0008022CDE900101CA11D4800F087FC044679
:1050F000012C02D100F09EFE0446012C15D100BF08
:10510000A02080F31188BFF34F8FBFF36F8F00BFD4
:105110004FF0FF3013490860012013490860002058
:105120001249086000F08AF811E0601C08B1012003
:1051300000E0002058B900BFA02080F31188BFF321
:105140004F8FBFF36F8F00BF00BF00BFFDE7084860
:1051500000681CBD8000002049444C450000000050
:10516000A94000087C0000206800002060000020AA
:105170008400002002480068401C01490860704714
:10518000880000201D48006818B101201C490860F3
:1051900033E000201A4908601A480068B0FA80F02D
:1051A000C0F11F0101EB8100174A52F8200008B13D
:1051B000012000E0002058B900BFA02080F3118832
:1051C000BFF34F8FBFF36F8F00BF00BF00BFFDE77E
:1051D00001EB81020C4B03EB820042685268426093
:1051E00000F108024368934202D14268526842606B
:1051F0004268D268054B1A6000BF704788000020E3
:105200007000002064000020D80300204C00002023
:1052100038B505460C4607480570207805494870A2
:10522000642002230A46942100900348FCF7B0F959
:1052300038BD000049000020440300201CB554483C
:1052400000685449884201D0012000E0002058B98C
:1052500000BFA02080F31188BFF34F8FBFF36F8F83
:1052600000BF00BF00BFFDE7494800684949491E2B
:10527000884201D0012000E0002058B900BFA020E2
:1052800080F31188BFF34F8FBFF36F8F00BF00BF54
:1052900000BFFDE74049084600780190FF200A461C
:1052A00010700846007800909DF8000000F0F000B3
:1052B0009DF80020904201D1012000E0002058B963
:1052C00000BFA02080F31188BFF34F8FBFF36F8F13
:1052D00000BF00BF00BFFDE79DF8000000F0A00088
:1052E0002E4A107007202E4A106009E02C480068F2
:1052F000401E2B4A10609DF800004006000E0090F2
:105300009DF8000000F080008028EFD0244800685D
:10531000C0F10700042801D1012000E0002058B9A5
:1053200000BFA02080F31188BFF34F8FBFF36F8FB2
:1053300000BF00BF00BFFDE7194800680002184A1F
:1053400010601046008800F4E0601060124A019876
:1053500010700F482030006840F470000C49203174
:1053600008600846006840F070400860FFF7DCFC09
:1053700000200C490860FAF77BFF0B48006840F0FA
:10538000404009490860FAF75FFF00201CBD00009B
:1053900000ED00E071C20F4100E400E0C400002015
:1053A000C8000020C000002034EF00E010B500BFAE
:1053B000A02080F31188BFF34F8FBFF36F8F00BF22
:1053C00000F062FB18B14FF080500449086000BF44
:1053D000002080F3118800BF10BD000004ED00E044
:1053E0002DE9F84306460F4690460EB1012000E035
:1053F000002058B900BFA02080F31188BFF34F8F61
:10540000BFF36F8F00BF00BF00BFFDE706FB07F5CE
:105410001FB1B5FBF7F0B04201D1012000E0002040
:1054200058B900BFA02080F31188BFF34F8FBFF39E
:105430006F8F00BF00BF00BFFDE705F15000A8421D
:1054400001D9012000E0002058B900BFA02080F35E
:105450001188BFF34F8FBFF36F8F00BF00BF00BF36
:10546000FDE705F15000FFF759F904464CB1A1469C
:1054700009F1500943464A46394630460094FEF742
:1054800027FE2046BDE8F88370B505460E462C463B
:105490005CB900BFA02080F31188BFF34F8FBFF32A
:1054A0006F8F00BF00BF00BFFDE7FFF79DFBD4E992
:1054B0000F12206801FB0200A0600020A06320689A
:1054C0006060E06B401E226C216800FB0211E1600D
:1054D000FF2084F8440084F845009EB9206908B98B
:1054E000012000E00020A8B904F1100000F0D0FB7A
:1054F00080B14FF0805009490860BFF34F8FBFF370
:105500006F8F07E004F11000FFF738FB04F124006F
:10551000FFF734FBFFF794FB012070BD04ED00E0C2
:105520002DE9FF4383B0064688461D464FF000092B
:1055300034465CB900BFA02080F31188BFF34F8FC1
:10554000BFF36F8F00BF00BF00BFFDE7B8F1000FD2
:1055500001D1206C08B9012000E0002058B900BF3B
:10556000A02080F31188BFF34F8FBFF36F8F00BF70
:1055700000BF00BFFDE7022D02D1E06B012801D181
:10558000012000E0002058B900BFA02080F311885E
:10559000BFF34F8FBFF36F8F00BF00BF00BFFDE7AA
:1055A00000F05CFA08B9059808B9012000E0002075
:1055B00058B900BFA02080F31188BFF34F8FBFF30D
:1055C0006F8F00BF00BF00BFFDE700BFFFF70CFB00
:1055D000A06BE16B884201D3022D28D12A464146B7
:1055E0002046FEF7C6FC0746606A08B9012000E0C5
:1055F000002068B904F1240000F04AFB88B14FF0A4
:10560000805032490860BFF34F8FBFF36F8F08E0BF
:105610003FB14FF080502D490860BFF34F8FBFF36B
:105620006F8FFFF70DFB012007B0BDE8F0830598F1
:1056300018B9FFF705FB0020F6E7B9F1000F04D118
:1056400001A8FFF7D1FC4FF00109FFF7F9FAFFF7C6
:1056500091FDFFF7C9FA94F94400401C10B90020ED
:1056600084F8440094F94500401C10B9002084F8E7
:105670004500FFF7E5FA05A901A800F075F9F0B9B2
:105680002046FEF73CFEA0B104F110000599FFF79B
:10569000BDFC2046FFF703F800F048FB002895D139
:1056A0004FF0805009490860BFF34F8FBFF36F8FF1
:1056B0008CE72046FEF7F3FF00F038FB86E7204634
:1056C000FEF7EDFF00F032FB0020ADE704ED00E057
:1056D0002DE9F84F07468B4690461E463C465CB97E
:1056E00000BFA02080F31188BFF34F8FBFF36F8FEF
:1056F00000BF00BF00BFFDE7BBF1000F01D1206C70
:1057000008B9012000E0002058B900BFA02080F3B4
:105710001188BFF34F8FBFF36F8F00BF00BF00BF73
:10572000FDE7022E02D1E06B012801D1012000E04B
:10573000002058B900BFA02080F31188BFF34F8F1D
:10574000BFF36F8F00BF00BF00BFFDE7FFF700FB97
:1057500000BFA021EFF3118081F31188BFF34F8FB9
:10576000BFF36F8F00BF0546A06BE16B884201D38A
:10577000022E38D194F945A0A06B009032465946CC
:105780002046FEF7F6FB0AF1010088B9606A08B905
:10579000012000E0002050B904F1240000F078FA64
:1057A00028B1B8F1000F02D00120C8F8000017E0BE
:1057B000BAF17F0F01D0012000E0002058B900BFEE
:1057C000A02080F31188BFF34F8FBFF36F8F00BF0E
:1057D00000BF00BFFDE70AF1010040B284F84500B8
:1057E0004FF0010901E04FF0000900BF85F3118877
:1057F00000BF4846BDE8F88F2DE9F74183B0054664
:105800000E464FF000082C465CB900BFA02080F384
:105810001188BFF34F8FBFF36F8F00BF00BF00BF72
:10582000FDE70EB9206C08B9012000E0002058B94E
:1058300000BFA02080F31188BFF34F8FBFF36F8F9D
:1058400000BF00BF00BFFDE700F008F908B90598E8
:1058500008B9012000E0002058B900BFA02080F363
:105860001188BFF34F8FBFF36F8F00BF00BF00BF22
:10587000FDE700BFFFF7B8F9A76BF7B13146204647
:10588000FEF762FB781EA063206908B9012000E0E2
:10589000002060B904F1100000F0FAF938B14FF0BF
:1058A000805030490860BFF34F8FBFF36F8FFFF711
:1058B000C7F9012006B0BDE8F081059818B9FFF7D7
:1058C000BFF90020F6E7B8F1000F04D101A8FFF7F7
:1058D0008BFB4FF00108FFF7B3F9FFF74BFCFFF725
:1058E00083F994F94400401C10B9002084F8440066
:1058F00094F94500401C10B9002084F84500FFF7DA
:105900009FF905A901A800F02FF8F0B92046FEF78D
:10591000E9FCA0B104F124000599FFF777FB2046CC
:10592000FEF7BDFE00F002FA0028A3D14FF0805030
:105930000C490860BFF34F8FBFF36F8F9AE7204683
:10594000FEF7ADFE00F0F2F994E72046FEF7A7FE61
:1059500000F0ECF92046FEF7C5FC00288AD00020B4
:10596000A8E7000004ED00E070B505460C465DB9FF
:1059700000BFA02080F31188BFF34F8FBFF36F8F5C
:1059800000BF00BF00BFFDE75CB900BFA02080F3EF
:105990001188BFF34F8FBFF36F8F00BF00BF00BFF1
:1059A000FDE7FFF721F9134802686868131A2068B9
:1059B000401C08B9002619E00F4928680968884288
:1059C00006D06868904203D80126002020600DE0D0
:1059D0002068984207D92068C01A20602846FFF73F
:1059E00003FB002602E0002020600126FFF728F9D3
:1059F000304670BD60000020740000202DE9FF4F8C
:105A000085B0804689461746DDE912ABB800FEF73F
:105A100085FE064656B15C20FEF780FE04460CB1BA
:105A2000266304E03046FFF72BF900E000247CB148
:105A30000020CDE900ABCDE902403A464946404658
:105A4000089BFEF75AFB2046FEF7CCF9012501E042
:105A50004FF0FF35284609B0BDE8F08F05490968C9
:105A600009B9012005E00449096809B9022000E0EC
:105A70000020704768000020880000200149086865
:105A800070470000600000202DE9F0414FF0000851
:105A90004448006800287DD143480068451C4248BE
:105AA00005601DBB41480068006808B9012000E09E
:105AB000002058B900BFA02080F31188BFF34F8F9A
:105AC000BFF36F8F00BF00BF00BFFDE73748076817
:105AD0003748006835490860354807603548006830
