:020000040800F2
:1000000090070020290200089114000841120008FE
:100010008D140008CF030008C1180008000000007C
:10002000000000000000000000000000951400081F
:10003000D3030008000000009314000831150008E5
:10004000430200084302000843020008430200087C
:10005000430200084302000843020008430200086C
:10006000430200084302000843020008430200085C
:10007000430200084302000843020008430200084C
:10008000430200084302000843020008430200083C
:10009000430200084302000843020008430200082C
:1000A000430200084302000843020008430200081C
:1000B000F11500084302000843020008430200084B
:1000C00043020008430200084302000843020008FC
:1000D00043020008430200084302000843020008EC
:1000E00043020008430200084302000843020008DC
:1000F00043020008430200084302000843020008CC
:1001000043020008430200084302000843020008BB
:1001100043020008430200084302000843020008AB
:10012000430200084302000843020008430200089B
:10013000430200084302000843020008430200088B
:10014000430200084302000843020008430200087B
:10015000430200084302000843020008430200086B
:10016000430200084302000843020008430200085B
:100170004302000843020008430200080000000098
:10018000430200084302000800F002F800F03CF8C7
:100190000AA090E8000C82448344AAF10107DA45E2
:1001A00001D100F031F8AFF2090EBAE80F0013F0F8
:1001B000010F18BFFB1A43F001031847E8170000AE
:1001C00008180000103A24BF78C878C1FAD852073E
:1001D00024BF30C830C144BF04680C6070470000C1
:1001E0000023002400250026103A28BF78C1FBD840
:1001F000520728BF30C148BF0B6070471FB501F0E0
:10020000BFFB1FBD10B510BD00F0ACF81146FFF7E5
:10021000F5FF01F073FB00F0CAF803B4FFF7F2FF3B
:1002200003BC00F0CDF800000948804709480047AA
:10023000FEE7FEE7FEE7FEE7FEE7FEE7FEE7FEE796
:10024000FEE7FEE704480549054A064B70470000F3
:10025000D5150008890100089001002090070020B2
:10026000900300209003002053EA020C00F0698004
:100270002DE9F04B4FF00006002B1FBFB3FA83F5BA
:1002800003FA05F424FA05F65E4012BF1643B2FAEB
:1002900082F502FA05F4C5F120051EBF22FA05FC1D
:1002A00044EA0C04203556EA044C4FEA144418BFC3
:1002B000641C4FF000084FF00009904271EB030CF2
:1002C00039D3002919BFB1FA81F701FA07F6B0FA5C
:1002D00080F700FA07F6C7F120071EBF20FA07FCD7
:1002E00046EA0C062037B6FBF4FCA7EB0507103FE7
:1002F00007F01F0BCBF120060CFA0BFB2CFA06F6CD
:1003000044BFB3460026202FA4BF5E464FF0000B2B
:100310005BEA060C08BF4FF0010B19EB0B09ABFBB6
:10032000027C48EB0608C01B06FB02CC0BFB03CC8F
:1003300071EB0C01C1E70B46024641464846BDE859
:10034000F08B13B54FF000004FF00001AFF30080C9
:10035000BDE81C40704770477047704700487047C1
:10036000300100207546FFF7F9FFAE4605006946EB
:10037000534620F00700854618B020B5FFF762FF0E
:10038000BDE820404FF000064FF000074FF0000896
:100390004FF0000B21F00701AC46ACE8C009ACE817
:1003A000C009ACE8C009ACE8C0098D46704710B57B
:1003B0000446AFF300802046BDE81040FFF72DBF94
:1003C00001491820ABBEFEE726000200704700BFBF
:1003D000FEE7704770B5044600F01AF90646254658
:1003E000681C10B104480078054400BF00F010F903
:1003F000801BA842FAD370BD08000020F8B5024661
:100400000B460025002400200021DCE0012606FA2E
:1004100001F51E6806EA0504AC4273D15E68012E40
:1004200008D05E68022E05D05E68112E02D05E688C
:10043000122E13D190684F000326BE40B0434F00E8
:10044000DE68BE4030439060506801268E40B04365
:100450001E79C6F300168E4030435060D0684F00BE
:100460000326BE40B0434F009E68BE403043D0607C
:100470005E68022E02D05E68122E13D1CF0802F100
:10048000200656F827004E07F70E0F26BE40B04351
:100490004F07FF0E1E69BE403043CF0802F1200611
:1004A00046F8270010684F000326BE40B0431E796F
:1004B00006F003064F00BE40304310605E6806F051
:1004C0008056B6F1805F7DD100BF00260096404E79
:1004D000366846F480463E4F3E603E46366806F437
:1004E0008046009600BF00BF3A4E8F0856F827009E
:1004F0008E07370F0F26BE40B043374EB24202D1AF
:10050000002624E05EE0354EB24201D101261EE015
:10051000334EB24201D1022619E0324EB24201D12D
:10052000032614E0304EB24201D104260FE02F4ED4
:10053000B24201D105260AE02D4EB24201D1062673
:1005400005E02C4EB24201D1072600E008268F07B5
:100550003F0FBE4030431F4E8F0846F82700264EFF
:100560003068A0435E6806F48036B6F5803F00D15F
:100570002043214E3060361D3068A0435E6806F48B
:100580000036B6F5003F00D120431B4E361D3060CB
:10059000361D3068A0435E6806F48016B6F5801FED
:1005A00000D12043144E08363060361D3068A04319
:1005B0005E6806F40016B6F5001F00D120430E4E0B
:1005C0000C363060491C1029FFF420AFF8BD000044
:1005D0004438024008380140000002400004024054
:1005E00000080240000C02400010024000140240CB
:1005F00000180240001C0240003C014042690A40D1
:100600008A4202D10A04826100E0816170470000E1
:10061000014800687047000000000020034800689F
:100620000349097808440149086070470000002028
:100630000800002010B50A48006840F4007008491E
:1006400008600846006840F480600860032000F0FD
:1006500083F80F2000F006F800F02AF8002010BD03
:10066000003C024070B504460E4800784FF47A71A1
:10067000B1FBF0F00C490968B1FBF0F5284600F039
:10068000DEFB08B1012070BD102C07D200222146EC
:10069000501E00F022F80548046001E00120F2E756
:1006A0000020F0E7080000200C00002004000020DB
:1006B00070470146084600280DDB00BF00BF00F070
:1006C0001F0301229A4043099B0003F1E023C3F872
:1006D000002100BF00BF00BF70472DE9F05F8046DA
:1006E0000D461646002701F0EDF8074639462A4622
:1006F000334601F00700C0F1070ABAF1040F02D92E
:100700004FF0040A01E0C0F1070AD14600F1040AE3
:10071000BAF1070F02D24FF0000A01E0A0F1030A7C
:10072000D4464FF0010A0AFA09FAAAF1010A0AEAC4
:10073000020A0AFA0CFA4FF0010B0BFA0CFBABF1B0
:10074000010B0BEA030B4AEA0B042146404601F079
:10075000C1F8BDE8F09F000000BF00F00702064BA3
:1007600019684FF6FF031940044B0B4343EA02217B
:10077000014B196000BF70470CED00E00000FA0566
:1007800070B504460D460CB9012070BD584800688C
:1007900000F00F00A84209D255490D7008460068C4
:1007A00000F00F00A84201D00120EEE7207800F011
:1007B000020002281DD1207800F00400042805D191
:1007C0004C48006840F4E0504A490860207800F046
:1007D0000800082805D14748006840F460404549B2
:1007E00008604448006820F0F000A16808434149CF
:1007F0000860207800F00100A8B36068012807D1E4
:100800003C4808380068C0F34040B8B90120BCE754
:100810006068022802D06068032807D1354808388C
:100820000068C0F3406048B90120AEE7314808389D
:100830000068C0F3400008B90120A6E72D48006811
:1008400020F00300616808432A490860FFF7E0FED2
:10085000064609E0FFF7DCFE801B41F28831884242
:1008600002D9032091E707E02248006800F00C005D
:100870006168B0EB810FEDD11D48006800F00F00FA
:10088000A84209D91A490D700846006800F00F0007
:10089000A84201D0012078E7207800F00400042865
:1008A00007D11448006820F4E050E168084311497A
:1008B0000860207800F00800082808D10D4800687A
:1008C00020F46040216940EAC1000A49086000F054
:1008D00019F808490968C1F30311074A515CC84077
:1008E0000649086006480068FFF7BCFE00204CE798
:1008F000003C0240083802408A1900080C00002021
:10090000040000202DE9F047002400250026A14620
:100910002548006800F00C0020B1042805D0082804
:100920003AD105E0DFF8849039E0DFF8849036E0D2
:100930001D48001F006800F03F041B48001F0068AE
:1009400000F4800078B11A481749091F0968C1F3FB
:100950008811A0FB01700146224600233846FFF7AC
:1009600083FC05460EE011480F49091F0968C1F3D1
:100970008811A0FB01700146224600233846FFF78C
:1009800073FC05460848001F0068C0F30140401C86
:100990004600B5FBF6F902E0DFF8109000BF00BF9B
:1009A0004846BDE8F0870000083802400024F40003
:1009B00000127A00F8B504460CB90120F8BD207881
:1009C00000F00100002874D0F948006800F00C0025
:1009D00004280DD0F648006800F00C00082813D158
:1009E000F348001F006800F48000B0F5800F0BD1C1
:1009F000EF4808380068C0F34040002859D06068CC
:100A0000002856D10120D9E700BF6068B0F5803FCB
:100A100008D1E7480838006840F48030E4490839D4
:100A200008601EE06068B0F5A02F0DD1E0480838DE
:100A3000006840F48020DE490839086008460068F4
:100A400040F4803008600CE0D9480838006820F491
:100A50008030D749083908600846006820F48020B3
:100A6000086000BF606890B1FFF7D2FD054606E060
:100A7000FFF7CEFD401B642801D903209EE7CC4838
:100A800008380068C0F340400028F1D011E0FFF7BB
:100A9000BFFD054606E0FFF7BBFD401B642801D9FA
:100AA00003208BE7C24808380068C0F340400028A4
:100AB000F1D1207800F0020002285FD1BC48006824
:100AC00000F00C0058B1BA48006800F00C0008288B
:100AD0001CD1B748001F006800F48000B0B9B448CA
:100AE00008380068C0F3400020B1E068012801D058
:100AF000012063E7AE480838006820F0F80021695B
:100B000040EAC100AA490839086037E0E06800B34C
:100B10000120A8490860FFF77BFD054606E0FFF7C6
:100B200077FD401B022801D9032047E7A048083879
:100B30000068C0F340000028F1D09D4808380068E4
:100B400020F0F800216940EAC1009949083908609D
:100B500014E0002097490860FFF75AFD054606E0BB
:100B6000FFF756FD401B022801D9032026E79048D5
:100B700008380068C0F340000028F1D1207800F068
:100B8000080008282CD16069A8B101208A490860B2
:100B9000FFF73EFD054606E0FFF73AFD401B022841
:100BA00001D903200AE782486C300068C0F3400096
:100BB0000028F1D014E000207F490860FFF728FDED
:100BC000054606E0FFF724FD401B022801D903205B
:100BD000F4E677486C300068C0F340000028F1D19B
:100BE000207800F00400042870D1002770483830C5
:100BF000006800F0805090B900BF002000906C4861
:100C00003830006840F08050694938310860084643
:100C1000006800F08050009000BF00BF01276748C7
:100C2000006800F48070B0B96448006840F48070D7
:100C300062490860FFF7ECFC054606E0FFF7E8FCB8
:100C4000401B022801D90320B8E65C48006800F484
:100C500080700028F2D000BFA068012808D1544855
:100C60006830006840F001005149683108601DE0BB
:100C7000A06805280DD14E486830006840F0040097
:100C80004B49683108600846006840F00100086080
:100C90000CE047486830006820F0010044496831A2
:100CA00008600846006820F00400086000BFA068E3
:100CB000A8B1FFF7ADFC054609E0FFF7A9FC401B12
:100CC00041F28831884202D9032077E626E038488D
:100CD00068300068C0F340000028EED013E0FFF752
:100CE00097FC054608E0FFF793FC401B41F2883172
:100CF000884201D9032061E62D4868300068C0F3BE
:100D000040000028EFD1012F07D129483830006872
:100D100020F0805026493831086000BFA0690028C3
:100D200045D02348006800F00C0008285DD0A06979
:100D3000022845D100201F490866FFF769FC0546D7
:100D400006E0FFF765FC401B022801D9032035E6C9
:100D5000174808380068C0F340600028F1D1D4E992
:100D600007010843616A40EA81110122A06AC2EBCF
:100D7000500041EA00412C20005D41EA00600C492E
:100D8000091F086001200B490866FFF741FC054672
:100D900006E0FFF73DFC401B022801D903200DE6C9
:100DA000034808380068C0F340600028F1D03FE0F5
:100DB0000838024000004742800E47420070004061
:100DC00000201C490866FFF723FC054606E0FFF7F4
:100DD0001FFC401B022801D90320EFE516480068DC
:100DE000C0F340600028F2D122E0A069012800D1C0
:100DF000E4E51148001D066806F48001E0698142BF
:100E000014D106F03F01206A81420FD147F6C0702D
:100E10003040616A884209D106F44031A06A8142BB
:100E200004D106F07061E06A814201D00120C5E57D
:100E30000020C3E50000474200380240704770B50B
:100E400004462546681EB0F1807F01D301200FE0E3
:100E5000681E4FF0E02148610F214FF0FF3000F095
:100E600039FD00204FF0E021886107200861002053
:100E700070BD10B5FFF7E2FF10BD7047704710B5A9
:100E800004460CB9012010BD94F83D0028B900209B
:100E900084F83C00204600F00CF8022084F83D0065
:100EA000211D206800F0B2FB012084F83D000020E5
:100EB000E9E770470146022081F83D000868806834
:100EC00000F00702062A05D00868006840F001001B
:100ED0000B681860012081F83D0000207047014632
:100EE0000868C06840F001000B68D8600868806836
:100EF00000F00702062A05D00868006840F00100EB
:100F00000B68186000207047704710B504462068D1
:100F10000069C0F34000D8B12068C068C0F3400049
:100F2000B0B16FF0020021680861012020772068CD
:100F3000806900F0030018B12046FFF7E5FF05E0E7
:100F4000204600F0ADF8204600F04AF90020207756
:100F500020680069C0F38000D8B12068C068C0F381
:100F60008000B0B16FF00400216808610220207792
:100F70002068806900F4407018B12046FFF7C4FF74
:100F800005E0204600F08CF8204600F029F900200A
:100F9000207720680069C0F3C000D8B12068C0681D
:100FA000C0F3C000B0B16FF00800216808610420F0
:100FB00020772068C06900F0030018B12046FFF7D1
:100FC000A3FF05E0204600F06BF8204600F008F98A
:100FD0000020207720680069C0F30010D8B1206895
:100FE000C068C0F30010B0B16FF010002168086154
:100FF000082020772068C06900F4407018B12046AE
:10100000FFF782FF05E0204600F04AF8204600F096
:10101000E7F8002020772068006900F0010058B14F
:101020002068C06800F0010030B16FF00100216855
:101030000861204600F002F920680069C0F3C01082
:1010400058B12068C068C0F3C01030B16FF08000A4
:10105000216808612046FFF710FF20680069C0F38F
:10106000801058B12068C068C0F3801030B16FF0B4
:10107000400021680861204600F0E1F8206800691E
:10108000C0F3401058B12068C068C0F3401030B1C0
:101090006FF02000216808612046FFF7EFFE10BDC9
:1010A000704770B504460D46164600BF94F83C00E4
:1010B000012801D1022070BD012084F83C0000BF4E
:1010C000022084F83D0036B1042E1BD0082E31D00A
:1010D0000C2E5ED145E02946206800F015FB206803
:1010E000806940F00800216888612068806920F0EC
:1010F00004002168886120688069296908432168A3
:10110000886147E02946206800F036FB2068806946
:1011100040F40060216888612068806920F4806064
:101120002168886120688069296940EA0120216876
:1011300088612FE02946206800F05CFB2068C069C8
:1011400040F008002168C8612068C06920F00400F0
:101150002168C8612068C069296908432168C8619D
:1011600018E02946206800F081FB2068C06940F43F
:1011700000602168C8612068C06920F4806021682F
:10118000C8612068C069296940EA01202168C861F6
:1011900000E000BF00BF012084F83D0000BF002038
:1011A00084F83C0000BF00BF85E710B504460CB9C9
:1011B000012010BD94F83D0028B9002084F83C00BF
:1011C000204600F00CF8022084F83D00211D206824
:1011D00000F01CFA012084F83D000020E9E7704788
:1011E0007047000070B504460E4601223146206863
:1011F00000F078FA0F492068884203D00E49206831
:10120000884201D1012000E0002028B12068406C14
:1012100040F40040216848642068806800F00705B9
:10122000062D05D02068006840F0010021680860A4
:10123000002070BD0000014000040140704770476D
:1012400000BFFEE708B500BF002000900C48006812
:1012500040F008000A4908600846006800F00800ED
:10126000009000BF00BF01200649086000204860D0
:10127000022088600020C8600348FFF7BFF808BD5F
:1012800030380240100000200000024008B500BFC6
:10129000002000900D48006840F008000B490860ED
:1012A0000846006800F00800009000BF00BF4FF43F
:1012B0000040074908600120486002208860002043
:1012C000C8600448FFF79AF808BD000030380240B3
:1012D00010000020000C024008B500BF0020009064
:1012E0000D48006840F008000B4908600846006897
:1012F00000F00800009000BF00BF4FF4E040074935
:1013000008600220486088600020C86002200861F0
:101310000348FFF773F808BD30380240240000206E
:10132000000C024008B500BF002000900D48006886
:1013300040F001000B4908600846006800F0010019
:10134000009000BF00BFC02007490860022048602D
:1013500000208860C860022008610448FFF74EF84A
:1013600008BD00003038024010000020000002409C
:1013700008B500BF002000901648006840F001004A
:10138000144908600846006800F00100009000BFA2
:1013900000BF08061049086041F287310E48C1605D
:1013A00042F2CF000C49486000210B488160016186
:1013B0004161FFF764FD0848FFF791FD00221146E7
:1013C0001C20FFF78AF91C20FFF773F90248FFF78A
:1013D00071FD08BD403802403800002008B500BF4C
:1013E000002000901048006840F002000E4908609C
:1013F0000846006800F00200009000BF00BF0B48E4
:101400000B49086044F61F610948C1605320084930
:10141000486000210648816001614161FFF72FFDAE
:101420000348FFF747FD08BD403802400004004074
:10143000B800002008B500BF0020009010480068E8
:1014400040F004000E4908600846006800F00400FF
:10145000009000BF00BF0B480B49086044F61F61B5
:101460000948C1605320084948600021064881604E
:1014700001614161FFF703FD0348FFF71BFD08BD54
:1014800040380240000800407800002000BFFEE71E
:10149000704770477047000010B50E48FFF785FE93
:1014A00060200D49086000204860886008610022C3
:1014B0000848FFF7F6FD00210648FFF793FE0422D7
:1014C00005490448FFF7EDFD04210248FFF78AFEB5
:1014D00010BD0000B80000201401002010B5124813
:1014E000FFF763FE602011490860002048608860B3
:1014F000086100220C48FFF7D4FD00210A48FFF7DD
:1015000071FE042209490848FFF7CBFD0421064873
:10151000FFF768FE082205490348FFF7C2FD0821CE
:101520000148FFF75FFE10BD78000020F8000020A2
:1015300010B5FFF773F8FFF79CFC10BD00B593B032
:1015400000BF002001902148006840F080501F49F2
:1015500008600846006800F08050019000BF00BF9E
:1015600000BF002001901A48006840F480401849EC
:1015700008600846006800F48040019000BF00BF8A
:101580000120029000040390022008904105099177
:1015900008210A914FF4A8710B9102210C910721A7
:1015A0000D9102A8FFF706FA0F200E9002200F906F
:1015B000002010904FF4A05011904FF480501290E2
:1015C00005210EA8FFF7DCF813B000BD403802403B
:1015D000007000400548006840F47000034908604E
:1015E0004FF00060014980390860704788ED00E0E5
:1015F00010B50448FFF789FC4FF400410248FEF79C
:10160000FDFF10BD38000020000C024010B502683C
:10161000294B98420ED0B0F1804F0BD0274B984207
:1016200008D0274B984205D0264B984202D0264B33
:10163000984203D122F070024B681A431E4B984225
:1016400020D0B0F1804F1DD01C4B98421AD01C4BBB
:10165000984217D01B4B984214D01B4B984211D084
:101660001A4B98420ED01A4B98420BD0194B984205
:1016700008D0194B984205D0184B984202D0184B0D
:10168000984203D122F44072CB681A4322F08003BF
:101690004C6943EA040202608B68C3620B68836290
:1016A000054B984202D0084B984201D10B69036365
:1016B0000123436110BD0000000001400004004010
:1016C00000080040000C00400004014000400140C0
:1016D000004401400048014000180040001C004048
:1016E0000020004030B501F01F05012404FA05F385
:1016F000046A9C430462046A01F01F0502FA05F5BE
:101700002C43046230BD000030B5056A25F00105A8
:101710000562026A4368846924F0700424F00304BB
:101720000D682C4322F002028D682A43104DA84216
:1017300000D103E00F4DA84206D100BF22F00802FD
:10174000CD682A4322F00402094DA84202D0094D77
:10175000A84207D123F4807323F400734D692B430F
:101760008D692B43436084614D684563026230BDDF
:10177000000001400004014030B5056A25F0100565
:101780000562026A4368846924F4E04424F44074E6
:101790000D6844EA052422F020028D6842EA051211
:1017A000124DA84200D103E0114DA84207D100BF5D
:1017B00022F08002CD6842EA051222F040020B4D71
:1017C000A84202D00A4DA84209D123F4806323F431
:1017D00000634D6943EA85038D6943EA85034360ED
:1017E00084614D688563026230BD000000000140E5
:1017F0000004014030B5056A25F480750562026A6F
:101800004368C46924F0700424F003040D682C4379
:1018100022F400728D6842EA0522124DA84200D1DE
:1018200003E0114DA84207D100BF22F40062CD6849
:1018300042EA052222F480620A4DA84202D00A4DF3
:10184000A84209D123F4805323F400534D6943EA9D
:1018500005138D6943EA05134360C4614D68C56390
:10186000026230BD000001400004014030B5056A4D
:1018700025F480550562036A4468C26922F4E04297
:1018800022F440720D6842EA052223F400538D6869
:1018900043EA0533084DA84202D0084DA84204D1BE
:1018A00024F480444D6944EA85144460C2614D6863
:1018B0000564036230BD00000000014000040140E7
:1018C00000BFFEE702480068C0F302207047000036
:1018D0000CED00E010B5002804DB0A07130E054AE2
:1018E000135406E00A07140E034A00F00F031B1FEF
:1018F000D45410BD00E400E018ED00E0FEF79AFEBD
:10190000FFF71CFEFFF7C2FCFFF7E6FCFFF79AFCAF
:10191000FFF708FDFFF72CFDFFF760FDFFF78AFDDD
:10192000FFF7DCFDFFF7B8FD00BF4FF4FA70134975
:101930000860091D08608000FEF74CFD40F2DC5095
:101940000E490860091D08604FF4FA60FEF742FD79
:1019500040F6C41009490860091D08604FF4FA6098
:10196000FEF738FD40F2DC5004490860091D0860AC
:101970004FF4FA60FEF72EFDD7E700003404004074
:101980004FF04070E1EE100A7047000000000000C8
:10199000000001020304060708090000000001021C
:1019A00003040000C419000800000020100000001B
:1019B000C4010008D41900081000002080070000AE
:1019C000E00100080000000010000000010000001D
:0419D000007A030A8C
:0400000508000229C4
:00000001FF
